{
  "contractName": "Base",
  "abi": [
    {
      "constant": true,
      "inputs": [
        {
          "name": "",
          "type": "uint256"
        }
      ],
      "name": "owners",
      "outputs": [
        {
          "name": "",
          "type": "address"
        }
      ],
      "payable": false,
      "stateMutability": "view",
      "type": "function"
    },
    {
      "constant": true,
      "inputs": [],
      "name": "name",
      "outputs": [
        {
          "name": "",
          "type": "string"
        }
      ],
      "payable": false,
      "stateMutability": "pure",
      "type": "function"
    },
    {
      "constant": false,
      "inputs": [
        {
          "name": "_spender",
          "type": "address"
        },
        {
          "name": "_value",
          "type": "uint256"
        }
      ],
      "name": "approve",
      "outputs": [
        {
          "name": "",
          "type": "bool"
        }
      ],
      "payable": false,
      "stateMutability": "nonpayable",
      "type": "function"
    },
    {
      "constant": true,
      "inputs": [],
      "name": "totalSupply",
      "outputs": [
        {
          "name": "",
          "type": "uint256"
        }
      ],
      "payable": false,
      "stateMutability": "view",
      "type": "function"
    },
    {
      "constant": false,
      "inputs": [
        {
          "name": "_from",
          "type": "address"
        },
        {
          "name": "_to",
          "type": "address"
        },
        {
          "name": "_value",
          "type": "uint256"
        }
      ],
      "name": "transferFrom",
      "outputs": [
        {
          "name": "",
          "type": "bool"
        }
      ],
      "payable": false,
      "stateMutability": "nonpayable",
      "type": "function"
    },
    {
      "constant": true,
      "inputs": [],
      "name": "INITIAL_SUPPLY",
      "outputs": [
        {
          "name": "",
          "type": "uint256"
        }
      ],
      "payable": false,
      "stateMutability": "pure",
      "type": "function"
    },
    {
      "constant": true,
      "inputs": [],
      "name": "decimals",
      "outputs": [
        {
          "name": "",
          "type": "uint8"
        }
      ],
      "payable": false,
      "stateMutability": "pure",
      "type": "function"
    },
    {
      "constant": true,
      "inputs": [],
      "name": "implementation",
      "outputs": [
        {
          "name": "",
          "type": "address"
        }
      ],
      "payable": false,
      "stateMutability": "view",
      "type": "function"
    },
    {
      "constant": false,
      "inputs": [
        {
          "name": "_spender",
          "type": "address"
        },
        {
          "name": "_subtractedValue",
          "type": "uint256"
        }
      ],
      "name": "decreaseApproval",
      "outputs": [
        {
          "name": "success",
          "type": "bool"
        }
      ],
      "payable": false,
      "stateMutability": "nonpayable",
      "type": "function"
    },
    {
      "constant": false,
      "inputs": [
        {
          "name": "index",
          "type": "uint256"
        }
      ],
      "name": "removeOwner",
      "outputs": [],
      "payable": false,
      "stateMutability": "nonpayable",
      "type": "function"
    },
    {
      "constant": false,
      "inputs": [
        {
          "name": "newOwner",
          "type": "address"
        }
      ],
      "name": "addOwner",
      "outputs": [],
      "payable": false,
      "stateMutability": "nonpayable",
      "type": "function"
    },
    {
      "constant": true,
      "inputs": [
        {
          "name": "_owner",
          "type": "address"
        }
      ],
      "name": "balanceOf",
      "outputs": [
        {
          "name": "balance",
          "type": "uint256"
        }
      ],
      "payable": false,
      "stateMutability": "view",
      "type": "function"
    },
    {
      "constant": false,
      "inputs": [],
      "name": "initialize",
      "outputs": [],
      "payable": true,
      "stateMutability": "payable",
      "type": "function"
    },
    {
      "constant": true,
      "inputs": [],
      "name": "symbol",
      "outputs": [
        {
          "name": "",
          "type": "string"
        }
      ],
      "payable": false,
      "stateMutability": "pure",
      "type": "function"
    },
    {
      "constant": false,
      "inputs": [
        {
          "name": "_to",
          "type": "address"
        },
        {
          "name": "_value",
          "type": "uint256"
        }
      ],
      "name": "transfer",
      "outputs": [
        {
          "name": "",
          "type": "bool"
        }
      ],
      "payable": false,
      "stateMutability": "nonpayable",
      "type": "function"
    },
    {
      "constant": true,
      "inputs": [],
      "name": "ownersCount",
      "outputs": [
        {
          "name": "",
          "type": "uint256"
        }
      ],
      "payable": false,
      "stateMutability": "view",
      "type": "function"
    },
    {
      "constant": false,
      "inputs": [
        {
          "name": "_spender",
          "type": "address"
        },
        {
          "name": "_addedValue",
          "type": "uint256"
        }
      ],
      "name": "increaseApproval",
      "outputs": [
        {
          "name": "success",
          "type": "bool"
        }
      ],
      "payable": false,
      "stateMutability": "nonpayable",
      "type": "function"
    },
    {
      "constant": true,
      "inputs": [
        {
          "name": "_owner",
          "type": "address"
        },
        {
          "name": "_spender",
          "type": "address"
        }
      ],
      "name": "allowance",
      "outputs": [
        {
          "name": "remaining",
          "type": "uint256"
        }
      ],
      "payable": false,
      "stateMutability": "view",
      "type": "function"
    },
    {
      "anonymous": false,
      "inputs": [
        {
          "indexed": true,
          "name": "owner",
          "type": "address"
        },
        {
          "indexed": true,
          "name": "spender",
          "type": "address"
        },
        {
          "indexed": false,
          "name": "value",
          "type": "uint256"
        }
      ],
      "name": "Approval",
      "type": "event"
    },
    {
      "anonymous": false,
      "inputs": [
        {
          "indexed": true,
          "name": "from",
          "type": "address"
        },
        {
          "indexed": true,
          "name": "to",
          "type": "address"
        },
        {
          "indexed": false,
          "name": "value",
          "type": "uint256"
        }
      ],
      "name": "Transfer",
      "type": "event"
    },
    {
      "anonymous": false,
      "inputs": [
        {
          "indexed": false,
          "name": "implementation",
          "type": "address"
        }
      ],
      "name": "NewImplementation",
      "type": "event"
    },
    {
      "anonymous": false,
      "inputs": [
        {
          "indexed": true,
          "name": "authorizer",
          "type": "address"
        },
        {
          "indexed": true,
          "name": "newOwner",
          "type": "address"
        },
        {
          "indexed": false,
          "name": "index",
          "type": "uint256"
        }
      ],
      "name": "OwnerAdded",
      "type": "event"
    },
    {
      "anonymous": false,
      "inputs": [
        {
          "indexed": true,
          "name": "authorizer",
          "type": "address"
        },
        {
          "indexed": true,
          "name": "oldOwner",
          "type": "address"
        }
      ],
      "name": "OwnerRemoved",
      "type": "event"
    }
  ],
  "bytecode": "0x606060405260008054600181016100168382610076565b50600091825260208220018054600160a060020a03191633600160a060020a0316908117909155907fa0b18fca933618876351ba2ef88bf4505c184d3e55064bec0d7fe236dd706d848160405190815260200160405180910390a36100c0565b81548183558181151161009a5760008381526020902061009a91810190830161009f565b505050565b6100bd91905b808211156100b957600081556001016100a5565b5090565b90565b610bd6806100cf6000396000f3006060604052600436106100fb5763ffffffff7c0100000000000000000000000000000000000000000000000000000000600035041663025e7c27811461010057806306fdde0314610132578063095ea7b3146101bc57806318160ddd146101f257806323b872dd146102175780632ff2e9dc1461023f578063313ce567146102525780635c60da1b1461027b578063661884631461028e5780636b919488146102b05780637065cb48146102c857806370a08231146102e75780638129fc1c1461030657806395d89b411461030e578063a9059cbb14610321578063b948854614610343578063d73dd62314610356578063dd62ed3e14610378575b600080fd5b341561010b57600080fd5b61011660043561039d565b604051600160a060020a03909116815260200160405180910390f35b341561013d57600080fd5b6101456103c5565b60405160208082528190810183818151815260200191508051906020019080838360005b83811015610181578082015183820152602001610169565b50505050905090810190601f1680156101ae5780820380516001836020036101000a031916815260200191505b509250505060405180910390f35b34156101c757600080fd5b6101de600160a060020a0360043516602435610407565b604051901515815260200160405180910390f35b34156101fd57600080fd5b610205610473565b60405190815260200160405180910390f35b341561022257600080fd5b6101de600160a060020a0360043581169060243516604435610482565b341561024a57600080fd5b6102056105ac565b341561025d57600080fd5b6102656105b7565b60405160ff909116815260200160405180910390f35b341561028657600080fd5b6101166105bc565b341561029957600080fd5b6101de600160a060020a03600435166024356105cb565b34156102bb57600080fd5b6102c66004356106c5565b005b34156102d357600080fd5b6102c6600160a060020a0360043516610825565b34156102f257600080fd5b610205600160a060020a0360043516610920565b6102c661093b565b341561031957600080fd5b61014561093d565b341561032c57600080fd5b6101de600160a060020a036004351660243561097e565b341561034e57600080fd5b610205610a54565b341561036157600080fd5b6101de600160a060020a0360043516602435610a5a565b341561038357600080fd5b610205600160a060020a0360043581169060243516610afe565b60008054829081106103ab57fe5b600091825260209091200154600160a060020a0316905081565b6103cd610b51565b60408051908101604052600981527f4b6e6f776c656467650000000000000000000000000000000000000000000000602082015290505b90565b600160a060020a03338116600081815260036020908152604080832094871680845294909152808220859055909291907f8c5be1e5ebec7d5bd14f71427d1e84f3dd0314c0f7b2291e5b200ac8c7c3b9259085905190815260200160405180910390a350600192915050565b600061047d6105ac565b905090565b600080600160a060020a038416151561049a57600080fd5b50600160a060020a038085166000818152600360209081526040808320339095168352938152838220549282526002905291909120546104e0908463ffffffff610b2916565b600160a060020a038087166000908152600260205260408082209390935590861681522054610515908463ffffffff610b3b16565b600160a060020a03851660009081526002602052604090205561053e818463ffffffff610b2916565b600160a060020a03808716600081815260036020908152604080832033861684529091529081902093909355908616917fddf252ad1be2c89b69c2b068fc378daa952ba7f163c4a11628f55a4df523b3ef9086905190815260200160405180910390a3506001949350505050565b66354a6ba7a1800090565b600890565b600154600160a060020a031690565b600160a060020a0333811660009081526003602090815260408083209386168352929052908120548083111561062857600160a060020a03338116600090815260036020908152604080832093881683529290529081205561065f565b610638818463ffffffff610b2916565b600160a060020a033381166000908152600360209081526040808320938916835292905220555b600160a060020a0333811660008181526003602090815260408083209489168084529490915290819020547f8c5be1e5ebec7d5bd14f71427d1e84f3dd0314c0f7b2291e5b200ac8c7c3b925915190815260200160405180910390a35060019392505050565b600080805b6000548110156107135760008054829081106106e257fe5b60009182526020909120015433600160a060020a039081169116141561070b5760019150610713565b6001016106ca565b81151561071f57600080fd5b600080548590811061072d57fe5b60009182526020822001548154600160a060020a039091169450600019810190811061075557fe5b60009182526020822001548154600160a060020a0390911691908690811061077957fe5b60009182526020822001805473ffffffffffffffffffffffffffffffffffffffff1916600160a060020a039390931692909217909155805460001981019081106107bf57fe5b6000918252602090912001805473ffffffffffffffffffffffffffffffffffffffff19169055600160a060020a038381169033167fe594d081b4382713733fe631966432c9cea5199afb2db5c3c1931f9f9300367960405160405180910390a350505050565b600080805b60005481101561087357600080548290811061084257fe5b60009182526020909120015433600160a060020a039081169116141561086b5760019150610873565b60010161082a565b81151561087f57600080fd5b600160a060020a038416151561089457600080fd5b6001600080548060010182816108aa9190610b63565b6000928352602090922001805473ffffffffffffffffffffffffffffffffffffffff1916600160a060020a0388811691821790925592909103945033167fa0b18fca933618876351ba2ef88bf4505c184d3e55064bec0d7fe236dd706d848560405190815260200160405180910390a350505050565b600160a060020a031660009081526002602052604090205490565b565b610945610b51565b60408051908101604052600381527f4b4e5700000000000000000000000000000000000000000000000000000000006020820152905090565b6000600160a060020a038316151561099557600080fd5b600160a060020a0333166000908152600260205260409020546109be908363ffffffff610b2916565b600160a060020a0333811660009081526002602052604080822093909355908516815220546109f3908363ffffffff610b3b16565b600160a060020a0380851660008181526002602052604090819020939093559133909116907fddf252ad1be2c89b69c2b068fc378daa952ba7f163c4a11628f55a4df523b3ef9085905190815260200160405180910390a350600192915050565b60005490565b600160a060020a033381166000908152600360209081526040808320938616835292905290812054610a92908363ffffffff610b3b16565b600160a060020a0333811660008181526003602090815260408083209489168084529490915290819020849055919290917f8c5be1e5ebec7d5bd14f71427d1e84f3dd0314c0f7b2291e5b200ac8c7c3b92591905190815260200160405180910390a350600192915050565b600160a060020a03918216600090815260036020908152604080832093909416825291909152205490565b600082821115610b3557fe5b50900390565b600082820183811015610b4a57fe5b9392505050565b60206040519081016040526000815290565b815481835581811511610b8757600083815260209020610b87918101908301610b8c565b505050565b61040491905b80821115610ba65760008155600101610b92565b50905600a165627a7a72305820e4fa59820f951fcb4d37673b69bd504ddcf67821e6e1e186b5e8bc660597a88c0029",
  "source": "pragma solidity ^0.4.18;\n\nimport { ERC20Token } from './utils/ERC20Token.sol';\nimport { Upgradable } from './utils/Upgradable.sol';\n\n\n/**\n * Base Contract (KNW)\n * Upgradable Standard ECR20 Token\n */\ncontract Base is Upgradable, ERC20Token {\n  function name() pure public returns (string) {\n    return 'Knowledge';\n  }\n\n  function symbol() pure public returns (string) {\n    return 'KNW';\n  }\n\n  function decimals() pure public returns (uint8) {\n    return 8;\n  }\n\n  function INITIAL_SUPPLY() pure public returns (uint) {\n    /** 150,000,000.00000000 KNW tokens */\n    return 15000000000000000;\n  }\n\n  function totalSupply() view public returns (uint) {\n    return INITIAL_SUPPLY();\n  }\n}\n",
  "sourcePath": "/Users/diegobarahona/Documents/Projects/Knowledge/knowledge-contracts/contracts/Base.sol",
  "compiler": {
    "name": "solc",
    "version": "0.4.18+commit.9cf6e910.Emscripten.clang"
  },
  "schemaVersion": "1.0.1",
  "updatedAt": "2018-03-18T17:45:02.300Z"
}