{
  "contractName": "Knowledge",
  "abi": [
    {
      "constant": true,
      "inputs": [],
      "name": "name",
      "outputs": [
        {
          "name": "",
          "type": "string"
        }
      ],
      "payable": false,
      "stateMutability": "view",
      "type": "function"
    },
    {
      "constant": false,
      "inputs": [
        {
          "name": "_spender",
          "type": "address"
        },
        {
          "name": "_value",
          "type": "uint256"
        }
      ],
      "name": "approve",
      "outputs": [
        {
          "name": "",
          "type": "bool"
        }
      ],
      "payable": false,
      "stateMutability": "nonpayable",
      "type": "function"
    },
    {
      "constant": false,
      "inputs": [
        {
          "name": "value",
          "type": "uint256"
        },
        {
          "name": "fee",
          "type": "uint8"
        },
        {
          "name": "ref",
          "type": "string"
        },
        {
          "name": "to",
          "type": "address"
        }
      ],
      "name": "requestPayment",
      "outputs": [],
      "payable": false,
      "stateMutability": "nonpayable",
      "type": "function"
    },
    {
      "constant": true,
      "inputs": [],
      "name": "totalSupply",
      "outputs": [
        {
          "name": "",
          "type": "uint256"
        }
      ],
      "payable": false,
      "stateMutability": "view",
      "type": "function"
    },
    {
      "constant": false,
      "inputs": [
        {
          "name": "_from",
          "type": "address"
        },
        {
          "name": "_to",
          "type": "address"
        },
        {
          "name": "_value",
          "type": "uint256"
        }
      ],
      "name": "transferFrom",
      "outputs": [
        {
          "name": "",
          "type": "bool"
        }
      ],
      "payable": false,
      "stateMutability": "nonpayable",
      "type": "function"
    },
    {
      "constant": true,
      "inputs": [],
      "name": "INITIAL_SUPPLY",
      "outputs": [
        {
          "name": "",
          "type": "uint256"
        }
      ],
      "payable": false,
      "stateMutability": "view",
      "type": "function"
    },
    {
      "constant": true,
      "inputs": [],
      "name": "decimals",
      "outputs": [
        {
          "name": "",
          "type": "uint8"
        }
      ],
      "payable": false,
      "stateMutability": "view",
      "type": "function"
    },
    {
      "constant": false,
      "inputs": [
        {
          "name": "value",
          "type": "uint256"
        }
      ],
      "name": "upgrade",
      "outputs": [],
      "payable": false,
      "stateMutability": "nonpayable",
      "type": "function"
    },
    {
      "constant": true,
      "inputs": [],
      "name": "upgradeAgent",
      "outputs": [
        {
          "name": "",
          "type": "address"
        }
      ],
      "payable": false,
      "stateMutability": "view",
      "type": "function"
    },
    {
      "constant": true,
      "inputs": [],
      "name": "upgradeMaster",
      "outputs": [
        {
          "name": "",
          "type": "address"
        }
      ],
      "payable": false,
      "stateMutability": "view",
      "type": "function"
    },
    {
      "constant": false,
      "inputs": [
        {
          "name": "_spender",
          "type": "address"
        },
        {
          "name": "_subtractedValue",
          "type": "uint256"
        }
      ],
      "name": "decreaseApproval",
      "outputs": [
        {
          "name": "success",
          "type": "bool"
        }
      ],
      "payable": false,
      "stateMutability": "nonpayable",
      "type": "function"
    },
    {
      "constant": true,
      "inputs": [
        {
          "name": "_owner",
          "type": "address"
        }
      ],
      "name": "balanceOf",
      "outputs": [
        {
          "name": "balance",
          "type": "uint256"
        }
      ],
      "payable": false,
      "stateMutability": "view",
      "type": "function"
    },
    {
      "constant": true,
      "inputs": [],
      "name": "getUpgradeState",
      "outputs": [
        {
          "name": "",
          "type": "uint8"
        }
      ],
      "payable": false,
      "stateMutability": "view",
      "type": "function"
    },
    {
      "constant": true,
      "inputs": [],
      "name": "symbol",
      "outputs": [
        {
          "name": "",
          "type": "string"
        }
      ],
      "payable": false,
      "stateMutability": "view",
      "type": "function"
    },
    {
      "constant": true,
      "inputs": [],
      "name": "canUpgrade",
      "outputs": [
        {
          "name": "",
          "type": "bool"
        }
      ],
      "payable": false,
      "stateMutability": "pure",
      "type": "function"
    },
    {
      "constant": true,
      "inputs": [
        {
          "name": "store",
          "type": "address"
        },
        {
          "name": "ref",
          "type": "string"
        }
      ],
      "name": "paymentInfo",
      "outputs": [
        {
          "name": "value",
          "type": "uint256"
        },
        {
          "name": "fee",
          "type": "uint8"
        },
        {
          "name": "seller",
          "type": "address"
        }
      ],
      "payable": false,
      "stateMutability": "view",
      "type": "function"
    },
    {
      "constant": false,
      "inputs": [
        {
          "name": "_to",
          "type": "address"
        },
        {
          "name": "_value",
          "type": "uint256"
        }
      ],
      "name": "transfer",
      "outputs": [
        {
          "name": "",
          "type": "bool"
        }
      ],
      "payable": false,
      "stateMutability": "nonpayable",
      "type": "function"
    },
    {
      "constant": true,
      "inputs": [],
      "name": "totalUpgraded",
      "outputs": [
        {
          "name": "",
          "type": "uint256"
        }
      ],
      "payable": false,
      "stateMutability": "view",
      "type": "function"
    },
    {
      "constant": false,
      "inputs": [
        {
          "name": "_spender",
          "type": "address"
        },
        {
          "name": "_addedValue",
          "type": "uint256"
        }
      ],
      "name": "increaseApproval",
      "outputs": [
        {
          "name": "success",
          "type": "bool"
        }
      ],
      "payable": false,
      "stateMutability": "nonpayable",
      "type": "function"
    },
    {
      "constant": false,
      "inputs": [
        {
          "name": "agent",
          "type": "address"
        }
      ],
      "name": "setUpgradeAgent",
      "outputs": [],
      "payable": false,
      "stateMutability": "nonpayable",
      "type": "function"
    },
    {
      "constant": true,
      "inputs": [
        {
          "name": "_owner",
          "type": "address"
        },
        {
          "name": "_spender",
          "type": "address"
        }
      ],
      "name": "allowance",
      "outputs": [
        {
          "name": "remaining",
          "type": "uint256"
        }
      ],
      "payable": false,
      "stateMutability": "view",
      "type": "function"
    },
    {
      "constant": false,
      "inputs": [
        {
          "name": "store",
          "type": "address"
        },
        {
          "name": "ref",
          "type": "string"
        }
      ],
      "name": "pay",
      "outputs": [
        {
          "name": "",
          "type": "bool"
        }
      ],
      "payable": false,
      "stateMutability": "nonpayable",
      "type": "function"
    },
    {
      "constant": false,
      "inputs": [
        {
          "name": "master",
          "type": "address"
        }
      ],
      "name": "setUpgradeMaster",
      "outputs": [],
      "payable": false,
      "stateMutability": "nonpayable",
      "type": "function"
    },
    {
      "inputs": [],
      "payable": false,
      "stateMutability": "nonpayable",
      "type": "constructor"
    },
    {
      "anonymous": false,
      "inputs": [
        {
          "indexed": true,
          "name": "_from",
          "type": "address"
        },
        {
          "indexed": true,
          "name": "_to",
          "type": "address"
        },
        {
          "indexed": false,
          "name": "_value",
          "type": "uint256"
        }
      ],
      "name": "Upgrade",
      "type": "event"
    },
    {
      "anonymous": false,
      "inputs": [
        {
          "indexed": false,
          "name": "agent",
          "type": "address"
        }
      ],
      "name": "UpgradeAgentSet",
      "type": "event"
    },
    {
      "anonymous": false,
      "inputs": [
        {
          "indexed": false,
          "name": "upgradeMaster",
          "type": "address"
        }
      ],
      "name": "NewUpgradeMaster",
      "type": "event"
    },
    {
      "anonymous": false,
      "inputs": [
        {
          "indexed": false,
          "name": "from",
          "type": "address"
        },
        {
          "indexed": false,
          "name": "to",
          "type": "address"
        },
        {
          "indexed": false,
          "name": "amount",
          "type": "uint256"
        },
        {
          "indexed": false,
          "name": "ref",
          "type": "string"
        }
      ],
      "name": "Pay",
      "type": "event"
    },
    {
      "anonymous": false,
      "inputs": [
        {
          "indexed": true,
          "name": "owner",
          "type": "address"
        },
        {
          "indexed": true,
          "name": "spender",
          "type": "address"
        },
        {
          "indexed": false,
          "name": "value",
          "type": "uint256"
        }
      ],
      "name": "Approval",
      "type": "event"
    },
    {
      "anonymous": false,
      "inputs": [
        {
          "indexed": true,
          "name": "from",
          "type": "address"
        },
        {
          "indexed": true,
          "name": "to",
          "type": "address"
        },
        {
          "indexed": false,
          "name": "value",
          "type": "uint256"
        }
      ],
      "name": "Transfer",
      "type": "event"
    }
  ],
  "bytecode": "0x6060604052341561000f57600080fd5b60048054600160a060020a03191633600160a060020a038181169290921792839055917f41215aff8c294dab52583f38146756951783ca3d8b887e22e03f4b276d02606c9116604051600160a060020a03909116815260200160405180910390a150662c68af0bb140006000818155600160a060020a0333168082526001602052604080832084905590927fddf252ad1be2c89b69c2b068fc378daa952ba7f163c4a11628f55a4df523b3ef915190815260200160405180910390a36112a2806100da6000396000f3006060604052600436106101195763ffffffff60e060020a60003504166306fdde03811461011e578063095ea7b3146101a8578063173d15b9146101de57806318160ddd1461024a57806323b872dd1461026f5780632ff2e9dc14610297578063313ce567146102aa57806345977d03146102d35780635de4ccb0146102e9578063600440cb14610318578063661884631461032b57806370a082311461034d5780638444b3911461036c57806395d89b41146103a35780639738968c146103b6578063a0c99c51146103c9578063a9059cbb14610457578063c752ff6214610479578063d73dd6231461048c578063d7e7088a146104ae578063dd62ed3e146104cd578063fb4da5b7146104f2578063ffeb7d7514610551575b600080fd5b341561012957600080fd5b610131610570565b60405160208082528190810183818151815260200191508051906020019080838360005b8381101561016d578082015183820152602001610155565b50505050905090810190601f16801561019a5780820380516001836020036101000a031916815260200191505b509250505060405180910390f35b34156101b357600080fd5b6101ca600160a060020a03600435166024356105a7565b604051901515815260200160405180910390f35b34156101e957600080fd5b61024860048035906024803560ff16919060649060443590810190830135806020601f8201819004810201604051908101604052818152929190602084018383808284375094965050509235600160a060020a03169250610613915050565b005b341561025557600080fd5b61025d610726565b60405190815260200160405180910390f35b341561027a57600080fd5b6101ca600160a060020a036004358116906024351660443561072c565b34156102a257600080fd5b61025d610856565b34156102b557600080fd5b6102bd610861565b60405160ff909116815260200160405180910390f35b34156102de57600080fd5b610248600435610866565b34156102f457600080fd5b6102fc6109cf565b604051600160a060020a03909116815260200160405180910390f35b341561032357600080fd5b6102fc6109de565b341561033657600080fd5b6101ca600160a060020a03600435166024356109ed565b341561035857600080fd5b61025d600160a060020a0360043516610ae7565b341561037757600080fd5b61037f610b02565b6040518082600481111561038f57fe5b60ff16815260200191505060405180910390f35b34156103ae57600080fd5b610131610b4c565b34156103c157600080fd5b6101ca610b83565b34156103d457600080fd5b61042860048035600160a060020a03169060446024803590810190830135806020601f82018190048102016040519081016040528181529291906020840183838082843750949650610b8895505050505050565b60405192835260ff9091166020830152600160a060020a03166040808301919091526060909101905180910390f35b341561046257600080fd5b6101ca600160a060020a0360043516602435610c63565b341561048457600080fd5b61025d610d39565b341561049757600080fd5b6101ca600160a060020a0360043516602435610d3f565b34156104b957600080fd5b610248600160a060020a0360043516610de3565b34156104d857600080fd5b61025d600160a060020a0360043581169060243516610f9a565b34156104fd57600080fd5b6101ca60048035600160a060020a03169060446024803590810190830135806020601f82018190048102016040519081016040528181529291906020840183838082843750949650610fc595505050505050565b341561055c57600080fd5b610248600160a060020a036004351661118f565b60408051908101604052600981527f4b6e6f776c656467650000000000000000000000000000000000000000000000602082015281565b600160a060020a03338116600081815260026020908152604080832094871680845294909152808220859055909291907f8c5be1e5ebec7d5bd14f71427d1e84f3dd0314c0f7b2291e5b200ac8c7c3b9259085905190815260200160405180910390a350600192915050565b6060604051908101604052808581526020018460ff16815260200182600160a060020a03168152506003600033600160a060020a0316600160a060020a03168152602001908152602001600020836040518082805190602001908083835b602083106106905780518252601f199092019160209182019101610671565b6001836020036101000a03801982511681845116808217855250505050505090500191505090815260200160405190819003902081518155602082015160018201805460ff191660ff92909216919091179055604082015160019091018054600160a060020a03929092166101000274ffffffffffffffffffffffffffffffffffffffff00199092169190911790555050505050565b60005481565b600080600160a060020a038416151561074457600080fd5b50600160a060020a0380851660008181526002602090815260408083203390951683529381528382205492825260019052919091205461078a908463ffffffff61122e16565b600160a060020a0380871660009081526001602052604080822093909355908616815220546107bf908463ffffffff61124016565b600160a060020a0385166000908152600160205260409020556107e8818463ffffffff61122e16565b600160a060020a03808716600081815260026020908152604080832033861684529091529081902093909355908616917fddf252ad1be2c89b69c2b068fc378daa952ba7f163c4a11628f55a4df523b3ef9086905190815260200160405180910390a3506001949350505050565b662c68af0bb1400081565b600881565b6000610870610b02565b9050600381600481111561088057fe5b14806108975750600481600481111561089557fe5b145b15156108a257600080fd5b8115156108ae57600080fd5b600160a060020a0333166000908152600160205260409020546108d7908363ffffffff61122e16565b600160a060020a03331660009081526001602052604081209190915554610904908363ffffffff61122e16565b60005560065461091a908363ffffffff61124016565b600655600554600160a060020a031663753e88e5338460405160e060020a63ffffffff8516028152600160a060020a0390921660048301526024820152604401600060405180830381600087803b151561097357600080fd5b6102c65a03f1151561098457600080fd5b5050600554600160a060020a03908116915033167f7e5c344a8141a805725cb476f76c6953b842222b967edd1f78ddb6e8b3f397ac8460405190815260200160405180910390a35050565b600554600160a060020a031681565b600454600160a060020a031681565b600160a060020a03338116600090815260026020908152604080832093861683529290529081205480831115610a4a57600160a060020a033381166000908152600260209081526040808320938816835292905290812055610a81565b610a5a818463ffffffff61122e16565b600160a060020a033381166000908152600260209081526040808320938916835292905220555b600160a060020a0333811660008181526002602090815260408083209489168084529490915290819020547f8c5be1e5ebec7d5bd14f71427d1e84f3dd0314c0f7b2291e5b200ac8c7c3b925915190815260200160405180910390a35060019392505050565b600160a060020a031660009081526001602052604090205490565b6000610b0c610b83565b1515610b1a57506001610b49565b600554600160a060020a03161515610b3457506002610b49565b6006541515610b4557506003610b49565b5060045b90565b60408051908101604052600381527f4b4e570000000000000000000000000000000000000000000000000000000000602082015281565b600190565b6000806000610b95611256565b600160a060020a03861660009081526003602052604090819020908690518082805190602001908083835b60208310610bdf5780518252601f199092019160209182019101610bc0565b6001836020036101000a0380198251168184511680821785525050505050509050019150509081526020016040518091039020606060405190810160409081528254825260019092015460ff811660208301526101009004600160a060020a0316918101919091529050805193508060200151925080604001519150509250925092565b6000600160a060020a0383161515610c7a57600080fd5b600160a060020a033316600090815260016020526040902054610ca3908363ffffffff61122e16565b600160a060020a033381166000908152600160205260408082209390935590851681522054610cd8908363ffffffff61124016565b600160a060020a0380851660008181526001602052604090819020939093559133909116907fddf252ad1be2c89b69c2b068fc378daa952ba7f163c4a11628f55a4df523b3ef9085905190815260200160405180910390a350600192915050565b60065481565b600160a060020a033381166000908152600260209081526040808320938616835292905290812054610d77908363ffffffff61124016565b600160a060020a0333811660008181526002602090815260408083209489168084529490915290819020849055919290917f8c5be1e5ebec7d5bd14f71427d1e84f3dd0314c0f7b2291e5b200ac8c7c3b92591905190815260200160405180910390a350600192915050565b610deb610b83565b1515610df657600080fd5b600160a060020a0381161515610e0b57600080fd5b60045433600160a060020a03908116911614610e2657600080fd5b6004610e30610b02565b6004811115610e3b57fe5b1415610e4657600080fd5b6005805473ffffffffffffffffffffffffffffffffffffffff1916600160a060020a038381169190911791829055166361d3d7a66000604051602001526040518163ffffffff1660e060020a028152600401602060405180830381600087803b1515610eb157600080fd5b6102c65a03f11515610ec257600080fd5b505050604051805190501515610ed757600080fd5b600080546005549091600160a060020a0390911690634b2ba0dd90604051602001526040518163ffffffff1660e060020a028152600401602060405180830381600087803b1515610f2757600080fd5b6102c65a03f11515610f3857600080fd5b50505060405180519050141515610f4e57600080fd5b6005547f7845d5aa74cc410e35571258d954f23b82276e160fe8c188fa80566580f279cc90600160a060020a0316604051600160a060020a03909116815260200160405180910390a150565b600160a060020a03918216600090815260026020908152604080832093909416825291909152205490565b6000610fcf611256565b600160a060020a03841660009081526003602052604090819020908490518082805190602001908083835b602083106110195780518252601f199092019160209182019101610ffa565b6001836020036101000a0380198251168184511680821785525050505050509050019150509081526020016040518091039020606060405190810160409081528254825260019092015460ff811660208301526101009004600160a060020a0316918101918252915051600160a060020a0316151561109457fe5b6110a584826020015160ff16610c63565b15156110ad57fe5b6110bc81604001518251610c63565b15156110c457fe5b7f5d2ae1cdca5222ec8fffbc4b088f5b5144ad5f4eaf2fc8afc49cd35857671082338260400151835186604051600160a060020a038086168252841660208201526040810183905260806060820181815290820183818151815260200191508051906020019080838360005b83811015611148578082015183820152602001611130565b50505050905090810190601f1680156111755780820380516001836020036101000a031916815260200191505b509550505050505060405180910390a15060019392505050565b600160a060020a03811615156111a457600080fd5b60045433600160a060020a039081169116146111bf57600080fd5b6004805473ffffffffffffffffffffffffffffffffffffffff1916600160a060020a0383811691909117918290557f41215aff8c294dab52583f38146756951783ca3d8b887e22e03f4b276d02606c9116604051600160a060020a03909116815260200160405180910390a150565b60008282111561123a57fe5b50900390565b60008282018381101561124f57fe5b9392505050565b6060604051908101604090815260008083526020830181905290820152905600a165627a7a72305820f66efda476009d2b0e45d187894f35e1f7c6fbdda03bbef5d0408e3ab913f8480029",
  "source": "pragma solidity ^0.4.18;\n\nimport { PayableToken } from './PayableToken.sol';\nimport { UpgradeableToken } from './UpgradableToken.sol';\n\n\n/**\n * Knowledge Contract (KNW)\n * Upgradable Standard ECR20 Token\n */\ncontract Knowledge is PayableToken, UpgradeableToken {\n  string public constant name = 'Knowledge';\n  string public constant symbol = 'KNW';\n  uint8 public constant decimals = 8;\n\n  /** 125,000,000.00000000 KNW tokens */\n  uint256 public constant INITIAL_SUPPLY = 12500000000000000;\n\n  function Knowledge() UpgradeableToken(msg.sender) public {\n    totalSupply = INITIAL_SUPPLY;\n\n    balances[msg.sender] = INITIAL_SUPPLY;\n    Transfer(0x0, msg.sender, INITIAL_SUPPLY);\n  }\n}\n",
  "sourcePath": "/Users/diegobarahona/Documents/Projects/Knowleadge/knowledge-contracts/contracts/KnowledgeToken.sol",
  "compiler": {
    "name": "solc",
    "version": "0.4.18+commit.9cf6e910.Emscripten.clang"
  },
  "schemaVersion": "1.0.1",
  "updatedAt": "2018-01-03T23:15:27.041Z"
}