{
  "contractName": "KnowledgeProxy",
  "abi": [
    {
      "constant": true,
      "inputs": [
        {
          "name": "",
          "type": "uint256"
        }
      ],
      "name": "owners",
      "outputs": [
        {
          "name": "",
          "type": "address"
        }
      ],
      "payable": false,
      "stateMutability": "view",
      "type": "function"
    },
    {
      "constant": false,
      "inputs": [
        {
          "name": "imp",
          "type": "address"
        }
      ],
      "name": "upgradeTo",
      "outputs": [],
      "payable": true,
      "stateMutability": "payable",
      "type": "function"
    },
    {
      "constant": true,
      "inputs": [],
      "name": "implementation",
      "outputs": [
        {
          "name": "",
          "type": "address"
        }
      ],
      "payable": false,
      "stateMutability": "view",
      "type": "function"
    },
    {
      "constant": false,
      "inputs": [
        {
          "name": "index",
          "type": "uint256"
        }
      ],
      "name": "removeOwner",
      "outputs": [],
      "payable": false,
      "stateMutability": "nonpayable",
      "type": "function"
    },
    {
      "constant": false,
      "inputs": [
        {
          "name": "newOwner",
          "type": "address"
        }
      ],
      "name": "addOwner",
      "outputs": [],
      "payable": false,
      "stateMutability": "nonpayable",
      "type": "function"
    },
    {
      "constant": true,
      "inputs": [],
      "name": "ownersCount",
      "outputs": [
        {
          "name": "",
          "type": "uint256"
        }
      ],
      "payable": false,
      "stateMutability": "view",
      "type": "function"
    },
    {
      "payable": true,
      "stateMutability": "payable",
      "type": "fallback"
    },
    {
      "anonymous": false,
      "inputs": [
        {
          "indexed": false,
          "name": "implementation",
          "type": "address"
        }
      ],
      "name": "NewImplementation",
      "type": "event"
    },
    {
      "anonymous": false,
      "inputs": [
        {
          "indexed": true,
          "name": "authorizer",
          "type": "address"
        },
        {
          "indexed": true,
          "name": "newOwner",
          "type": "address"
        },
        {
          "indexed": false,
          "name": "index",
          "type": "uint256"
        }
      ],
      "name": "OwnerAdded",
      "type": "event"
    },
    {
      "anonymous": false,
      "inputs": [
        {
          "indexed": true,
          "name": "authorizer",
          "type": "address"
        },
        {
          "indexed": true,
          "name": "oldOwner",
          "type": "address"
        }
      ],
      "name": "OwnerRemoved",
      "type": "event"
    }
  ],
  "bytecode": "0x606060405260008054600181016100168382610076565b50600091825260208220018054600160a060020a03191633600160a060020a0316908117909155907fa0b18fca933618876351ba2ef88bf4505c184d3e55064bec0d7fe236dd706d848160405190815260200160405180910390a36100c0565b81548183558181151161009a5760008381526020902061009a91810190830161009f565b505050565b6100bd91905b808211156100b957600081556001016100a5565b5090565b90565b6105f7806100cf6000396000f3006060604052600436106100775763ffffffff7c0100000000000000000000000000000000000000000000000000000000600035041663025e7c2781146100f95780633659cfe61461012b5780635c60da1b146101415780636b919488146101545780637065cb481461016a578063b948854614610189575b6000610081610572565b6100896101ae565b9150600160a060020a03821615156100a057600080fd5b6000368080601f01602080910402602001604051908101604052818152929190602084018383808284378201915050505050509050600080825160208401855af43d604051816000823e8280156100f5578282f35b8282fd5b341561010457600080fd5b61010f6004356101be565b604051600160a060020a03909116815260200160405180910390f35b61013f600160a060020a03600435166101e6565b005b341561014c57600080fd5b61010f6101ae565b341561015f57600080fd5b61013f600435610311565b341561017557600080fd5b61013f600160a060020a0360043516610471565b341561019457600080fd5b61019c61056c565b60405190815260200160405180910390f35b600154600160a060020a03165b90565b60008054829081106101cc57fe5b600091825260209091200154600160a060020a0316905081565b6000805b60005481101561023357600080548290811061020257fe5b60009182526020909120015433600160a060020a039081169116141561022b5760019150610233565b6001016101ea565b81151561023f57600080fd5b6001805473ffffffffffffffffffffffffffffffffffffffff1916600160a060020a03858116919091179091553016638129fc1c346040518263ffffffff167c01000000000000000000000000000000000000000000000000000000000281526004016000604051808303818588803b15156102ba57600080fd5b6125ee5a03f115156102cb57600080fd5b505050507f6b70829fcbe4891157f7a7496f9870927de3c8237adbe9cd39bae09b7382c40983604051600160a060020a03909116815260200160405180910390a1505050565b600080805b60005481101561035f57600080548290811061032e57fe5b60009182526020909120015433600160a060020a0390811691161415610357576001915061035f565b600101610316565b81151561036b57600080fd5b600080548590811061037957fe5b60009182526020822001548154600160a060020a03909116945060001981019081106103a157fe5b60009182526020822001548154600160a060020a039091169190869081106103c557fe5b60009182526020822001805473ffffffffffffffffffffffffffffffffffffffff1916600160a060020a0393909316929092179091558054600019810190811061040b57fe5b6000918252602090912001805473ffffffffffffffffffffffffffffffffffffffff19169055600160a060020a038381169033167fe594d081b4382713733fe631966432c9cea5199afb2db5c3c1931f9f9300367960405160405180910390a350505050565b600080805b6000548110156104bf57600080548290811061048e57fe5b60009182526020909120015433600160a060020a03908116911614156104b757600191506104bf565b600101610476565b8115156104cb57600080fd5b600160a060020a03841615156104e057600080fd5b6001600080548060010182816104f69190610584565b6000928352602090922001805473ffffffffffffffffffffffffffffffffffffffff1916600160a060020a0388811691821790925592909103945033167fa0b18fca933618876351ba2ef88bf4505c184d3e55064bec0d7fe236dd706d848560405190815260200160405180910390a350505050565b60005490565b60206040519081016040526000815290565b8154818355818115116105a8576000838152602090206105a89181019083016105ad565b505050565b6101bb91905b808211156105c757600081556001016105b3565b50905600a165627a7a7230582018603e2f1c250ed44766eefd909c23a5848624a914afb554396ed97c8970041f0029",
  "source": "pragma solidity ^0.4.18;\n\nimport { Proxy } from './utils/Proxy.sol';\nimport { Upgradable } from './utils/Upgradable.sol';\nimport { UpgradableStorage } from './utils/UpgradableStorage.sol';\n\n\ncontract KnowledgeProxy is Proxy, UpgradableStorage {\n  /**\n  * @dev Upgrades the implementation to the requested version\n  */\n  function upgradeTo(address imp) onlyOwner public payable {\n    _implementation = imp;\n    Upgradable(this).initialize.value(msg.value)();\n\n    NewImplementation(imp);\n  }\n}\n",
  "sourcePath": "/Users/diegobarahona/Documents/Projects/Knowledge/knowledge-contracts/contracts/KnowledgeProxy.sol",
  "compiler": {
    "name": "solc",
    "version": "0.4.18+commit.9cf6e910.Emscripten.clang"
  },
  "schemaVersion": "1.0.1",
  "updatedAt": "2018-03-18T17:45:02.301Z"
}