{
  "contractName": "KnowledgeBaseLegacy",
  "abi": [
    {
      "constant": true,
      "inputs": [
        {
          "name": "",
          "type": "uint256"
        }
      ],
      "name": "owners",
      "outputs": [
        {
          "name": "",
          "type": "address"
        }
      ],
      "payable": false,
      "stateMutability": "view",
      "type": "function"
    },
    {
      "constant": true,
      "inputs": [],
      "name": "name",
      "outputs": [
        {
          "name": "",
          "type": "string"
        }
      ],
      "payable": false,
      "stateMutability": "view",
      "type": "function"
    },
    {
      "constant": false,
      "inputs": [
        {
          "name": "_spender",
          "type": "address"
        },
        {
          "name": "_value",
          "type": "uint256"
        }
      ],
      "name": "approve",
      "outputs": [
        {
          "name": "",
          "type": "bool"
        }
      ],
      "payable": false,
      "stateMutability": "nonpayable",
      "type": "function"
    },
    {
      "constant": true,
      "inputs": [],
      "name": "totalSupply",
      "outputs": [
        {
          "name": "",
          "type": "uint256"
        }
      ],
      "payable": false,
      "stateMutability": "view",
      "type": "function"
    },
    {
      "constant": false,
      "inputs": [
        {
          "name": "_from",
          "type": "address"
        },
        {
          "name": "_to",
          "type": "address"
        },
        {
          "name": "_value",
          "type": "uint256"
        }
      ],
      "name": "transferFrom",
      "outputs": [
        {
          "name": "",
          "type": "bool"
        }
      ],
      "payable": false,
      "stateMutability": "nonpayable",
      "type": "function"
    },
    {
      "constant": false,
      "inputs": [
        {
          "name": "contractAddress",
          "type": "address"
        }
      ],
      "name": "setPrevContract",
      "outputs": [
        {
          "name": "",
          "type": "bool"
        }
      ],
      "payable": false,
      "stateMutability": "nonpayable",
      "type": "function"
    },
    {
      "constant": true,
      "inputs": [],
      "name": "INITIAL_SUPPLY",
      "outputs": [
        {
          "name": "",
          "type": "uint256"
        }
      ],
      "payable": false,
      "stateMutability": "view",
      "type": "function"
    },
    {
      "constant": true,
      "inputs": [],
      "name": "decimals",
      "outputs": [
        {
          "name": "",
          "type": "uint8"
        }
      ],
      "payable": false,
      "stateMutability": "view",
      "type": "function"
    },
    {
      "constant": false,
      "inputs": [
        {
          "name": "value",
          "type": "uint256"
        },
        {
          "name": "fee",
          "type": "uint256"
        },
        {
          "name": "ref",
          "type": "string"
        },
        {
          "name": "to",
          "type": "address"
        }
      ],
      "name": "requestPayment",
      "outputs": [],
      "payable": false,
      "stateMutability": "nonpayable",
      "type": "function"
    },
    {
      "constant": false,
      "inputs": [
        {
          "name": "contractAddress",
          "type": "address"
        }
      ],
      "name": "setNextContract",
      "outputs": [
        {
          "name": "",
          "type": "bool"
        }
      ],
      "payable": false,
      "stateMutability": "nonpayable",
      "type": "function"
    },
    {
      "constant": false,
      "inputs": [
        {
          "name": "_spender",
          "type": "address"
        },
        {
          "name": "_subtractedValue",
          "type": "uint256"
        }
      ],
      "name": "decreaseApproval",
      "outputs": [
        {
          "name": "success",
          "type": "bool"
        }
      ],
      "payable": false,
      "stateMutability": "nonpayable",
      "type": "function"
    },
    {
      "constant": false,
      "inputs": [
        {
          "name": "index",
          "type": "uint256"
        }
      ],
      "name": "removeOwner",
      "outputs": [],
      "payable": false,
      "stateMutability": "nonpayable",
      "type": "function"
    },
    {
      "constant": false,
      "inputs": [
        {
          "name": "newOwner",
          "type": "address"
        }
      ],
      "name": "addOwner",
      "outputs": [],
      "payable": false,
      "stateMutability": "nonpayable",
      "type": "function"
    },
    {
      "constant": true,
      "inputs": [
        {
          "name": "_owner",
          "type": "address"
        }
      ],
      "name": "balanceOf",
      "outputs": [
        {
          "name": "balance",
          "type": "uint256"
        }
      ],
      "payable": false,
      "stateMutability": "view",
      "type": "function"
    },
    {
      "constant": false,
      "inputs": [
        {
          "name": "holder",
          "type": "address"
        },
        {
          "name": "value",
          "type": "uint256"
        }
      ],
      "name": "upgradeFrom",
      "outputs": [
        {
          "name": "",
          "type": "bool"
        }
      ],
      "payable": false,
      "stateMutability": "nonpayable",
      "type": "function"
    },
    {
      "constant": false,
      "inputs": [
        {
          "name": "ref",
          "type": "string"
        }
      ],
      "name": "cancelPayment",
      "outputs": [],
      "payable": false,
      "stateMutability": "nonpayable",
      "type": "function"
    },
    {
      "constant": true,
      "inputs": [],
      "name": "symbol",
      "outputs": [
        {
          "name": "",
          "type": "string"
        }
      ],
      "payable": false,
      "stateMutability": "view",
      "type": "function"
    },
    {
      "constant": true,
      "inputs": [
        {
          "name": "store",
          "type": "address"
        },
        {
          "name": "ref",
          "type": "string"
        }
      ],
      "name": "paymentInfo",
      "outputs": [
        {
          "name": "value",
          "type": "uint256"
        },
        {
          "name": "fee",
          "type": "uint256"
        },
        {
          "name": "seller",
          "type": "address"
        }
      ],
      "payable": false,
      "stateMutability": "view",
      "type": "function"
    },
    {
      "constant": false,
      "inputs": [
        {
          "name": "_to",
          "type": "address"
        },
        {
          "name": "_value",
          "type": "uint256"
        }
      ],
      "name": "transfer",
      "outputs": [
        {
          "name": "",
          "type": "bool"
        }
      ],
      "payable": false,
      "stateMutability": "nonpayable",
      "type": "function"
    },
    {
      "constant": true,
      "inputs": [],
      "name": "ownersCount",
      "outputs": [
        {
          "name": "",
          "type": "uint256"
        }
      ],
      "payable": false,
      "stateMutability": "view",
      "type": "function"
    },
    {
      "constant": false,
      "inputs": [],
      "name": "upgrade",
      "outputs": [
        {
          "name": "",
          "type": "bool"
        }
      ],
      "payable": false,
      "stateMutability": "nonpayable",
      "type": "function"
    },
    {
      "constant": false,
      "inputs": [
        {
          "name": "_spender",
          "type": "address"
        },
        {
          "name": "_addedValue",
          "type": "uint256"
        }
      ],
      "name": "increaseApproval",
      "outputs": [
        {
          "name": "success",
          "type": "bool"
        }
      ],
      "payable": false,
      "stateMutability": "nonpayable",
      "type": "function"
    },
    {
      "constant": true,
      "inputs": [],
      "name": "nextContract",
      "outputs": [
        {
          "name": "",
          "type": "address"
        }
      ],
      "payable": false,
      "stateMutability": "view",
      "type": "function"
    },
    {
      "constant": true,
      "inputs": [
        {
          "name": "_owner",
          "type": "address"
        },
        {
          "name": "_spender",
          "type": "address"
        }
      ],
      "name": "allowance",
      "outputs": [
        {
          "name": "remaining",
          "type": "uint256"
        }
      ],
      "payable": false,
      "stateMutability": "view",
      "type": "function"
    },
    {
      "constant": true,
      "inputs": [],
      "name": "prevContract",
      "outputs": [
        {
          "name": "",
          "type": "address"
        }
      ],
      "payable": false,
      "stateMutability": "view",
      "type": "function"
    },
    {
      "constant": false,
      "inputs": [
        {
          "name": "store",
          "type": "address"
        },
        {
          "name": "ref",
          "type": "string"
        }
      ],
      "name": "pay",
      "outputs": [
        {
          "name": "",
          "type": "bool"
        }
      ],
      "payable": false,
      "stateMutability": "nonpayable",
      "type": "function"
    },
    {
      "inputs": [],
      "payable": false,
      "stateMutability": "nonpayable",
      "type": "constructor"
    },
    {
      "anonymous": false,
      "inputs": [
        {
          "indexed": true,
          "name": "_from",
          "type": "address"
        },
        {
          "indexed": true,
          "name": "_to",
          "type": "address"
        },
        {
          "indexed": false,
          "name": "_value",
          "type": "uint256"
        }
      ],
      "name": "Upgrade",
      "type": "event"
    },
    {
      "anonymous": false,
      "inputs": [
        {
          "indexed": true,
          "name": "_from",
          "type": "address"
        },
        {
          "indexed": true,
          "name": "_to",
          "type": "address"
        },
        {
          "indexed": false,
          "name": "_value",
          "type": "uint256"
        }
      ],
      "name": "UpgradeFrom",
      "type": "event"
    },
    {
      "anonymous": false,
      "inputs": [
        {
          "indexed": false,
          "name": "contractAddress",
          "type": "address"
        }
      ],
      "name": "NextContractSet",
      "type": "event"
    },
    {
      "anonymous": false,
      "inputs": [
        {
          "indexed": false,
          "name": "contractAddress",
          "type": "address"
        }
      ],
      "name": "PrevContractSet",
      "type": "event"
    },
    {
      "anonymous": false,
      "inputs": [
        {
          "indexed": true,
          "name": "authorizer",
          "type": "address"
        },
        {
          "indexed": true,
          "name": "newOwner",
          "type": "address"
        },
        {
          "indexed": false,
          "name": "index",
          "type": "uint256"
        }
      ],
      "name": "OwnerAdded",
      "type": "event"
    },
    {
      "anonymous": false,
      "inputs": [
        {
          "indexed": true,
          "name": "authorizer",
          "type": "address"
        },
        {
          "indexed": true,
          "name": "oldOwner",
          "type": "address"
        }
      ],
      "name": "OwnerRemoved",
      "type": "event"
    },
    {
      "anonymous": false,
      "inputs": [
        {
          "indexed": true,
          "name": "from",
          "type": "address"
        },
        {
          "indexed": true,
          "name": "seller",
          "type": "address"
        },
        {
          "indexed": true,
          "name": "store",
          "type": "address"
        },
        {
          "indexed": false,
          "name": "value",
          "type": "uint256"
        },
        {
          "indexed": false,
          "name": "fee",
          "type": "uint256"
        },
        {
          "indexed": false,
          "name": "ref",
          "type": "string"
        }
      ],
      "name": "Pay",
      "type": "event"
    },
    {
      "anonymous": false,
      "inputs": [
        {
          "indexed": true,
          "name": "owner",
          "type": "address"
        },
        {
          "indexed": true,
          "name": "spender",
          "type": "address"
        },
        {
          "indexed": false,
          "name": "value",
          "type": "uint256"
        }
      ],
      "name": "Approval",
      "type": "event"
    },
    {
      "anonymous": false,
      "inputs": [
        {
          "indexed": true,
          "name": "from",
          "type": "address"
        },
        {
          "indexed": true,
          "name": "to",
          "type": "address"
        },
        {
          "indexed": false,
          "name": "value",
          "type": "uint256"
        }
      ],
      "name": "Transfer",
      "type": "event"
    }
  ],
  "bytecode": "0x6060604052341561000f57600080fd5b600480546001810161002183826100db565b50600091825260208220018054600160a060020a03191633600160a060020a0316908117909155907fa0b18fca933618876351ba2ef88bf4505c184d3e55064bec0d7fe236dd706d848160405190815260200160405180910390a366354a6ba7a180006000818155600160a060020a0333168082526001602052604080832084905590927fddf252ad1be2c89b69c2b068fc378daa952ba7f163c4a11628f55a4df523b3ef915190815260200160405180910390a3610125565b8154818355818115116100ff576000838152602090206100ff918101908301610104565b505050565b61012291905b8082111561011e576000815560010161010a565b5090565b90565b61172d80620001356000396000f30060606040526004361061013a5763ffffffff60e060020a600035041663025e7c27811461013f57806306fdde0314610171578063095ea7b3146101fb57806318160ddd1461023157806323b872dd14610256578063251139f61461027e5780632ff2e9dc1461029d578063313ce567146102b05780634bf49313146102d9578063533901001461034257806366188463146103615780636b919488146103835780637065cb481461039957806370a08231146103b8578063753e88e5146103d757806384126e01146103f957806395d89b411461044a578063a0c99c511461045d578063a9059cbb146104e9578063b94885461461050b578063d55ec6971461051e578063d73dd62314610531578063d8787fde14610553578063dd62ed3e14610566578063e449de9f1461058b578063fb4da5b71461059e575b600080fd5b341561014a57600080fd5b6101556004356105fd565b604051600160a060020a03909116815260200160405180910390f35b341561017c57600080fd5b610184610625565b60405160208082528190810183818151815260200191508051906020019080838360005b838110156101c05780820151838201526020016101a8565b50505050905090810190601f1680156101ed5780820380516001836020036101000a031916815260200191505b509250505060405180910390f35b341561020657600080fd5b61021d600160a060020a036004351660243561065c565b604051901515815260200160405180910390f35b341561023c57600080fd5b6102446106c8565b60405190815260200160405180910390f35b341561026157600080fd5b61021d600160a060020a03600435811690602435166044356106ce565b341561028957600080fd5b61021d600160a060020a03600435166107e6565b34156102a857600080fd5b6102446108be565b34156102bb57600080fd5b6102c36108c9565b60405160ff909116815260200160405180910390f35b34156102e457600080fd5b610340600480359060248035919060649060443590810190830135806020601f8201819004810201604051908101604052818152929190602084018383808284375094965050509235600160a060020a031692506108ce915050565b005b341561034d57600080fd5b61021d600160a060020a03600435166109a5565b341561036c57600080fd5b61021d600160a060020a0360043516602435610b09565b341561038e57600080fd5b610340600435610c03565b34156103a457600080fd5b610340600160a060020a0360043516610d51565b34156103c357600080fd5b610244600160a060020a0360043516610e3f565b34156103e257600080fd5b61021d600160a060020a0360043516602435610e5a565b341561040457600080fd5b61034060046024813581810190830135806020601f82018190048102016040519081016040528181529291906020840183838082843750949650610f0195505050505050565b341561045557600080fd5b610184610f9d565b341561046857600080fd5b6104bc60048035600160a060020a03169060446024803590810190830135806020601f82018190048102016040519081016040528181529291906020840183838082843750949650610fd495505050505050565b6040519283526020830191909152600160a060020a03166040808301919091526060909101905180910390f35b34156104f457600080fd5b61021d600160a060020a03600435166024356110a6565b341561051657600080fd5b61024461116a565b341561052957600080fd5b61021d611171565b341561053c57600080fd5b61021d600160a060020a0360043516602435611301565b341561055e57600080fd5b6101556113a5565b341561057157600080fd5b610244600160a060020a03600435811690602435166113b4565b341561059657600080fd5b6101556113df565b34156105a957600080fd5b61021d60048035600160a060020a03169060446024803590810190830135806020601f820181900481020160405190810160405281815292919060208401838380828437509496506113ee95505050505050565b600480548290811061060b57fe5b600091825260209091200154600160a060020a0316905081565b60408051908101604052600981527f4b6e6f776c656467650000000000000000000000000000000000000000000000602082015281565b600160a060020a03338116600081815260026020908152604080832094871680845294909152808220859055909291907f8c5be1e5ebec7d5bd14f71427d1e84f3dd0314c0f7b2291e5b200ac8c7c3b9259085905190815260200160405180910390a350600192915050565b60005481565b600080600160a060020a03841615156106e657600080fd5b50600160a060020a0380851660008181526002602090815260408083203390951683529381528382205492825260019052919091205461072c908463ffffffff61165616565b600160a060020a038087166000908152600160205260408082209390935590861681522054610761908463ffffffff61166816565b600160a060020a03851660009081526001602052604090205561078a818463ffffffff61165616565b600160a060020a03808716600081815260026020908152604080832033861684529091529081902093909355908616916000805160206116e28339815191529086905190815260200160405180910390a3506001949350505050565b600080805b60045481101561083457600480548290811061080357fe5b60009182526020909120015433600160a060020a039081169116141561082c5760019150610834565b6001016107eb565b81151561084057600080fd5b600160a060020a038416151561085557600080fd5b60068054600160a060020a031916600160a060020a0386811691909117918290557fe7a5dc59990bb8618337b754505c1711341b849d5402b3b8d79f7008c740b5029116604051600160a060020a03909116815260200160405180910390a15060019392505050565b66354a6ba7a1800081565b600881565b606060405190810160409081528482526020808301879052600160a060020a0380851683850152331660009081526003909152819020908490518082805190602001908083835b602083106109345780518252601f199092019160209182019101610915565b6001836020036101000a038019825116818451168082178552505050505050905001915050908152602001604051908190039020815181556020820151816001015560408201516002919091018054600160a060020a031916600160a060020a039092169190911790555050505050565b600080805b6004548110156109f35760048054829081106109c257fe5b60009182526020909120015433600160a060020a03908116911614156109eb57600191506109f3565b6001016109aa565b8115156109ff57600080fd5b600554600160a060020a031615610a1557600080fd5b600160a060020a0384161515610a2a57600080fd5b60058054600160a060020a031916600160a060020a0386811691909117918290556000805492909116906318160ddd90604051602001526040518163ffffffff1660e060020a028152600401602060405180830381600087803b1515610a8f57600080fd5b6102c65a03f11515610aa057600080fd5b50505060405180519050141515610ab657600080fd5b6005547fd105ab7a234f12bc74c491e1ad967020fb520fc908446e4d8dd87f36dd24cda990600160a060020a0316604051600160a060020a03909116815260200160405180910390a15060019392505050565b600160a060020a03338116600090815260026020908152604080832093861683529290529081205480831115610b6657600160a060020a033381166000908152600260209081526040808320938816835292905290812055610b9d565b610b76818463ffffffff61165616565b600160a060020a033381166000908152600260209081526040808320938916835292905220555b600160a060020a0333811660008181526002602090815260408083209489168084529490915290819020547f8c5be1e5ebec7d5bd14f71427d1e84f3dd0314c0f7b2291e5b200ac8c7c3b925915190815260200160405180910390a35060019392505050565b600080805b600454811015610c51576004805482908110610c2057fe5b60009182526020909120015433600160a060020a0390811691161415610c495760019150610c51565b600101610c08565b811515610c5d57600080fd5b6004805485908110610c6b57fe5b60009182526020909120015460048054600160a060020a039092169450906000198101908110610c9757fe5b60009182526020909120015460048054600160a060020a039092169186908110610cbd57fe5b60009182526020909120018054600160a060020a031916600160a060020a0392909216919091179055600480546000198101908110610cf857fe5b60009182526020909120018054600160a060020a0319169055600160a060020a038381169033167fe594d081b4382713733fe631966432c9cea5199afb2db5c3c1931f9f9300367960405160405180910390a350505050565b600080805b600454811015610d9f576004805482908110610d6e57fe5b60009182526020909120015433600160a060020a0390811691161415610d975760019150610d9f565b600101610d56565b811515610dab57600080fd5b600160a060020a0384161515610dc057600080fd5b600160048054806001018281610dd6919061167e565b60009283526020909220018054600160a060020a031916600160a060020a0388811691821790925592909103945033167fa0b18fca933618876351ba2ef88bf4505c184d3e55064bec0d7fe236dd706d848560405190815260200160405180910390a350505050565b600160a060020a031660009081526001602052604090205490565b60065460009033600160a060020a03908116911614610e7857600080fd5b600160a060020a0383166000818152600160205260408082208590556000805160206116e28339815191529085905190815260200160405180910390a3600654600160a060020a0380851691167fafc7f3fa9b11b0da7624ad7f5a27e287d3a5eef414b5d7ac38996631ed80b89a8460405190815260200160405180910390a350600192915050565b600160a060020a03331660009081526003602052604090819020908290518082805190602001908083835b60208310610f4b5780518252601f199092019160209182019101610f2c565b6001836020036101000a038019825116818451168082178552505050505050905001915050908152602001604051908190039020600080825560018201556002018054600160a060020a031916905550565b60408051908101604052600381527f4b4e570000000000000000000000000000000000000000000000000000000000602082015281565b6000806000610fe16116a7565b600160a060020a03861660009081526003602052604090819020908690518082805190602001908083835b6020831061102b5780518252601f19909201916020918201910161100c565b6001836020036101000a03801982511681845116808217855250505050505090500191505090815260200160405180910390206060604051908101604090815282548252600183015460208301908152600290930154600160a060020a03169082015291505193508051925080604001519150509250925092565b6000600160a060020a03831615156110bd57600080fd5b600160a060020a0333166000908152600160205260409020546110e6908363ffffffff61165616565b600160a060020a03338116600090815260016020526040808220939093559085168152205461111b908363ffffffff61166816565b600160a060020a0380851660008181526001602052604090819020939093559133909116906000805160206116e28339815191529085905190815260200160405180910390a350600192915050565b6004545b90565b6005546000908190600160a060020a0316151561118d57600080fd5b50600160a060020a0333166000908152600160205260408120549081116111b057fe5b600160a060020a0333166000908152600160205260408120819055546111dc908263ffffffff61165616565b600090815533600160a060020a03166000805160206116e28339815191528360405190815260200160405180910390a3600554600160a060020a031663753e88e5338360006040516020015260405160e060020a63ffffffff8516028152600160a060020a0390921660048301526024820152604401602060405180830381600087803b151561126b57600080fd5b6102c65a03f1151561127c57600080fd5b50505060405180515050600554600160a060020a039081169033167f7e5c344a8141a805725cb476f76c6953b842222b967edd1f78ddb6e8b3f397ac8360405190815260200160405180910390a36001915060005415156112fd576004805460009081106112e657fe5b600091825260209091200154600160a060020a0316ff5b5090565b600160a060020a033381166000908152600260209081526040808320938616835292905290812054611339908363ffffffff61166816565b600160a060020a0333811660008181526002602090815260408083209489168084529490915290819020849055919290917f8c5be1e5ebec7d5bd14f71427d1e84f3dd0314c0f7b2291e5b200ac8c7c3b92591905190815260200160405180910390a350600192915050565b600554600160a060020a031681565b600160a060020a03918216600090815260026020908152604080832093909416825291909152205490565b600654600160a060020a031681565b60006113f86116a7565b600160a060020a03841660009081526003602052604090819020908490518082805190602001908083835b602083106114425780518252601f199092019160209182019101611423565b6001836020036101000a0380198251168184511680821785525050505050509050019150509081526020016040518091039020606060405190810160409081528254825260018301546020830152600290920154600160a060020a03169181019190915290506000815111156114c5576114bd8482516110a6565b15156114c557fe5b6114d7816040015182602001516110a6565b15156114df57fe5b83600160a060020a03168160400151600160a060020a031633600160a060020a03167f2932548923882c0357c96c44bcfac0f2d4826edc925fd552f0a61abacceacb7684602001518551886040518084815260200183815260200180602001828103825283818151815260200191508051906020019080838360005b8381101561157357808201518382015260200161155b565b50505050905090810190601f1680156115a05780820380516001836020036101000a031916815260200191505b5094505050505060405180910390a4600160a060020a03841660009081526003602052604090819020908490518082805190602001908083835b602083106115f95780518252601f1990920191602091820191016115da565b6001836020036101000a038019825116818451168082178552505050505050905001915050908152602001604051908190039020600080825560018083019190915560029091018054600160a060020a0319169055949350505050565b60008282111561166257fe5b50900390565b60008282018381101561167757fe5b9392505050565b8154818355818115116116a2576000838152602090206116a29181019083016116c7565b505050565b606060405190810160409081526000808352602083018190529082015290565b61116e91905b808211156112fd57600081556001016116cd5600ddf252ad1be2c89b69c2b068fc378daa952ba7f163c4a11628f55a4df523b3efa165627a7a72305820f92687eb323dde947569e6a9d77437300f394f63005840da03213df1e6c1c3c90029",
  "source": "pragma solidity ^0.4.18;\n\nimport { KnowledgeLegacy } from './KnowledgeToken.sol';\n\n\n/**\n * Knowledge Base Contract, used to create the initial tokens\n * Upgradable Standard ECR20 Token\n */\ncontract KnowledgeBaseLegacy is KnowledgeLegacy {\n  function KnowledgeBaseLegacy() public {\n    balances[msg.sender] = INITIAL_SUPPLY;\n    Transfer(0x0, msg.sender, INITIAL_SUPPLY);\n  }\n}\n",
  "sourcePath": "/Users/diegobarahona/Documents/Projects/Knowledge/knowledge-contracts/contracts/legacy/KnowledgeBase.sol",
  "compiler": {
    "name": "solc",
    "version": "0.4.18+commit.9cf6e910.Emscripten.clang"
  },
  "schemaVersion": "1.0.1",
  "updatedAt": "2018-03-18T17:45:02.310Z"
}