{
  "contractName": "KnowledgeBase",
  "abi": [
    {
      "constant": true,
      "inputs": [],
      "name": "name",
      "outputs": [
        {
          "name": "",
          "type": "string"
        }
      ],
      "payable": false,
      "stateMutability": "view",
      "type": "function"
    },
    {
      "constant": false,
      "inputs": [
        {
          "name": "_spender",
          "type": "address"
        },
        {
          "name": "_value",
          "type": "uint256"
        }
      ],
      "name": "approve",
      "outputs": [
        {
          "name": "",
          "type": "bool"
        }
      ],
      "payable": false,
      "stateMutability": "nonpayable",
      "type": "function"
    },
    {
      "constant": false,
      "inputs": [
        {
          "name": "value",
          "type": "uint256"
        },
        {
          "name": "fee",
          "type": "uint8"
        },
        {
          "name": "ref",
          "type": "string"
        },
        {
          "name": "to",
          "type": "address"
        }
      ],
      "name": "requestPayment",
      "outputs": [],
      "payable": false,
      "stateMutability": "nonpayable",
      "type": "function"
    },
    {
      "constant": true,
      "inputs": [],
      "name": "totalSupply",
      "outputs": [
        {
          "name": "",
          "type": "uint256"
        }
      ],
      "payable": false,
      "stateMutability": "view",
      "type": "function"
    },
    {
      "constant": false,
      "inputs": [
        {
          "name": "_from",
          "type": "address"
        },
        {
          "name": "_to",
          "type": "address"
        },
        {
          "name": "_value",
          "type": "uint256"
        }
      ],
      "name": "transferFrom",
      "outputs": [
        {
          "name": "",
          "type": "bool"
        }
      ],
      "payable": false,
      "stateMutability": "nonpayable",
      "type": "function"
    },
    {
      "constant": false,
      "inputs": [
        {
          "name": "contractAddress",
          "type": "address"
        }
      ],
      "name": "setPrevContract",
      "outputs": [
        {
          "name": "",
          "type": "bool"
        }
      ],
      "payable": false,
      "stateMutability": "nonpayable",
      "type": "function"
    },
    {
      "constant": true,
      "inputs": [],
      "name": "INITIAL_SUPPLY",
      "outputs": [
        {
          "name": "",
          "type": "uint256"
        }
      ],
      "payable": false,
      "stateMutability": "view",
      "type": "function"
    },
    {
      "constant": true,
      "inputs": [],
      "name": "decimals",
      "outputs": [
        {
          "name": "",
          "type": "uint8"
        }
      ],
      "payable": false,
      "stateMutability": "view",
      "type": "function"
    },
    {
      "constant": false,
      "inputs": [
        {
          "name": "contractAddress",
          "type": "address"
        }
      ],
      "name": "setNextContract",
      "outputs": [
        {
          "name": "",
          "type": "bool"
        }
      ],
      "payable": false,
      "stateMutability": "nonpayable",
      "type": "function"
    },
    {
      "constant": false,
      "inputs": [
        {
          "name": "_spender",
          "type": "address"
        },
        {
          "name": "_subtractedValue",
          "type": "uint256"
        }
      ],
      "name": "decreaseApproval",
      "outputs": [
        {
          "name": "success",
          "type": "bool"
        }
      ],
      "payable": false,
      "stateMutability": "nonpayable",
      "type": "function"
    },
    {
      "constant": true,
      "inputs": [
        {
          "name": "_owner",
          "type": "address"
        }
      ],
      "name": "balanceOf",
      "outputs": [
        {
          "name": "balance",
          "type": "uint256"
        }
      ],
      "payable": false,
      "stateMutability": "view",
      "type": "function"
    },
    {
      "constant": false,
      "inputs": [
        {
          "name": "holder",
          "type": "address"
        },
        {
          "name": "value",
          "type": "uint256"
        }
      ],
      "name": "upgradeFrom",
      "outputs": [
        {
          "name": "",
          "type": "bool"
        }
      ],
      "payable": false,
      "stateMutability": "nonpayable",
      "type": "function"
    },
    {
      "constant": true,
      "inputs": [],
      "name": "owner",
      "outputs": [
        {
          "name": "",
          "type": "address"
        }
      ],
      "payable": false,
      "stateMutability": "view",
      "type": "function"
    },
    {
      "constant": true,
      "inputs": [],
      "name": "symbol",
      "outputs": [
        {
          "name": "",
          "type": "string"
        }
      ],
      "payable": false,
      "stateMutability": "view",
      "type": "function"
    },
    {
      "constant": true,
      "inputs": [
        {
          "name": "store",
          "type": "address"
        },
        {
          "name": "ref",
          "type": "string"
        }
      ],
      "name": "paymentInfo",
      "outputs": [
        {
          "name": "value",
          "type": "uint256"
        },
        {
          "name": "fee",
          "type": "uint8"
        },
        {
          "name": "seller",
          "type": "address"
        }
      ],
      "payable": false,
      "stateMutability": "view",
      "type": "function"
    },
    {
      "constant": false,
      "inputs": [
        {
          "name": "_to",
          "type": "address"
        },
        {
          "name": "_value",
          "type": "uint256"
        }
      ],
      "name": "transfer",
      "outputs": [
        {
          "name": "",
          "type": "bool"
        }
      ],
      "payable": false,
      "stateMutability": "nonpayable",
      "type": "function"
    },
    {
      "constant": false,
      "inputs": [],
      "name": "upgrade",
      "outputs": [
        {
          "name": "",
          "type": "bool"
        }
      ],
      "payable": false,
      "stateMutability": "nonpayable",
      "type": "function"
    },
    {
      "constant": false,
      "inputs": [
        {
          "name": "_spender",
          "type": "address"
        },
        {
          "name": "_addedValue",
          "type": "uint256"
        }
      ],
      "name": "increaseApproval",
      "outputs": [
        {
          "name": "success",
          "type": "bool"
        }
      ],
      "payable": false,
      "stateMutability": "nonpayable",
      "type": "function"
    },
    {
      "constant": true,
      "inputs": [],
      "name": "nextContract",
      "outputs": [
        {
          "name": "",
          "type": "address"
        }
      ],
      "payable": false,
      "stateMutability": "view",
      "type": "function"
    },
    {
      "constant": true,
      "inputs": [
        {
          "name": "_owner",
          "type": "address"
        },
        {
          "name": "_spender",
          "type": "address"
        }
      ],
      "name": "allowance",
      "outputs": [
        {
          "name": "remaining",
          "type": "uint256"
        }
      ],
      "payable": false,
      "stateMutability": "view",
      "type": "function"
    },
    {
      "constant": true,
      "inputs": [],
      "name": "prevContract",
      "outputs": [
        {
          "name": "",
          "type": "address"
        }
      ],
      "payable": false,
      "stateMutability": "view",
      "type": "function"
    },
    {
      "constant": false,
      "inputs": [
        {
          "name": "newOwner",
          "type": "address"
        }
      ],
      "name": "transferOwnership",
      "outputs": [],
      "payable": false,
      "stateMutability": "nonpayable",
      "type": "function"
    },
    {
      "constant": false,
      "inputs": [
        {
          "name": "store",
          "type": "address"
        },
        {
          "name": "ref",
          "type": "string"
        }
      ],
      "name": "pay",
      "outputs": [
        {
          "name": "",
          "type": "bool"
        }
      ],
      "payable": false,
      "stateMutability": "nonpayable",
      "type": "function"
    },
    {
      "inputs": [],
      "payable": false,
      "stateMutability": "nonpayable",
      "type": "constructor"
    },
    {
      "anonymous": false,
      "inputs": [
        {
          "indexed": false,
          "name": "_from",
          "type": "address"
        },
        {
          "indexed": false,
          "name": "_to",
          "type": "address"
        },
        {
          "indexed": false,
          "name": "_value",
          "type": "uint256"
        }
      ],
      "name": "Upgrade",
      "type": "event"
    },
    {
      "anonymous": false,
      "inputs": [
        {
          "indexed": false,
          "name": "_from",
          "type": "address"
        },
        {
          "indexed": false,
          "name": "_to",
          "type": "address"
        },
        {
          "indexed": false,
          "name": "_value",
          "type": "uint256"
        }
      ],
      "name": "UpgradeFrom",
      "type": "event"
    },
    {
      "anonymous": false,
      "inputs": [
        {
          "indexed": false,
          "name": "contractAddress",
          "type": "address"
        }
      ],
      "name": "NextContractSet",
      "type": "event"
    },
    {
      "anonymous": false,
      "inputs": [
        {
          "indexed": false,
          "name": "contractAddress",
          "type": "address"
        }
      ],
      "name": "PrevContractSet",
      "type": "event"
    },
    {
      "anonymous": false,
      "inputs": [
        {
          "indexed": true,
          "name": "previousOwner",
          "type": "address"
        },
        {
          "indexed": true,
          "name": "newOwner",
          "type": "address"
        }
      ],
      "name": "OwnershipTransferred",
      "type": "event"
    },
    {
      "anonymous": false,
      "inputs": [
        {
          "indexed": false,
          "name": "from",
          "type": "address"
        },
        {
          "indexed": false,
          "name": "to",
          "type": "address"
        },
        {
          "indexed": false,
          "name": "amount",
          "type": "uint256"
        },
        {
          "indexed": false,
          "name": "ref",
          "type": "string"
        }
      ],
      "name": "Pay",
      "type": "event"
    },
    {
      "anonymous": false,
      "inputs": [
        {
          "indexed": true,
          "name": "owner",
          "type": "address"
        },
        {
          "indexed": true,
          "name": "spender",
          "type": "address"
        },
        {
          "indexed": false,
          "name": "value",
          "type": "uint256"
        }
      ],
      "name": "Approval",
      "type": "event"
    },
    {
      "anonymous": false,
      "inputs": [
        {
          "indexed": true,
          "name": "from",
          "type": "address"
        },
        {
          "indexed": true,
          "name": "to",
          "type": "address"
        },
        {
          "indexed": false,
          "name": "value",
          "type": "uint256"
        }
      ],
      "name": "Transfer",
      "type": "event"
    }
  ],
  "bytecode": "0x6060604052341561000f57600080fd5b60048054600160a060020a03191633600160a060020a031690811790915566354a6ba7a1800060008181558281526001602052604080822083905590917fddf252ad1be2c89b69c2b068fc378daa952ba7f163c4a11628f55a4df523b3ef915190815260200160405180910390a36113088061008c6000396000f3006060604052600436106101195763ffffffff60e060020a60003504166306fdde03811461011e578063095ea7b3146101a8578063173d15b9146101de57806318160ddd1461024a57806323b872dd1461026f578063251139f6146102975780632ff2e9dc146102b6578063313ce567146102c957806353390100146102f2578063661884631461031157806370a0823114610333578063753e88e5146103525780638da5cb5b1461037457806395d89b41146103a3578063a0c99c51146103b6578063a9059cbb14610444578063d55ec69714610466578063d73dd62314610479578063d8787fde1461049b578063dd62ed3e146104ae578063e449de9f146104d3578063f2fde38b146104e6578063fb4da5b714610505575b600080fd5b341561012957600080fd5b610131610564565b60405160208082528190810183818151815260200191508051906020019080838360005b8381101561016d578082015183820152602001610155565b50505050905090810190601f16801561019a5780820380516001836020036101000a031916815260200191505b509250505060405180910390f35b34156101b357600080fd5b6101ca600160a060020a036004351660243561059b565b604051901515815260200160405180910390f35b34156101e957600080fd5b61024860048035906024803560ff16919060649060443590810190830135806020601f8201819004810201604051908101604052818152929190602084018383808284375094965050509235600160a060020a03169250610607915050565b005b341561025557600080fd5b61025d61071a565b60405190815260200160405180910390f35b341561027a57600080fd5b6101ca600160a060020a0360043581169060243516604435610720565b34156102a257600080fd5b6101ca600160a060020a036004351661084a565b34156102c157600080fd5b61025d6108f1565b34156102d457600080fd5b6102dc6108fc565b60405160ff909116815260200160405180910390f35b34156102fd57600080fd5b6101ca600160a060020a0360043516610901565b341561031c57600080fd5b6101ca600160a060020a0360043516602435610a34565b341561033e57600080fd5b61025d600160a060020a0360043516610b2e565b341561035d57600080fd5b6101ca600160a060020a0360043516602435610b49565b341561037f57600080fd5b610387610be3565b604051600160a060020a03909116815260200160405180910390f35b34156103ae57600080fd5b610131610bf2565b34156103c157600080fd5b61041560048035600160a060020a03169060446024803590810190830135806020601f82018190048102016040519081016040528181529291906020840183838082843750949650610c2995505050505050565b60405192835260ff9091166020830152600160a060020a03166040808301919091526060909101905180910390f35b341561044f57600080fd5b6101ca600160a060020a0360043516602435610d04565b341561047157600080fd5b6101ca610dda565b341561048457600080fd5b6101ca600160a060020a0360043516602435610f42565b34156104a657600080fd5b610387610fe6565b34156104b957600080fd5b61025d600160a060020a0360043581169060243516610ff5565b34156104de57600080fd5b610387611020565b34156104f157600080fd5b610248600160a060020a036004351661102f565b341561051057600080fd5b6101ca60048035600160a060020a03169060446024803590810190830135806020601f820181900481020160405190810160405281815292919060208401838380828437509496506110ca95505050505050565b60408051908101604052600981527f4b6e6f776c656467650000000000000000000000000000000000000000000000602082015281565b600160a060020a03338116600081815260026020908152604080832094871680845294909152808220859055909291907f8c5be1e5ebec7d5bd14f71427d1e84f3dd0314c0f7b2291e5b200ac8c7c3b9259085905190815260200160405180910390a350600192915050565b6060604051908101604052808581526020018460ff16815260200182600160a060020a03168152506003600033600160a060020a0316600160a060020a03168152602001908152602001600020836040518082805190602001908083835b602083106106845780518252601f199092019160209182019101610665565b6001836020036101000a03801982511681845116808217855250505050505090500191505090815260200160405190819003902081518155602082015160018201805460ff191660ff92909216919091179055604082015160019091018054600160a060020a03929092166101000274ffffffffffffffffffffffffffffffffffffffff00199092169190911790555050505050565b60005481565b600080600160a060020a038416151561073857600080fd5b50600160a060020a0380851660008181526002602090815260408083203390951683529381528382205492825260019052919091205461077e908463ffffffff61129416565b600160a060020a0380871660009081526001602052604080822093909355908616815220546107b3908463ffffffff6112a616565b600160a060020a0385166000908152600160205260409020556107dc818463ffffffff61129416565b600160a060020a03808716600081815260026020908152604080832033861684529091529081902093909355908616917fddf252ad1be2c89b69c2b068fc378daa952ba7f163c4a11628f55a4df523b3ef9086905190815260200160405180910390a3506001949350505050565b60045460009033600160a060020a0390811691161461086857600080fd5b600160a060020a038216151561087d57600080fd5b6006805473ffffffffffffffffffffffffffffffffffffffff1916600160a060020a0384811691909117918290557fe7a5dc59990bb8618337b754505c1711341b849d5402b3b8d79f7008c740b5029116604051600160a060020a03909116815260200160405180910390a1506001919050565b66354a6ba7a1800081565b600881565b60045460009033600160a060020a0390811691161461091f57600080fd5b600554600160a060020a03161561093557600080fd5b600160a060020a038216151561094a57600080fd5b6005805473ffffffffffffffffffffffffffffffffffffffff1916600160a060020a0384811691909117918290556000805492909116906318160ddd90604051602001526040518163ffffffff1660e060020a028152600401602060405180830381600087803b15156109bc57600080fd5b6102c65a03f115156109cd57600080fd5b505050604051805190501415156109e357600080fd5b6005547fd105ab7a234f12bc74c491e1ad967020fb520fc908446e4d8dd87f36dd24cda990600160a060020a0316604051600160a060020a03909116815260200160405180910390a1506001919050565b600160a060020a03338116600090815260026020908152604080832093861683529290529081205480831115610a9157600160a060020a033381166000908152600260209081526040808320938816835292905290812055610ac8565b610aa1818463ffffffff61129416565b600160a060020a033381166000908152600260209081526040808320938916835292905220555b600160a060020a0333811660008181526002602090815260408083209489168084529490915290819020547f8c5be1e5ebec7d5bd14f71427d1e84f3dd0314c0f7b2291e5b200ac8c7c3b925915190815260200160405180910390a35060019392505050565b600160a060020a031660009081526001602052604090205490565b60065460009033600160a060020a03908116911614610b6757600080fd5b600160a060020a03808416600090815260016020526040908190208490556006547fafc7f3fa9b11b0da7624ad7f5a27e287d3a5eef414b5d7ac38996631ed80b89a9216908590859051600160a060020a039384168152919092166020820152604080820192909252606001905180910390a150600192915050565b600454600160a060020a031681565b60408051908101604052600381527f4b4e570000000000000000000000000000000000000000000000000000000000602082015281565b6000806000610c366112bc565b600160a060020a03861660009081526003602052604090819020908690518082805190602001908083835b60208310610c805780518252601f199092019160209182019101610c61565b6001836020036101000a0380198251168184511680821785525050505050509050019150509081526020016040518091039020606060405190810160409081528254825260019092015460ff811660208301526101009004600160a060020a0316918101919091529050805193508060200151925080604001519150509250925092565b6000600160a060020a0383161515610d1b57600080fd5b600160a060020a033316600090815260016020526040902054610d44908363ffffffff61129416565b600160a060020a033381166000908152600160205260408082209390935590851681522054610d79908363ffffffff6112a616565b600160a060020a0380851660008181526001602052604090819020939093559133909116907fddf252ad1be2c89b69c2b068fc378daa952ba7f163c4a11628f55a4df523b3ef9085905190815260200160405180910390a350600192915050565b6005546000908190600160a060020a03161515610df657600080fd5b50600160a060020a033316600090815260016020526040812054908111610e1957fe5b600160a060020a033316600090815260016020526040812081905554610e45908263ffffffff61129416565b6000908155600554600160a060020a03169063753e88e590339084906040516020015260405160e060020a63ffffffff8516028152600160a060020a0390921660048301526024820152604401602060405180830381600087803b1515610eab57600080fd5b6102c65a03f11515610ebc57600080fd5b505050604051805150506005547f7e5c344a8141a805725cb476f76c6953b842222b967edd1f78ddb6e8b3f397ac903390600160a060020a031683604051600160a060020a039384168152919092166020820152604080820192909252606001905180910390a1600191506000541515610f3e57600454600160a060020a0316ff5b5090565b600160a060020a033381166000908152600260209081526040808320938616835292905290812054610f7a908363ffffffff6112a616565b600160a060020a0333811660008181526002602090815260408083209489168084529490915290819020849055919290917f8c5be1e5ebec7d5bd14f71427d1e84f3dd0314c0f7b2291e5b200ac8c7c3b92591905190815260200160405180910390a350600192915050565b600554600160a060020a031681565b600160a060020a03918216600090815260026020908152604080832093909416825291909152205490565b600654600160a060020a031681565b60045433600160a060020a0390811691161461104a57600080fd5b600160a060020a038116151561105f57600080fd5b600454600160a060020a0380831691167f8be0079c531659141344cd1fd0a4f28419497f9722a3daafe3b4186f6b6457e060405160405180910390a36004805473ffffffffffffffffffffffffffffffffffffffff1916600160a060020a0392909216919091179055565b60006110d46112bc565b600160a060020a03841660009081526003602052604090819020908490518082805190602001908083835b6020831061111e5780518252601f1990920191602091820191016110ff565b6001836020036101000a0380198251168184511680821785525050505050509050019150509081526020016040518091039020606060405190810160409081528254825260019092015460ff811660208301526101009004600160a060020a0316918101918252915051600160a060020a0316151561119957fe5b6111aa84826020015160ff16610d04565b15156111b257fe5b6111c181604001518251610d04565b15156111c957fe5b7f5d2ae1cdca5222ec8fffbc4b088f5b5144ad5f4eaf2fc8afc49cd35857671082338260400151835186604051600160a060020a038086168252841660208201526040810183905260806060820181815290820183818151815260200191508051906020019080838360005b8381101561124d578082015183820152602001611235565b50505050905090810190601f16801561127a5780820380516001836020036101000a031916815260200191505b509550505050505060405180910390a15060019392505050565b6000828211156112a057fe5b50900390565b6000828201838110156112b557fe5b9392505050565b6060604051908101604090815260008083526020830181905290820152905600a165627a7a72305820e72b0a82c858728e159fe8bb8ae9207c49eb3401712f99b2a67a1d8aeafddc830029",
  "source": "pragma solidity ^0.4.18;\n\nimport { Knowledge } from './KnowledgeToken.sol';\n\n\n/**\n * Knowledge Base Contract, used to create the initial tokens\n * Upgradable Standard ECR20 Token\n */\ncontract KnowledgeBase is Knowledge {\n  function KnowledgeBase() public {\n    balances[msg.sender] = INITIAL_SUPPLY;\n    Transfer(0x0, msg.sender, INITIAL_SUPPLY);\n  }\n}\n",
  "sourcePath": "/Users/diegobarahona/Documents/Projects/Knowledge/knowledge-contracts/contracts/KnowledgeBase.sol",
  "compiler": {
    "name": "solc",
    "version": "0.4.18+commit.9cf6e910.Emscripten.clang"
  },
  "schemaVersion": "1.0.1",
  "updatedAt": "2018-01-09T08:38:07.737Z"
}