{
  "contractName": "KnowledgeBase",
  "abi": [
    {
      "constant": true,
      "inputs": [
        {
          "name": "",
          "type": "uint256"
        }
      ],
      "name": "owners",
      "outputs": [
        {
          "name": "",
          "type": "address"
        }
      ],
      "payable": false,
      "stateMutability": "view",
      "type": "function"
    },
    {
      "constant": true,
      "inputs": [],
      "name": "name",
      "outputs": [
        {
          "name": "",
          "type": "string"
        }
      ],
      "payable": false,
      "stateMutability": "view",
      "type": "function"
    },
    {
      "constant": false,
      "inputs": [
        {
          "name": "_spender",
          "type": "address"
        },
        {
          "name": "_value",
          "type": "uint256"
        }
      ],
      "name": "approve",
      "outputs": [
        {
          "name": "",
          "type": "bool"
        }
      ],
      "payable": false,
      "stateMutability": "nonpayable",
      "type": "function"
    },
    {
      "constant": true,
      "inputs": [],
      "name": "totalSupply",
      "outputs": [
        {
          "name": "",
          "type": "uint256"
        }
      ],
      "payable": false,
      "stateMutability": "view",
      "type": "function"
    },
    {
      "constant": false,
      "inputs": [
        {
          "name": "_from",
          "type": "address"
        },
        {
          "name": "_to",
          "type": "address"
        },
        {
          "name": "_value",
          "type": "uint256"
        }
      ],
      "name": "transferFrom",
      "outputs": [
        {
          "name": "",
          "type": "bool"
        }
      ],
      "payable": false,
      "stateMutability": "nonpayable",
      "type": "function"
    },
    {
      "constant": false,
      "inputs": [
        {
          "name": "contractAddress",
          "type": "address"
        }
      ],
      "name": "setPrevContract",
      "outputs": [
        {
          "name": "",
          "type": "bool"
        }
      ],
      "payable": false,
      "stateMutability": "nonpayable",
      "type": "function"
    },
    {
      "constant": true,
      "inputs": [],
      "name": "INITIAL_SUPPLY",
      "outputs": [
        {
          "name": "",
          "type": "uint256"
        }
      ],
      "payable": false,
      "stateMutability": "view",
      "type": "function"
    },
    {
      "constant": true,
      "inputs": [],
      "name": "decimals",
      "outputs": [
        {
          "name": "",
          "type": "uint8"
        }
      ],
      "payable": false,
      "stateMutability": "view",
      "type": "function"
    },
    {
      "constant": false,
      "inputs": [
        {
          "name": "contractAddress",
          "type": "address"
        }
      ],
      "name": "setNextContract",
      "outputs": [
        {
          "name": "",
          "type": "bool"
        }
      ],
      "payable": false,
      "stateMutability": "nonpayable",
      "type": "function"
    },
    {
      "constant": false,
      "inputs": [
        {
          "name": "_spender",
          "type": "address"
        },
        {
          "name": "_subtractedValue",
          "type": "uint256"
        }
      ],
      "name": "decreaseApproval",
      "outputs": [
        {
          "name": "success",
          "type": "bool"
        }
      ],
      "payable": false,
      "stateMutability": "nonpayable",
      "type": "function"
    },
    {
      "constant": false,
      "inputs": [
        {
          "name": "index",
          "type": "uint256"
        }
      ],
      "name": "removeOwner",
      "outputs": [],
      "payable": false,
      "stateMutability": "nonpayable",
      "type": "function"
    },
    {
      "constant": false,
      "inputs": [
        {
          "name": "newOwner",
          "type": "address"
        }
      ],
      "name": "addOwner",
      "outputs": [],
      "payable": false,
      "stateMutability": "nonpayable",
      "type": "function"
    },
    {
      "constant": true,
      "inputs": [
        {
          "name": "_owner",
          "type": "address"
        }
      ],
      "name": "balanceOf",
      "outputs": [
        {
          "name": "balance",
          "type": "uint256"
        }
      ],
      "payable": false,
      "stateMutability": "view",
      "type": "function"
    },
    {
      "constant": false,
      "inputs": [
        {
          "name": "holder",
          "type": "address"
        },
        {
          "name": "value",
          "type": "uint256"
        }
      ],
      "name": "upgradeFrom",
      "outputs": [
        {
          "name": "",
          "type": "bool"
        }
      ],
      "payable": false,
      "stateMutability": "nonpayable",
      "type": "function"
    },
    {
      "constant": true,
      "inputs": [],
      "name": "symbol",
      "outputs": [
        {
          "name": "",
          "type": "string"
        }
      ],
      "payable": false,
      "stateMutability": "view",
      "type": "function"
    },
    {
      "constant": false,
      "inputs": [
        {
          "name": "id",
          "type": "uint256"
        },
        {
          "name": "store",
          "type": "address"
        }
      ],
      "name": "addStore",
      "outputs": [],
      "payable": false,
      "stateMutability": "nonpayable",
      "type": "function"
    },
    {
      "constant": false,
      "inputs": [
        {
          "name": "h",
          "type": "bytes32"
        },
        {
          "name": "r",
          "type": "bytes32"
        },
        {
          "name": "s",
          "type": "bytes32"
        },
        {
          "name": "v",
          "type": "uint8"
        },
        {
          "name": "seller",
          "type": "address"
        },
        {
          "name": "storeId",
          "type": "uint256"
        },
        {
          "name": "value",
          "type": "uint256"
        },
        {
          "name": "fee",
          "type": "uint256"
        },
        {
          "name": "ref",
          "type": "string"
        }
      ],
      "name": "pay",
      "outputs": [
        {
          "name": "",
          "type": "bool"
        }
      ],
      "payable": false,
      "stateMutability": "nonpayable",
      "type": "function"
    },
    {
      "constant": false,
      "inputs": [
        {
          "name": "_to",
          "type": "address"
        },
        {
          "name": "_value",
          "type": "uint256"
        }
      ],
      "name": "transfer",
      "outputs": [
        {
          "name": "",
          "type": "bool"
        }
      ],
      "payable": false,
      "stateMutability": "nonpayable",
      "type": "function"
    },
    {
      "constant": true,
      "inputs": [],
      "name": "ownersCount",
      "outputs": [
        {
          "name": "",
          "type": "uint256"
        }
      ],
      "payable": false,
      "stateMutability": "view",
      "type": "function"
    },
    {
      "constant": false,
      "inputs": [],
      "name": "upgrade",
      "outputs": [
        {
          "name": "",
          "type": "bool"
        }
      ],
      "payable": false,
      "stateMutability": "nonpayable",
      "type": "function"
    },
    {
      "constant": false,
      "inputs": [
        {
          "name": "_spender",
          "type": "address"
        },
        {
          "name": "_addedValue",
          "type": "uint256"
        }
      ],
      "name": "increaseApproval",
      "outputs": [
        {
          "name": "success",
          "type": "bool"
        }
      ],
      "payable": false,
      "stateMutability": "nonpayable",
      "type": "function"
    },
    {
      "constant": true,
      "inputs": [],
      "name": "nextContract",
      "outputs": [
        {
          "name": "",
          "type": "address"
        }
      ],
      "payable": false,
      "stateMutability": "view",
      "type": "function"
    },
    {
      "constant": true,
      "inputs": [
        {
          "name": "_owner",
          "type": "address"
        },
        {
          "name": "_spender",
          "type": "address"
        }
      ],
      "name": "allowance",
      "outputs": [
        {
          "name": "remaining",
          "type": "uint256"
        }
      ],
      "payable": false,
      "stateMutability": "view",
      "type": "function"
    },
    {
      "constant": true,
      "inputs": [],
      "name": "prevContract",
      "outputs": [
        {
          "name": "",
          "type": "address"
        }
      ],
      "payable": false,
      "stateMutability": "view",
      "type": "function"
    },
    {
      "constant": true,
      "inputs": [
        {
          "name": "",
          "type": "uint256"
        }
      ],
      "name": "stores",
      "outputs": [
        {
          "name": "",
          "type": "address"
        }
      ],
      "payable": false,
      "stateMutability": "view",
      "type": "function"
    },
    {
      "inputs": [],
      "payable": false,
      "stateMutability": "nonpayable",
      "type": "constructor"
    },
    {
      "anonymous": false,
      "inputs": [
        {
          "indexed": true,
          "name": "_from",
          "type": "address"
        },
        {
          "indexed": true,
          "name": "_to",
          "type": "address"
        },
        {
          "indexed": false,
          "name": "_value",
          "type": "uint256"
        }
      ],
      "name": "Upgrade",
      "type": "event"
    },
    {
      "anonymous": false,
      "inputs": [
        {
          "indexed": true,
          "name": "_from",
          "type": "address"
        },
        {
          "indexed": true,
          "name": "_to",
          "type": "address"
        },
        {
          "indexed": false,
          "name": "_value",
          "type": "uint256"
        }
      ],
      "name": "UpgradeFrom",
      "type": "event"
    },
    {
      "anonymous": false,
      "inputs": [
        {
          "indexed": false,
          "name": "contractAddress",
          "type": "address"
        }
      ],
      "name": "NextContractSet",
      "type": "event"
    },
    {
      "anonymous": false,
      "inputs": [
        {
          "indexed": false,
          "name": "contractAddress",
          "type": "address"
        }
      ],
      "name": "PrevContractSet",
      "type": "event"
    },
    {
      "anonymous": false,
      "inputs": [
        {
          "indexed": true,
          "name": "store",
          "type": "address"
        },
        {
          "indexed": true,
          "name": "seller",
          "type": "address"
        },
        {
          "indexed": true,
          "name": "buyer",
          "type": "address"
        },
        {
          "indexed": false,
          "name": "value",
          "type": "uint256"
        },
        {
          "indexed": false,
          "name": "ref",
          "type": "string"
        }
      ],
      "name": "Pay",
      "type": "event"
    },
    {
      "anonymous": false,
      "inputs": [
        {
          "indexed": false,
          "name": "id",
          "type": "uint256"
        },
        {
          "indexed": false,
          "name": "store",
          "type": "address"
        }
      ],
      "name": "NewStore",
      "type": "event"
    },
    {
      "anonymous": false,
      "inputs": [
        {
          "indexed": true,
          "name": "authorizer",
          "type": "address"
        },
        {
          "indexed": true,
          "name": "newOwner",
          "type": "address"
        },
        {
          "indexed": false,
          "name": "index",
          "type": "uint256"
        }
      ],
      "name": "OwnerAdded",
      "type": "event"
    },
    {
      "anonymous": false,
      "inputs": [
        {
          "indexed": true,
          "name": "authorizer",
          "type": "address"
        },
        {
          "indexed": true,
          "name": "oldOwner",
          "type": "address"
        }
      ],
      "name": "OwnerRemoved",
      "type": "event"
    },
    {
      "anonymous": false,
      "inputs": [
        {
          "indexed": true,
          "name": "owner",
          "type": "address"
        },
        {
          "indexed": true,
          "name": "spender",
          "type": "address"
        },
        {
          "indexed": false,
          "name": "value",
          "type": "uint256"
        }
      ],
      "name": "Approval",
      "type": "event"
    },
    {
      "anonymous": false,
      "inputs": [
        {
          "indexed": true,
          "name": "from",
          "type": "address"
        },
        {
          "indexed": true,
          "name": "to",
          "type": "address"
        },
        {
          "indexed": false,
          "name": "value",
          "type": "uint256"
        }
      ],
      "name": "Transfer",
      "type": "event"
    }
  ],
  "bytecode": "0x6060604052341561000f57600080fd5b600380546001810161002183826100a0565b5060009182526020808320919091018054600160a060020a03191633600160a060020a031690811790915566354a6ba7a18000808455818452600190925260408084208390559092917fddf252ad1be2c89b69c2b068fc378daa952ba7f163c4a11628f55a4df523b3ef915190815260200160405180910390a36100ea565b8154818355818115116100c4576000838152602090206100c49181019083016100c9565b505050565b6100e791905b808211156100e357600081556001016100cf565b5090565b90565b61156a806100f96000396000f30060606040526004361061012f5763ffffffff60e060020a600035041663025e7c27811461013457806306fdde0314610166578063095ea7b3146101f057806318160ddd1461022657806323b872dd1461024b578063251139f6146102735780632ff2e9dc14610292578063313ce567146102a557806353390100146102ce57806366188463146102ed5780636b9194881461030f5780637065cb481461032757806370a0823114610346578063753e88e51461036557806395d89b4114610387578063a53bbc131461039a578063a89b9113146103bc578063a9059cbb1461043e578063b948854614610460578063d55ec69714610473578063d73dd62314610486578063d8787fde146104a8578063dd62ed3e146104bb578063e449de9f146104e0578063e8a59cd8146104f3575b600080fd5b341561013f57600080fd5b61014a600435610509565b604051600160a060020a03909116815260200160405180910390f35b341561017157600080fd5b610179610531565b60405160208082528190810183818151815260200191508051906020019080838360005b838110156101b557808201518382015260200161019d565b50505050905090810190601f1680156101e25780820380516001836020036101000a031916815260200191505b509250505060405180910390f35b34156101fb57600080fd5b610212600160a060020a0360043516602435610568565b604051901515815260200160405180910390f35b341561023157600080fd5b6102396105d4565b60405190815260200160405180910390f35b341561025657600080fd5b610212600160a060020a03600435811690602435166044356105da565b341561027e57600080fd5b610212600160a060020a03600435166106f2565b341561029d57600080fd5b6102396107c6565b34156102b057600080fd5b6102b86107d1565b60405160ff909116815260200160405180910390f35b34156102d957600080fd5b610212600160a060020a03600435166107d6565b34156102f857600080fd5b610212600160a060020a0360043516602435610936565b341561031a57600080fd5b610325600435610a30565b005b341561033257600080fd5b610325600160a060020a0360043516610b7a565b341561035157600080fd5b610239600160a060020a0360043516610c64565b341561037057600080fd5b610212600160a060020a0360043516602435610c7f565b341561039257600080fd5b610179610d26565b34156103a557600080fd5b610325600435600160a060020a0360243516610d5d565b34156103c757600080fd5b610212600480359060248035916044359160ff6064351691600160a060020a03608435169160a4359160c4359160e4359190610124906101043590810190830135806020601f82018190048102016040519081016040528181529291906020840183838082843750949650610e2595505050505050565b341561044957600080fd5b610212600160a060020a0360043516602435610f54565b341561046b57600080fd5b610239611018565b341561047e57600080fd5b61021261101f565b341561049157600080fd5b610212600160a060020a03600435166024356111af565b34156104b357600080fd5b61014a611253565b34156104c657600080fd5b610239600160a060020a0360043581169060243516611262565b34156104eb57600080fd5b61014a61128d565b34156104fe57600080fd5b61014a60043561129c565b600380548290811061051757fe5b600091825260209091200154600160a060020a0316905081565b60408051908101604052600981527f4b6e6f776c656467650000000000000000000000000000000000000000000000602082015281565b600160a060020a03338116600081815260026020908152604080832094871680845294909152808220859055909291907f8c5be1e5ebec7d5bd14f71427d1e84f3dd0314c0f7b2291e5b200ac8c7c3b9259085905190815260200160405180910390a350600192915050565b60005481565b600080600160a060020a03841615156105f257600080fd5b50600160a060020a03808516600081815260026020908152604080832033909516835293815283822054928252600190529190912054610638908463ffffffff6112b716565b600160a060020a03808716600090815260016020526040808220939093559086168152205461066d908463ffffffff6112c916565b600160a060020a038516600090815260016020526040902055610696818463ffffffff6112b716565b600160a060020a038087166000818152600260209081526040808320338616845290915290819020939093559086169160008051602061151f8339815191529086905190815260200160405180910390a3506001949350505050565b600080805b60035481101561073c57600380548290811061070f57fe5b60009182526020909120015433600160a060020a039081169116141561073457600191505b6001016106f7565b81151561074857600080fd5b600160a060020a038416151561075d57600080fd5b60068054600160a060020a031916600160a060020a0386811691909117918290557fe7a5dc59990bb8618337b754505c1711341b849d5402b3b8d79f7008c740b5029116604051600160a060020a03909116815260200160405180910390a15060019392505050565b66354a6ba7a1800081565b600881565b600080805b6003548110156108205760038054829081106107f357fe5b60009182526020909120015433600160a060020a039081169116141561081857600191505b6001016107db565b81151561082c57600080fd5b600554600160a060020a03161561084257600080fd5b600160a060020a038416151561085757600080fd5b60058054600160a060020a031916600160a060020a0386811691909117918290556000805492909116906318160ddd90604051602001526040518163ffffffff1660e060020a028152600401602060405180830381600087803b15156108bc57600080fd5b6102c65a03f115156108cd57600080fd5b505050604051805190501415156108e357600080fd5b6005547fd105ab7a234f12bc74c491e1ad967020fb520fc908446e4d8dd87f36dd24cda990600160a060020a0316604051600160a060020a03909116815260200160405180910390a15060019392505050565b600160a060020a0333811660009081526002602090815260408083209386168352929052908120548083111561099357600160a060020a0333811660009081526002602090815260408083209388168352929052908120556109ca565b6109a3818463ffffffff6112b716565b600160a060020a033381166000908152600260209081526040808320938916835292905220555b600160a060020a0333811660008181526002602090815260408083209489168084529490915290819020547f8c5be1e5ebec7d5bd14f71427d1e84f3dd0314c0f7b2291e5b200ac8c7c3b925915190815260200160405180910390a35060019392505050565b600080805b600354811015610a7a576003805482908110610a4d57fe5b60009182526020909120015433600160a060020a0390811691161415610a7257600191505b600101610a35565b811515610a8657600080fd5b6003805485908110610a9457fe5b60009182526020909120015460038054600160a060020a039092169450906000198101908110610ac057fe5b60009182526020909120015460038054600160a060020a039092169186908110610ae657fe5b60009182526020909120018054600160a060020a031916600160a060020a0392909216919091179055600380546000198101908110610b2157fe5b60009182526020909120018054600160a060020a0319169055600160a060020a038381169033167fe594d081b4382713733fe631966432c9cea5199afb2db5c3c1931f9f9300367960405160405180910390a350505050565b600080805b600354811015610bc4576003805482908110610b9757fe5b60009182526020909120015433600160a060020a0390811691161415610bbc57600191505b600101610b7f565b811515610bd057600080fd5b600160a060020a0384161515610be557600080fd5b600160038054806001018281610bfb91906114c9565b60009283526020909220018054600160a060020a031916600160a060020a0388811691821790925592909103945033167fa0b18fca933618876351ba2ef88bf4505c184d3e55064bec0d7fe236dd706d848560405190815260200160405180910390a350505050565b600160a060020a031660009081526001602052604090205490565b60065460009033600160a060020a03908116911614610c9d57600080fd5b600160a060020a03831660008181526001602052604080822085905560008051602061151f8339815191529085905190815260200160405180910390a3600654600160a060020a0380851691167fafc7f3fa9b11b0da7624ad7f5a27e287d3a5eef414b5d7ac38996631ed80b89a8460405190815260200160405180910390a350600192915050565b60408051908101604052600381527f4b4e570000000000000000000000000000000000000000000000000000000000602082015281565b6000805b600354811015610da6576003805482908110610d7957fe5b60009182526020909120015433600160a060020a0390811691161415610d9e57600191505b600101610d61565b811515610db257600080fd5b600084815260046020526040908190208054600160a060020a031916600160a060020a0386161790557fe6dacdb80468cc5a1f6a468c1c7dffaf8adf2888b4c8d588b09937dd22b54b65908590859051918252600160a060020a031660208201526040908101905180910390a150505050565b600084815260046020526040812054600160a060020a0316801515610e4657fe5b610e578b8b8b8b8b868b8b8b6112df565b506000841115610e7357610e6b8185610f54565b1515610e7357fe5b610e7d8786610f54565b1515610e8557fe5b33600160a060020a031687600160a060020a031682600160a060020a03167f7b49c4ddfe0c26fc008cc36d047c44eb1a44478fdfa2f2572af5ef8b38f00112888760405182815260406020820181815290820183818151815260200191508051906020019080838360005b83811015610f08578082015183820152602001610ef0565b50505050905090810190601f168015610f355780820380516001836020036101000a031916815260200191505b50935050505060405180910390a45060019a9950505050505050505050565b6000600160a060020a0383161515610f6b57600080fd5b600160a060020a033316600090815260016020526040902054610f94908363ffffffff6112b716565b600160a060020a033381166000908152600160205260408082209390935590851681522054610fc9908363ffffffff6112c916565b600160a060020a03808516600081815260016020526040908190209390935591339091169060008051602061151f8339815191529085905190815260200160405180910390a350600192915050565b6003545b90565b6005546000908190600160a060020a0316151561103b57600080fd5b50600160a060020a03331660009081526001602052604081205490811161105e57fe5b600160a060020a03331660009081526001602052604081208190555461108a908263ffffffff6112b716565b600090815533600160a060020a031660008051602061151f8339815191528360405190815260200160405180910390a3600554600160a060020a031663753e88e5338360006040516020015260405160e060020a63ffffffff8516028152600160a060020a0390921660048301526024820152604401602060405180830381600087803b151561111957600080fd5b6102c65a03f1151561112a57600080fd5b50505060405180515050600554600160a060020a039081169033167f7e5c344a8141a805725cb476f76c6953b842222b967edd1f78ddb6e8b3f397ac8360405190815260200160405180910390a36001915060005415156111ab5760038054600090811061119457fe5b600091825260209091200154600160a060020a0316ff5b5090565b600160a060020a0333811660009081526002602090815260408083209386168352929052908120546111e7908363ffffffff6112c916565b600160a060020a0333811660008181526002602090815260408083209489168084529490915290819020849055919290917f8c5be1e5ebec7d5bd14f71427d1e84f3dd0314c0f7b2291e5b200ac8c7c3b92591905190815260200160405180910390a350600192915050565b600554600160a060020a031681565b600160a060020a03918216600090815260026020908152604080832093909416825291909152205490565b600654600160a060020a031681565b600460205260009081526040902054600160a060020a031681565b6000828211156112c357fe5b50900390565b6000828201838110156112d857fe5b9392505050565b60006112e96114f2565b60008060006040805190810160405280601c81526020017f19457468657265756d205369676e6564204d6573736167653a0a3332000000008152509350838e6040518083805190602001908083835b602083106113575780518252601f199092019160209182019101611338565b6001836020036101000a03801982511681845116179092525050509190910192835250506020019050604051809103902092506001838c8f8f6040516000815260200160405260006040516020015260405193845260ff90921660208085019190915260408085019290925260608401929092526080909201915160208103908084039060008661646e5a03f115156113ef57600080fd5b5050602060405103519150600160a060020a03808316908a161461140f57fe5b89898989896040516c01000000000000000000000000600160a060020a0380881682028352861602601482015260288101849052604881018390526068810182805190602001908083835b602083106114795780518252601f19909201916020918201910161145a565b6001836020036101000a03801982511681845116179092525050509190910196506040955050505050505190819003902090508d81146114b557fe5b5060019d9c50505050505050505050505050565b8154818355818115116114ed576000838152602090206114ed918101908301611504565b505050565b60206040519081016040526000815290565b61101c91905b808211156111ab576000815560010161150a5600ddf252ad1be2c89b69c2b068fc378daa952ba7f163c4a11628f55a4df523b3efa165627a7a723058200a0fc208cb9fbbc3070b21e98baec806c6d6b4823dc76a9a394518cf825ed9f90029",
  "source": "pragma solidity ^0.4.18;\n\nimport { Knowledge } from './KnowledgeToken.sol';\n\n\n/**\n * Knowledge Base Contract, used to create the initial tokens\n * Upgradable Standard ECR20 Token\n */\ncontract KnowledgeBase is Knowledge {\n  function KnowledgeBase() public {\n    balances[msg.sender] = INITIAL_SUPPLY;\n    Transfer(0x0, msg.sender, INITIAL_SUPPLY);\n  }\n}\n",
  "sourcePath": "/Users/diegobarahona/Documents/Projects/Knowledge/knowledge-contracts/contracts/KnowledgeBase.sol",
  "compiler": {
    "name": "solc",
    "version": "0.4.18+commit.9cf6e910.Emscripten.clang"
  },
  "schemaVersion": "1.0.1",
  "updatedAt": "2018-01-23T05:56:02.319Z"
}