{
  "contractName": "Legacy",
  "abi": [
    {
      "constant": true,
      "inputs": [
        {
          "name": "",
          "type": "uint256"
        }
      ],
      "name": "owners",
      "outputs": [
        {
          "name": "",
          "type": "address"
        }
      ],
      "payable": false,
      "stateMutability": "view",
      "type": "function"
    },
    {
      "constant": true,
      "inputs": [],
      "name": "name",
      "outputs": [
        {
          "name": "",
          "type": "string"
        }
      ],
      "payable": false,
      "stateMutability": "pure",
      "type": "function"
    },
    {
      "constant": false,
      "inputs": [
        {
          "name": "_spender",
          "type": "address"
        },
        {
          "name": "_value",
          "type": "uint256"
        }
      ],
      "name": "approve",
      "outputs": [
        {
          "name": "",
          "type": "bool"
        }
      ],
      "payable": false,
      "stateMutability": "nonpayable",
      "type": "function"
    },
    {
      "constant": true,
      "inputs": [],
      "name": "totalSupply",
      "outputs": [
        {
          "name": "",
          "type": "uint256"
        }
      ],
      "payable": false,
      "stateMutability": "view",
      "type": "function"
    },
    {
      "constant": false,
      "inputs": [
        {
          "name": "_from",
          "type": "address"
        },
        {
          "name": "_to",
          "type": "address"
        },
        {
          "name": "_value",
          "type": "uint256"
        }
      ],
      "name": "transferFrom",
      "outputs": [
        {
          "name": "",
          "type": "bool"
        }
      ],
      "payable": false,
      "stateMutability": "nonpayable",
      "type": "function"
    },
    {
      "constant": false,
      "inputs": [
        {
          "name": "contractAddress",
          "type": "address"
        }
      ],
      "name": "setPrevContract",
      "outputs": [
        {
          "name": "",
          "type": "bool"
        }
      ],
      "payable": false,
      "stateMutability": "nonpayable",
      "type": "function"
    },
    {
      "constant": true,
      "inputs": [],
      "name": "INITIAL_SUPPLY",
      "outputs": [
        {
          "name": "",
          "type": "uint256"
        }
      ],
      "payable": false,
      "stateMutability": "pure",
      "type": "function"
    },
    {
      "constant": true,
      "inputs": [],
      "name": "decimals",
      "outputs": [
        {
          "name": "",
          "type": "uint8"
        }
      ],
      "payable": false,
      "stateMutability": "pure",
      "type": "function"
    },
    {
      "constant": true,
      "inputs": [],
      "name": "implementation",
      "outputs": [
        {
          "name": "",
          "type": "address"
        }
      ],
      "payable": false,
      "stateMutability": "view",
      "type": "function"
    },
    {
      "constant": false,
      "inputs": [
        {
          "name": "_spender",
          "type": "address"
        },
        {
          "name": "_subtractedValue",
          "type": "uint256"
        }
      ],
      "name": "decreaseApproval",
      "outputs": [
        {
          "name": "success",
          "type": "bool"
        }
      ],
      "payable": false,
      "stateMutability": "nonpayable",
      "type": "function"
    },
    {
      "constant": false,
      "inputs": [
        {
          "name": "index",
          "type": "uint256"
        }
      ],
      "name": "removeOwner",
      "outputs": [],
      "payable": false,
      "stateMutability": "nonpayable",
      "type": "function"
    },
    {
      "constant": false,
      "inputs": [
        {
          "name": "newOwner",
          "type": "address"
        }
      ],
      "name": "addOwner",
      "outputs": [],
      "payable": false,
      "stateMutability": "nonpayable",
      "type": "function"
    },
    {
      "constant": true,
      "inputs": [
        {
          "name": "_owner",
          "type": "address"
        }
      ],
      "name": "balanceOf",
      "outputs": [
        {
          "name": "balance",
          "type": "uint256"
        }
      ],
      "payable": false,
      "stateMutability": "view",
      "type": "function"
    },
    {
      "constant": false,
      "inputs": [
        {
          "name": "holder",
          "type": "address"
        },
        {
          "name": "value",
          "type": "uint256"
        }
      ],
      "name": "upgradeFrom",
      "outputs": [
        {
          "name": "",
          "type": "bool"
        }
      ],
      "payable": false,
      "stateMutability": "nonpayable",
      "type": "function"
    },
    {
      "constant": false,
      "inputs": [],
      "name": "initialize",
      "outputs": [],
      "payable": true,
      "stateMutability": "payable",
      "type": "function"
    },
    {
      "constant": true,
      "inputs": [],
      "name": "symbol",
      "outputs": [
        {
          "name": "",
          "type": "string"
        }
      ],
      "payable": false,
      "stateMutability": "pure",
      "type": "function"
    },
    {
      "constant": false,
      "inputs": [
        {
          "name": "_to",
          "type": "address"
        },
        {
          "name": "_value",
          "type": "uint256"
        }
      ],
      "name": "transfer",
      "outputs": [
        {
          "name": "",
          "type": "bool"
        }
      ],
      "payable": false,
      "stateMutability": "nonpayable",
      "type": "function"
    },
    {
      "constant": true,
      "inputs": [],
      "name": "ownersCount",
      "outputs": [
        {
          "name": "",
          "type": "uint256"
        }
      ],
      "payable": false,
      "stateMutability": "view",
      "type": "function"
    },
    {
      "constant": false,
      "inputs": [
        {
          "name": "_spender",
          "type": "address"
        },
        {
          "name": "_addedValue",
          "type": "uint256"
        }
      ],
      "name": "increaseApproval",
      "outputs": [
        {
          "name": "success",
          "type": "bool"
        }
      ],
      "payable": false,
      "stateMutability": "nonpayable",
      "type": "function"
    },
    {
      "constant": true,
      "inputs": [
        {
          "name": "_owner",
          "type": "address"
        },
        {
          "name": "_spender",
          "type": "address"
        }
      ],
      "name": "allowance",
      "outputs": [
        {
          "name": "remaining",
          "type": "uint256"
        }
      ],
      "payable": false,
      "stateMutability": "view",
      "type": "function"
    },
    {
      "constant": true,
      "inputs": [],
      "name": "prevContract",
      "outputs": [
        {
          "name": "",
          "type": "address"
        }
      ],
      "payable": false,
      "stateMutability": "view",
      "type": "function"
    },
    {
      "anonymous": false,
      "inputs": [
        {
          "indexed": true,
          "name": "_from",
          "type": "address"
        },
        {
          "indexed": true,
          "name": "_to",
          "type": "address"
        },
        {
          "indexed": false,
          "name": "_value",
          "type": "uint256"
        }
      ],
      "name": "UpgradeFrom",
      "type": "event"
    },
    {
      "anonymous": false,
      "inputs": [
        {
          "indexed": false,
          "name": "contractAddress",
          "type": "address"
        }
      ],
      "name": "PrevContractSet",
      "type": "event"
    },
    {
      "anonymous": false,
      "inputs": [
        {
          "indexed": true,
          "name": "owner",
          "type": "address"
        },
        {
          "indexed": true,
          "name": "spender",
          "type": "address"
        },
        {
          "indexed": false,
          "name": "value",
          "type": "uint256"
        }
      ],
      "name": "Approval",
      "type": "event"
    },
    {
      "anonymous": false,
      "inputs": [
        {
          "indexed": true,
          "name": "from",
          "type": "address"
        },
        {
          "indexed": true,
          "name": "to",
          "type": "address"
        },
        {
          "indexed": false,
          "name": "value",
          "type": "uint256"
        }
      ],
      "name": "Transfer",
      "type": "event"
    },
    {
      "anonymous": false,
      "inputs": [
        {
          "indexed": false,
          "name": "implementation",
          "type": "address"
        }
      ],
      "name": "NewImplementation",
      "type": "event"
    },
    {
      "anonymous": false,
      "inputs": [
        {
          "indexed": true,
          "name": "authorizer",
          "type": "address"
        },
        {
          "indexed": true,
          "name": "newOwner",
          "type": "address"
        },
        {
          "indexed": false,
          "name": "index",
          "type": "uint256"
        }
      ],
      "name": "OwnerAdded",
      "type": "event"
    },
    {
      "anonymous": false,
      "inputs": [
        {
          "indexed": true,
          "name": "authorizer",
          "type": "address"
        },
        {
          "indexed": true,
          "name": "oldOwner",
          "type": "address"
        }
      ],
      "name": "OwnerRemoved",
      "type": "event"
    }
  ],
  "bytecode": "0x606060405260008054600181016100168382610076565b50600091825260208220018054600160a060020a03191633600160a060020a0316908117909155907fa0b18fca933618876351ba2ef88bf4505c184d3e55064bec0d7fe236dd706d848160405190815260200160405180910390a36100c0565b81548183558181151161009a5760008381526020902061009a91810190830161009f565b505050565b6100bd91905b808211156100b957600081556001016100a5565b5090565b90565b610df1806100cf6000396000f30060606040526004361061011c5763ffffffff7c0100000000000000000000000000000000000000000000000000000000600035041663025e7c27811461012157806306fdde0314610153578063095ea7b3146101dd57806318160ddd1461021357806323b872dd14610238578063251139f6146102605780632ff2e9dc1461027f578063313ce567146102925780635c60da1b146102bb57806366188463146102ce5780636b919488146102f05780637065cb481461030857806370a0823114610327578063753e88e5146103465780638129fc1c1461036857806395d89b4114610370578063a9059cbb14610383578063b9488546146103a5578063d73dd623146103b8578063dd62ed3e146103da578063e449de9f146103ff575b600080fd5b341561012c57600080fd5b610137600435610412565b604051600160a060020a03909116815260200160405180910390f35b341561015e57600080fd5b61016661043a565b60405160208082528190810183818151815260200191508051906020019080838360005b838110156101a257808201518382015260200161018a565b50505050905090810190601f1680156101cf5780820380516001836020036101000a031916815260200191505b509250505060405180910390f35b34156101e857600080fd5b6101ff600160a060020a036004351660243561047c565b604051901515815260200160405180910390f35b341561021e57600080fd5b6102266104e8565b60405190815260200160405180910390f35b341561024357600080fd5b6101ff600160a060020a03600435811690602435166044356104f7565b341561026b57600080fd5b6101ff600160a060020a0360043516610621565b341561028a57600080fd5b6102266106ff565b341561029d57600080fd5b6102a561070a565b60405160ff909116815260200160405180910390f35b34156102c657600080fd5b61013761070f565b34156102d957600080fd5b6101ff600160a060020a036004351660243561071e565b34156102fb57600080fd5b610306600435610818565b005b341561031357600080fd5b610306600160a060020a0360043516610978565b341561033257600080fd5b610226600160a060020a0360043516610a73565b341561035157600080fd5b6101ff600160a060020a0360043516602435610a8e565b610306610b47565b341561037b57600080fd5b610166610b49565b341561038e57600080fd5b6101ff600160a060020a0360043516602435610b8a565b34156103b057600080fd5b610226610c60565b34156103c357600080fd5b6101ff600160a060020a0360043516602435610c66565b34156103e557600080fd5b610226600160a060020a0360043581169060243516610d0a565b341561040a57600080fd5b610137610d35565b600080548290811061042057fe5b600091825260209091200154600160a060020a0316905081565b610442610d6c565b60408051908101604052600481527f4d61726b00000000000000000000000000000000000000000000000000000000602082015290505b90565b600160a060020a03338116600081815260036020908152604080832094871680845294909152808220859055909291907f8c5be1e5ebec7d5bd14f71427d1e84f3dd0314c0f7b2291e5b200ac8c7c3b9259085905190815260200160405180910390a350600192915050565b60006104f26106ff565b905090565b600080600160a060020a038416151561050f57600080fd5b50600160a060020a03808516600081815260036020908152604080832033909516835293815283822054928252600290529190912054610555908463ffffffff610d4416565b600160a060020a03808716600090815260026020526040808220939093559086168152205461058a908463ffffffff610d5616565b600160a060020a0385166000908152600260205260409020556105b3818463ffffffff610d4416565b600160a060020a03808716600081815260036020908152604080832033861684529091529081902093909355908616917fddf252ad1be2c89b69c2b068fc378daa952ba7f163c4a11628f55a4df523b3ef9086905190815260200160405180910390a3506001949350505050565b600080805b60005481101561066f57600080548290811061063e57fe5b60009182526020909120015433600160a060020a0390811691161415610667576001915061066f565b600101610626565b81151561067b57600080fd5b600160a060020a038416151561069057600080fd5b6004805473ffffffffffffffffffffffffffffffffffffffff1916600160a060020a0386161790557fe7a5dc59990bb8618337b754505c1711341b849d5402b3b8d79f7008c740b50284604051600160a060020a03909116815260200160405180910390a15060019392505050565b66354a6ba7a1800090565b600890565b600154600160a060020a031690565b600160a060020a0333811660009081526003602090815260408083209386168352929052908120548083111561077b57600160a060020a0333811660009081526003602090815260408083209388168352929052908120556107b2565b61078b818463ffffffff610d4416565b600160a060020a033381166000908152600360209081526040808320938916835292905220555b600160a060020a0333811660008181526003602090815260408083209489168084529490915290819020547f8c5be1e5ebec7d5bd14f71427d1e84f3dd0314c0f7b2291e5b200ac8c7c3b925915190815260200160405180910390a35060019392505050565b600080805b60005481101561086657600080548290811061083557fe5b60009182526020909120015433600160a060020a039081169116141561085e5760019150610866565b60010161081d565b81151561087257600080fd5b600080548590811061088057fe5b60009182526020822001548154600160a060020a03909116945060001981019081106108a857fe5b60009182526020822001548154600160a060020a039091169190869081106108cc57fe5b60009182526020822001805473ffffffffffffffffffffffffffffffffffffffff1916600160a060020a0393909316929092179091558054600019810190811061091257fe5b6000918252602090912001805473ffffffffffffffffffffffffffffffffffffffff19169055600160a060020a038381169033167fe594d081b4382713733fe631966432c9cea5199afb2db5c3c1931f9f9300367960405160405180910390a350505050565b600080805b6000548110156109c657600080548290811061099557fe5b60009182526020909120015433600160a060020a03908116911614156109be57600191506109c6565b60010161097d565b8115156109d257600080fd5b600160a060020a03841615156109e757600080fd5b6001600080548060010182816109fd9190610d7e565b6000928352602090922001805473ffffffffffffffffffffffffffffffffffffffff1916600160a060020a0388811691821790925592909103945033167fa0b18fca933618876351ba2ef88bf4505c184d3e55064bec0d7fe236dd706d848560405190815260200160405180910390a350505050565b600160a060020a031660009081526002602052604090205490565b60045460009033600160a060020a03908116911614610aac57600080fd5b600160a060020a0383166000818152600260205260408082208590557fddf252ad1be2c89b69c2b068fc378daa952ba7f163c4a11628f55a4df523b3ef9085905190815260200160405180910390a3600454600160a060020a0380851691167fafc7f3fa9b11b0da7624ad7f5a27e287d3a5eef414b5d7ac38996631ed80b89a8460405190815260200160405180910390a350600192915050565b565b610b51610d6c565b60408051908101604052600381527f4d524b00000000000000000000000000000000000000000000000000000000006020820152905090565b6000600160a060020a0383161515610ba157600080fd5b600160a060020a033316600090815260026020526040902054610bca908363ffffffff610d4416565b600160a060020a033381166000908152600260205260408082209390935590851681522054610bff908363ffffffff610d5616565b600160a060020a0380851660008181526002602052604090819020939093559133909116907fddf252ad1be2c89b69c2b068fc378daa952ba7f163c4a11628f55a4df523b3ef9085905190815260200160405180910390a350600192915050565b60005490565b600160a060020a033381166000908152600360209081526040808320938616835292905290812054610c9e908363ffffffff610d5616565b600160a060020a0333811660008181526003602090815260408083209489168084529490915290819020849055919290917f8c5be1e5ebec7d5bd14f71427d1e84f3dd0314c0f7b2291e5b200ac8c7c3b92591905190815260200160405180910390a350600192915050565b600160a060020a03918216600090815260036020908152604080832093909416825291909152205490565b600454600160a060020a031681565b600082821115610d5057fe5b50900390565b600082820183811015610d6557fe5b9392505050565b60206040519081016040526000815290565b815481835581811511610da257600083815260209020610da2918101908301610da7565b505050565b61047991905b80821115610dc15760008155600101610dad565b50905600a165627a7a7230582050d17ef762b541da5d9fde44859748770047820a94bc841c17112c08f30f0cb50029",
  "source": "pragma solidity ^0.4.18;\n\nimport { Base } from './Base.sol';\nimport { SafeMath } from './utils/SafeMath.sol';\n\n\n/**\n * A token upgrade mechanism where users can upgrade tokens\n * to the next smart contract revision.\n *\n * First envisioned by Golem and Lunyr projects.\n */\ncontract Legacy is Base {\n  using SafeMath for uint256;\n\n  /** The contract from which we upgrade */\n  Legacy public prevContract;\n\n  /**\n   * Somebody has upgraded some of their tokens.\n   */\n  event UpgradeFrom(address indexed _from, address indexed _to, uint256 _value);\n\n  /**\n   * Previous contract available.\n   */\n  event PrevContractSet(address contractAddress);\n\n  modifier fromPrevContract() {\n    require(msg.sender == address(prevContract));\n    _;\n  }\n\n  function upgradeFrom(address holder, uint256 value) fromPrevContract public returns (bool) {\n    balances[holder] = value;\n    Transfer(address(0), holder, value);\n    UpgradeFrom(address(prevContract), holder, value);\n\n    return true;\n  }\n\n  function setPrevContract(address contractAddress) onlyOwner public returns (bool) {\n    require(contractAddress != 0x0);\n    prevContract = Legacy(contractAddress);\n    PrevContractSet(contractAddress);\n\n    return true;\n  }\n}\n",
  "sourcePath": "/Users/diegobarahona/Documents/Projects/Knowledge/knowledge-contracts/contracts/Legacy.sol",
  "compiler": {
    "name": "solc",
    "version": "0.4.18+commit.9cf6e910.Emscripten.clang"
  },
  "schemaVersion": "1.0.1",
  "updatedAt": "2018-03-17T21:54:58.374Z"
}