{
  "contractName": "Migrations",
  "abi": [
    {
      "constant": true,
      "inputs": [
        {
          "name": "",
          "type": "uint256"
        }
      ],
      "name": "owners",
      "outputs": [
        {
          "name": "",
          "type": "address"
        }
      ],
      "payable": false,
      "stateMutability": "view",
      "type": "function"
    },
    {
      "constant": false,
      "inputs": [
        {
          "name": "newAddress",
          "type": "address"
        }
      ],
      "name": "upgrade",
      "outputs": [],
      "payable": false,
      "stateMutability": "nonpayable",
      "type": "function"
    },
    {
      "constant": false,
      "inputs": [
        {
          "name": "index",
          "type": "uint256"
        }
      ],
      "name": "removeOwner",
      "outputs": [],
      "payable": false,
      "stateMutability": "nonpayable",
      "type": "function"
    },
    {
      "constant": false,
      "inputs": [
        {
          "name": "newOwner",
          "type": "address"
        }
      ],
      "name": "addOwner",
      "outputs": [],
      "payable": false,
      "stateMutability": "nonpayable",
      "type": "function"
    },
    {
      "constant": true,
      "inputs": [],
      "name": "ownersCount",
      "outputs": [
        {
          "name": "",
          "type": "uint256"
        }
      ],
      "payable": false,
      "stateMutability": "view",
      "type": "function"
    },
    {
      "constant": true,
      "inputs": [],
      "name": "lastCompletedMigration",
      "outputs": [
        {
          "name": "",
          "type": "uint256"
        }
      ],
      "payable": false,
      "stateMutability": "view",
      "type": "function"
    },
    {
      "constant": false,
      "inputs": [
        {
          "name": "completed",
          "type": "uint256"
        }
      ],
      "name": "setCompleted",
      "outputs": [],
      "payable": false,
      "stateMutability": "nonpayable",
      "type": "function"
    },
    {
      "anonymous": false,
      "inputs": [
        {
          "indexed": true,
          "name": "authorizer",
          "type": "address"
        },
        {
          "indexed": true,
          "name": "newOwner",
          "type": "address"
        },
        {
          "indexed": false,
          "name": "index",
          "type": "uint256"
        }
      ],
      "name": "OwnerAdded",
      "type": "event"
    },
    {
      "anonymous": false,
      "inputs": [
        {
          "indexed": true,
          "name": "authorizer",
          "type": "address"
        },
        {
          "indexed": true,
          "name": "oldOwner",
          "type": "address"
        }
      ],
      "name": "OwnerRemoved",
      "type": "event"
    }
  ],
  "bytecode": "0x606060405260008054600181016100168382610076565b50600091825260208220018054600160a060020a03191633600160a060020a0316908117909155907fa0b18fca933618876351ba2ef88bf4505c184d3e55064bec0d7fe236dd706d848160405190815260200160405180910390a36100c0565b81548183558181151161009a5760008381526020902061009a91810190830161009f565b505050565b6100bd91905b808211156100b957600081556001016100a5565b5090565b90565b610598806100cf6000396000f3006060604052600436106100825763ffffffff7c0100000000000000000000000000000000000000000000000000000000600035041663025e7c2781146100875780630900f010146100b95780636b919488146100da5780637065cb48146100f0578063b94885461461010f578063fbdbad3c14610134578063fdacd57614610147575b600080fd5b341561009257600080fd5b61009d60043561015d565b604051600160a060020a03909116815260200160405180910390f35b34156100c457600080fd5b6100d8600160a060020a0360043516610185565b005b34156100e557600080fd5b6100d860043561025d565b34156100fb57600080fd5b6100d8600160a060020a03600435166103bd565b341561011a57600080fd5b6101226104b8565b60405190815260200160405180910390f35b341561013f57600080fd5b6101226104bf565b341561015257600080fd5b6100d86004356104c5565b600080548290811061016b57fe5b600091825260209091200154600160a060020a0316905081565b600080805b6000548110156101d35760008054829081106101a257fe5b60009182526020909120015433600160a060020a03908116911614156101cb57600191506101d3565b60010161018a565b8115156101df57600080fd5b83925082600160a060020a031663fdacd5766001546040517c010000000000000000000000000000000000000000000000000000000063ffffffff84160281526004810191909152602401600060405180830381600087803b151561024357600080fd5b6102c65a03f1151561025457600080fd5b50505050505050565b600080805b6000548110156102ab57600080548290811061027a57fe5b60009182526020909120015433600160a060020a03908116911614156102a357600191506102ab565b600101610262565b8115156102b757600080fd5b60008054859081106102c557fe5b60009182526020822001548154600160a060020a03909116945060001981019081106102ed57fe5b60009182526020822001548154600160a060020a0390911691908690811061031157fe5b60009182526020822001805473ffffffffffffffffffffffffffffffffffffffff1916600160a060020a0393909316929092179091558054600019810190811061035757fe5b6000918252602090912001805473ffffffffffffffffffffffffffffffffffffffff19169055600160a060020a038381169033167fe594d081b4382713733fe631966432c9cea5199afb2db5c3c1931f9f9300367960405160405180910390a350505050565b600080805b60005481101561040b5760008054829081106103da57fe5b60009182526020909120015433600160a060020a0390811691161415610403576001915061040b565b6001016103c2565b81151561041757600080fd5b600160a060020a038416151561042c57600080fd5b6001600080548060010182816104429190610525565b6000928352602090922001805473ffffffffffffffffffffffffffffffffffffffff1916600160a060020a0388811691821790925592909103945033167fa0b18fca933618876351ba2ef88bf4505c184d3e55064bec0d7fe236dd706d848560405190815260200160405180910390a350505050565b6000545b90565b60015481565b6000805b6000548110156105125760008054829081106104e157fe5b60009182526020909120015433600160a060020a039081169116141561050a5760019150610512565b6001016104c9565b81151561051e57600080fd5b5050600155565b8154818355818115116105495760008381526020902061054991810190830161054e565b505050565b6104bc91905b808211156105685760008155600101610554565b50905600a165627a7a723058205b460fd8a795b318a3427c5db230bcde455dfc469b5004c3d462020d2f0624a50029",
  "source": "pragma solidity ^0.4.18;\n\n\nimport { Ownable } from './Ownable.sol';\n\n\n/**\n * @title Migrations\n * @dev This is a truffle contract, needed for truffle integration, not meant for use by Knowledge users.\n */\ncontract Migrations is Ownable {\n  uint256 public lastCompletedMigration;\n\n  function setCompleted(uint256 completed) onlyOwner public {\n    lastCompletedMigration = completed;\n  }\n\n  function upgrade(address newAddress) onlyOwner public {\n    Migrations upgraded = Migrations(newAddress);\n    upgraded.setCompleted(lastCompletedMigration);\n  }\n}\n",
  "sourcePath": "/Users/diegobarahona/Documents/Projects/Knowledge/knowledge-contracts/contracts/utils/Migrations.sol",
  "compiler": {
    "name": "solc",
    "version": "0.4.18+commit.9cf6e910.Emscripten.clang"
  },
  "schemaVersion": "1.0.1",
  "updatedAt": "2018-03-17T21:54:58.374Z"
}