{
  "contractName": "Migrations",
  "abi": [
    {
      "constant": true,
      "inputs": [
        {
          "name": "",
          "type": "uint256"
        }
      ],
      "name": "owners",
      "outputs": [
        {
          "name": "",
          "type": "address"
        }
      ],
      "payable": false,
      "stateMutability": "view",
      "type": "function"
    },
    {
      "constant": false,
      "inputs": [
        {
          "name": "newAddress",
          "type": "address"
        }
      ],
      "name": "upgrade",
      "outputs": [],
      "payable": false,
      "stateMutability": "nonpayable",
      "type": "function"
    },
    {
      "constant": false,
      "inputs": [
        {
          "name": "index",
          "type": "uint256"
        }
      ],
      "name": "removeOwner",
      "outputs": [],
      "payable": false,
      "stateMutability": "nonpayable",
      "type": "function"
    },
    {
      "constant": false,
      "inputs": [
        {
          "name": "newOwner",
          "type": "address"
        }
      ],
      "name": "addOwner",
      "outputs": [],
      "payable": false,
      "stateMutability": "nonpayable",
      "type": "function"
    },
    {
      "constant": true,
      "inputs": [],
      "name": "ownersCount",
      "outputs": [
        {
          "name": "",
          "type": "uint256"
        }
      ],
      "payable": false,
      "stateMutability": "view",
      "type": "function"
    },
    {
      "constant": true,
      "inputs": [],
      "name": "lastCompletedMigration",
      "outputs": [
        {
          "name": "",
          "type": "uint256"
        }
      ],
      "payable": false,
      "stateMutability": "view",
      "type": "function"
    },
    {
      "constant": false,
      "inputs": [
        {
          "name": "completed",
          "type": "uint256"
        }
      ],
      "name": "setCompleted",
      "outputs": [],
      "payable": false,
      "stateMutability": "nonpayable",
      "type": "function"
    },
    {
      "anonymous": false,
      "inputs": [
        {
          "indexed": true,
          "name": "authorizer",
          "type": "address"
        },
        {
          "indexed": true,
          "name": "newOwner",
          "type": "address"
        },
        {
          "indexed": false,
          "name": "index",
          "type": "uint256"
        }
      ],
      "name": "OwnerAdded",
      "type": "event"
    },
    {
      "anonymous": false,
      "inputs": [
        {
          "indexed": true,
          "name": "authorizer",
          "type": "address"
        },
        {
          "indexed": true,
          "name": "oldOwner",
          "type": "address"
        }
      ],
      "name": "OwnerRemoved",
      "type": "event"
    }
  ],
  "bytecode": "0x606060405260008054600181016100168382610040565b5060009182526020909120018054600160a060020a03191633600160a060020a031617905561008a565b81548183558181151161006457600083815260209020610064918101908301610069565b505050565b61008791905b80821115610083576000815560010161006f565b5090565b90565b610588806100996000396000f3006060604052600436106100825763ffffffff7c0100000000000000000000000000000000000000000000000000000000600035041663025e7c2781146100875780630900f010146100b95780636b919488146100da5780637065cb48146100f0578063b94885461461010f578063fbdbad3c14610134578063fdacd57614610147575b600080fd5b341561009257600080fd5b61009d60043561015d565b604051600160a060020a03909116815260200160405180910390f35b34156100c457600080fd5b6100d8600160a060020a0360043516610185565b005b34156100e557600080fd5b6100d8600435610259565b34156100fb57600080fd5b6100d8600160a060020a03600435166103b5565b341561011a57600080fd5b6101226104ac565b60405190815260200160405180910390f35b341561013f57600080fd5b6101226104b3565b341561015257600080fd5b6100d86004356104b9565b600080548290811061016b57fe5b600091825260209091200154600160a060020a0316905081565b600080805b6000548110156101cf5760008054829081106101a257fe5b60009182526020909120015433600160a060020a03908116911614156101c757600191505b60010161018a565b8115156101db57600080fd5b83925082600160a060020a031663fdacd5766001546040517c010000000000000000000000000000000000000000000000000000000063ffffffff84160281526004810191909152602401600060405180830381600087803b151561023f57600080fd5b6102c65a03f1151561025057600080fd5b50505050505050565b600080805b6000548110156102a357600080548290811061027657fe5b60009182526020909120015433600160a060020a039081169116141561029b57600191505b60010161025e565b8115156102af57600080fd5b60008054859081106102bd57fe5b60009182526020822001548154600160a060020a03909116945060001981019081106102e557fe5b60009182526020822001548154600160a060020a0390911691908690811061030957fe5b60009182526020822001805473ffffffffffffffffffffffffffffffffffffffff1916600160a060020a0393909316929092179091558054600019810190811061034f57fe5b6000918252602090912001805473ffffffffffffffffffffffffffffffffffffffff19169055600160a060020a038381169033167fe594d081b4382713733fe631966432c9cea5199afb2db5c3c1931f9f9300367960405160405180910390a350505050565b600080805b6000548110156103ff5760008054829081106103d257fe5b60009182526020909120015433600160a060020a03908116911614156103f757600191505b6001016103ba565b81151561040b57600080fd5b600160a060020a038416151561042057600080fd5b6001600080548060010182816104369190610515565b6000928352602090922001805473ffffffffffffffffffffffffffffffffffffffff1916600160a060020a0388811691821790925592909103945033167fa0b18fca933618876351ba2ef88bf4505c184d3e55064bec0d7fe236dd706d848560405190815260200160405180910390a350505050565b6000545b90565b60015481565b6000805b6000548110156105025760008054829081106104d557fe5b60009182526020909120015433600160a060020a03908116911614156104fa57600191505b6001016104bd565b81151561050e57600080fd5b5050600155565b8154818355818115116105395760008381526020902061053991810190830161053e565b505050565b6104b091905b808211156105585760008155600101610544565b50905600a165627a7a7230582084ed851e63aae3cad33ed9ec47bfe3c79a09bb4b5710c3aabd931a513f3c252e0029",
  "source": "pragma solidity ^0.4.18;\n\n\nimport { Ownable } from './Ownable.sol';\n\n\n/**\n * @title Migrations\n * @dev This is a truffle contract, needed for truffle integration, not meant for use by Knowledge users.\n */\ncontract Migrations is Ownable {\n  uint256 public lastCompletedMigration;\n\n  function setCompleted(uint256 completed) onlyOwner public {\n    lastCompletedMigration = completed;\n  }\n\n  function upgrade(address newAddress) onlyOwner public {\n    Migrations upgraded = Migrations(newAddress);\n    upgraded.setCompleted(lastCompletedMigration);\n  }\n}\n",
  "sourcePath": "/Users/diegobarahona/Documents/Projects/Knowledge/knowledge-contracts/contracts/utils/Migrations.sol",
  "compiler": {
    "name": "solc",
    "version": "0.4.18+commit.9cf6e910.Emscripten.clang"
  },
  "schemaVersion": "1.0.1",
  "updatedAt": "2018-01-30T06:15:43.077Z"
}