{
  "contractName": "Ownable",
  "abi": [
    {
      "constant": true,
      "inputs": [
        {
          "name": "",
          "type": "uint256"
        }
      ],
      "name": "owners",
      "outputs": [
        {
          "name": "",
          "type": "address"
        }
      ],
      "payable": false,
      "stateMutability": "view",
      "type": "function"
    },
    {
      "constant": false,
      "inputs": [
        {
          "name": "index",
          "type": "uint256"
        }
      ],
      "name": "removeOwner",
      "outputs": [],
      "payable": false,
      "stateMutability": "nonpayable",
      "type": "function"
    },
    {
      "constant": false,
      "inputs": [
        {
          "name": "newOwner",
          "type": "address"
        }
      ],
      "name": "addOwner",
      "outputs": [],
      "payable": false,
      "stateMutability": "nonpayable",
      "type": "function"
    },
    {
      "constant": true,
      "inputs": [],
      "name": "ownersCount",
      "outputs": [
        {
          "name": "",
          "type": "uint256"
        }
      ],
      "payable": false,
      "stateMutability": "view",
      "type": "function"
    },
    {
      "inputs": [],
      "payable": false,
      "stateMutability": "nonpayable",
      "type": "constructor"
    },
    {
      "anonymous": false,
      "inputs": [
        {
          "indexed": true,
          "name": "authorizer",
          "type": "address"
        },
        {
          "indexed": true,
          "name": "newOwner",
          "type": "address"
        },
        {
          "indexed": false,
          "name": "index",
          "type": "uint256"
        }
      ],
      "name": "OwnerAdded",
      "type": "event"
    },
    {
      "anonymous": false,
      "inputs": [
        {
          "indexed": true,
          "name": "authorizer",
          "type": "address"
        },
        {
          "indexed": true,
          "name": "oldOwner",
          "type": "address"
        }
      ],
      "name": "OwnerRemoved",
      "type": "event"
    }
  ],
  "bytecode": "0x6060604052341561000f57600080fd5b60008054600181016100218382610081565b50600091825260208220018054600160a060020a03191633600160a060020a0316908117909155907fa0b18fca933618876351ba2ef88bf4505c184d3e55064bec0d7fe236dd706d848160405190815260200160405180910390a36100cb565b8154818355818115116100a5576000838152602090206100a59181019083016100aa565b505050565b6100c891905b808211156100c457600081556001016100b0565b5090565b90565b6103f1806100da6000396000f3006060604052600436106100615763ffffffff7c0100000000000000000000000000000000000000000000000000000000600035041663025e7c2781146100665780636b919488146100985780637065cb48146100b0578063b9488546146100cf575b600080fd5b341561007157600080fd5b61007c6004356100f4565b604051600160a060020a03909116815260200160405180910390f35b34156100a357600080fd5b6100ae60043561011c565b005b34156100bb57600080fd5b6100ae600160a060020a036004351661027c565b34156100da57600080fd5b6100e2610377565b60405190815260200160405180910390f35b600080548290811061010257fe5b600091825260209091200154600160a060020a0316905081565b600080805b60005481101561016a57600080548290811061013957fe5b60009182526020909120015433600160a060020a0390811691161415610162576001915061016a565b600101610121565b81151561017657600080fd5b600080548590811061018457fe5b60009182526020822001548154600160a060020a03909116945060001981019081106101ac57fe5b60009182526020822001548154600160a060020a039091169190869081106101d057fe5b60009182526020822001805473ffffffffffffffffffffffffffffffffffffffff1916600160a060020a0393909316929092179091558054600019810190811061021657fe5b6000918252602090912001805473ffffffffffffffffffffffffffffffffffffffff19169055600160a060020a038381169033167fe594d081b4382713733fe631966432c9cea5199afb2db5c3c1931f9f9300367960405160405180910390a350505050565b600080805b6000548110156102ca57600080548290811061029957fe5b60009182526020909120015433600160a060020a03908116911614156102c257600191506102ca565b600101610281565b8115156102d657600080fd5b600160a060020a03841615156102eb57600080fd5b600160008054806001018281610301919061037e565b6000928352602090922001805473ffffffffffffffffffffffffffffffffffffffff1916600160a060020a0388811691821790925592909103945033167fa0b18fca933618876351ba2ef88bf4505c184d3e55064bec0d7fe236dd706d848560405190815260200160405180910390a350505050565b6000545b90565b8154818355818115116103a2576000838152602090206103a29181019083016103a7565b505050565b61037b91905b808211156103c157600081556001016103ad565b50905600a165627a7a72305820d8e6e88bb5b47a6c9dada2b88bfcaa63233ca9cb041a0ef1bd7eda5e43ad93ff0029",
  "source": "pragma solidity ^0.4.18;\n\n\n/**\n * @title Ownable\n * @dev The Ownable contract has an owner address, and provides basic authorization control\n * functions, this simplifies the implementation of \"user permissions\".\n */\ncontract Ownable {\n  address[] public owners;\n\n  event OwnerAdded(address indexed authorizer, address indexed newOwner, uint256 index);\n\n  event OwnerRemoved(address indexed authorizer, address indexed oldOwner);\n\n  /**\n   * @dev The Ownable constructor sets the original `owner` of the contract to the sender\n   * account.\n   */\n  function Ownable() public {\n    owners.push(msg.sender);\n    OwnerAdded(0x0, msg.sender, 0);\n  }\n\n  /**\n   * @dev Throws if called by any account other than one owner.\n   */\n  modifier onlyOwner() {\n    bool isOwner = false;\n\n    for (uint256 i = 0; i < owners.length; i++) {\n      if (msg.sender == owners[i]) {\n        isOwner = true;\n        break;\n      }\n    }\n\n    require(isOwner);\n    _;\n  }\n\n  /**\n   * @dev Allows one of the current owners to add a new owner\n   * @param newOwner The address give ownership to.\n   */\n  function addOwner(address newOwner) onlyOwner public {\n    require(newOwner != address(0));\n    uint256 i = owners.push(newOwner) - 1;\n    OwnerAdded(msg.sender, newOwner, i);\n  }\n\n  /**\n   * @dev Allows one of the owners to remove other owner\n   */\n  function removeOwner(uint256 index) onlyOwner public {\n    address owner = owners[index];\n    owners[index] = owners[owners.length - 1];\n    delete owners[owners.length - 1];\n    OwnerRemoved(msg.sender, owner);\n  }\n\n  function ownersCount() constant public returns (uint256) {\n    return owners.length;\n  }\n}\n",
  "sourcePath": "/Users/diegobarahona/Documents/Projects/Knowledge/knowledge-contracts/contracts/utils/Ownable.sol",
  "compiler": {
    "name": "solc",
    "version": "0.4.18+commit.9cf6e910.Emscripten.clang"
  },
  "schemaVersion": "1.0.1",
  "updatedAt": "2018-03-17T21:54:58.380Z"
}