{
  "contractName": "Ownable",
  "abi": [
    {
      "constant": true,
      "inputs": [
        {
          "name": "",
          "type": "uint256"
        }
      ],
      "name": "owners",
      "outputs": [
        {
          "name": "",
          "type": "address"
        }
      ],
      "payable": false,
      "stateMutability": "view",
      "type": "function"
    },
    {
      "constant": false,
      "inputs": [
        {
          "name": "index",
          "type": "uint256"
        }
      ],
      "name": "removeOwner",
      "outputs": [],
      "payable": false,
      "stateMutability": "nonpayable",
      "type": "function"
    },
    {
      "constant": false,
      "inputs": [
        {
          "name": "newOwner",
          "type": "address"
        }
      ],
      "name": "addOwner",
      "outputs": [],
      "payable": false,
      "stateMutability": "nonpayable",
      "type": "function"
    },
    {
      "constant": true,
      "inputs": [],
      "name": "ownersCount",
      "outputs": [
        {
          "name": "",
          "type": "uint256"
        }
      ],
      "payable": false,
      "stateMutability": "view",
      "type": "function"
    },
    {
      "inputs": [],
      "payable": false,
      "stateMutability": "nonpayable",
      "type": "constructor"
    },
    {
      "anonymous": false,
      "inputs": [
        {
          "indexed": true,
          "name": "authorizer",
          "type": "address"
        },
        {
          "indexed": true,
          "name": "newOwner",
          "type": "address"
        },
        {
          "indexed": false,
          "name": "index",
          "type": "uint256"
        }
      ],
      "name": "OwnerAdded",
      "type": "event"
    },
    {
      "anonymous": false,
      "inputs": [
        {
          "indexed": true,
          "name": "authorizer",
          "type": "address"
        },
        {
          "indexed": true,
          "name": "oldOwner",
          "type": "address"
        }
      ],
      "name": "OwnerRemoved",
      "type": "event"
    }
  ],
  "bytecode": "0x6060604052341561000f57600080fd5b6000805460018101610021838261004b565b5060009182526020909120018054600160a060020a03191633600160a060020a0316179055610095565b81548183558181151161006f5760008381526020902061006f918101908301610074565b505050565b61009291905b8082111561008e576000815560010161007a565b5090565b90565b6103e9806100a46000396000f3006060604052600436106100615763ffffffff7c0100000000000000000000000000000000000000000000000000000000600035041663025e7c2781146100665780636b919488146100985780637065cb48146100b0578063b9488546146100cf575b600080fd5b341561007157600080fd5b61007c6004356100f4565b604051600160a060020a03909116815260200160405180910390f35b34156100a357600080fd5b6100ae60043561011c565b005b34156100bb57600080fd5b6100ae600160a060020a0360043516610278565b34156100da57600080fd5b6100e261036f565b60405190815260200160405180910390f35b600080548290811061010257fe5b600091825260209091200154600160a060020a0316905081565b600080805b60005481101561016657600080548290811061013957fe5b60009182526020909120015433600160a060020a039081169116141561015e57600191505b600101610121565b81151561017257600080fd5b600080548590811061018057fe5b60009182526020822001548154600160a060020a03909116945060001981019081106101a857fe5b60009182526020822001548154600160a060020a039091169190869081106101cc57fe5b60009182526020822001805473ffffffffffffffffffffffffffffffffffffffff1916600160a060020a0393909316929092179091558054600019810190811061021257fe5b6000918252602090912001805473ffffffffffffffffffffffffffffffffffffffff19169055600160a060020a038381169033167fe594d081b4382713733fe631966432c9cea5199afb2db5c3c1931f9f9300367960405160405180910390a350505050565b600080805b6000548110156102c257600080548290811061029557fe5b60009182526020909120015433600160a060020a03908116911614156102ba57600191505b60010161027d565b8115156102ce57600080fd5b600160a060020a03841615156102e357600080fd5b6001600080548060010182816102f99190610376565b6000928352602090922001805473ffffffffffffffffffffffffffffffffffffffff1916600160a060020a0388811691821790925592909103945033167fa0b18fca933618876351ba2ef88bf4505c184d3e55064bec0d7fe236dd706d848560405190815260200160405180910390a350505050565b6000545b90565b81548183558181151161039a5760008381526020902061039a91810190830161039f565b505050565b61037391905b808211156103b957600081556001016103a5565b50905600a165627a7a72305820b6ac5658bc366d4232ef81d9eb4effc7544660dfe67c10940d76dbe863bf6ee00029",
  "source": "pragma solidity ^0.4.18;\n\n\n/**\n * @title Ownable\n * @dev The Ownable contract has an owner address, and provides basic authorization control\n * functions, this simplifies the implementation of \"user permissions\".\n */\ncontract Ownable {\n  address[] public owners;\n\n  event OwnerAdded(address indexed authorizer, address indexed newOwner, uint256 index);\n\n  event OwnerRemoved(address indexed authorizer, address indexed oldOwner);\n\n  /**\n   * @dev The Ownable constructor sets the original `owner` of the contract to the sender\n   * account.\n   */\n  function Ownable() public {\n    owners.push(msg.sender);\n  }\n\n  /**\n   * @dev Throws if called by any account other than one owner.\n   */\n  modifier onlyOwner() {\n    bool isOwner = false;\n\n    for (uint256 i = 0; i < owners.length; i++) {\n      if (msg.sender == owners[i]) {\n        isOwner = true;\n      }\n    }\n\n    require(isOwner);\n    _;\n  }\n\n  /**\n   * @dev Allows one of the current owners to add a new owner\n   * @param newOwner The address give ownership to.\n   */\n  function addOwner(address newOwner) onlyOwner public {\n    require(newOwner != address(0));\n    uint256 i = owners.push(newOwner) - 1;\n    OwnerAdded(msg.sender, newOwner, i);\n  }\n\n  /**\n   * @dev Allows one of the owners to remove other owner\n   */\n  function removeOwner(uint256 index) onlyOwner public {\n    address owner = owners[index];\n    owners[index] = owners[owners.length - 1];\n    delete owners[owners.length - 1];\n    OwnerRemoved(msg.sender, owner);\n  }\n\n  function ownersCount() constant public returns (uint256) {\n    return owners.length;\n  }\n}\n",
  "sourcePath": "/Users/diegobarahona/Documents/Projects/Knowledge/knowledge-contracts/contracts/utils/Ownable.sol",
  "compiler": {
    "name": "solc",
    "version": "0.4.18+commit.9cf6e910.Emscripten.clang"
  },
  "schemaVersion": "1.0.1",
  "updatedAt": "2018-01-23T05:56:02.323Z"
}