{
  "contractName": "PayableToken",
  "abi": [
    {
      "constant": true,
      "inputs": [
        {
          "name": "",
          "type": "uint256"
        }
      ],
      "name": "owners",
      "outputs": [
        {
          "name": "",
          "type": "address"
        }
      ],
      "payable": false,
      "stateMutability": "view",
      "type": "function"
    },
    {
      "constant": false,
      "inputs": [
        {
          "name": "_spender",
          "type": "address"
        },
        {
          "name": "_value",
          "type": "uint256"
        }
      ],
      "name": "approve",
      "outputs": [
        {
          "name": "",
          "type": "bool"
        }
      ],
      "payable": false,
      "stateMutability": "nonpayable",
      "type": "function"
    },
    {
      "constant": true,
      "inputs": [],
      "name": "totalSupply",
      "outputs": [
        {
          "name": "",
          "type": "uint256"
        }
      ],
      "payable": false,
      "stateMutability": "view",
      "type": "function"
    },
    {
      "constant": false,
      "inputs": [
        {
          "name": "_from",
          "type": "address"
        },
        {
          "name": "_to",
          "type": "address"
        },
        {
          "name": "_value",
          "type": "uint256"
        }
      ],
      "name": "transferFrom",
      "outputs": [
        {
          "name": "",
          "type": "bool"
        }
      ],
      "payable": false,
      "stateMutability": "nonpayable",
      "type": "function"
    },
    {
      "constant": false,
      "inputs": [
        {
          "name": "_spender",
          "type": "address"
        },
        {
          "name": "_subtractedValue",
          "type": "uint256"
        }
      ],
      "name": "decreaseApproval",
      "outputs": [
        {
          "name": "success",
          "type": "bool"
        }
      ],
      "payable": false,
      "stateMutability": "nonpayable",
      "type": "function"
    },
    {
      "constant": false,
      "inputs": [
        {
          "name": "index",
          "type": "uint256"
        }
      ],
      "name": "removeOwner",
      "outputs": [],
      "payable": false,
      "stateMutability": "nonpayable",
      "type": "function"
    },
    {
      "constant": false,
      "inputs": [
        {
          "name": "newOwner",
          "type": "address"
        }
      ],
      "name": "addOwner",
      "outputs": [],
      "payable": false,
      "stateMutability": "nonpayable",
      "type": "function"
    },
    {
      "constant": true,
      "inputs": [
        {
          "name": "_owner",
          "type": "address"
        }
      ],
      "name": "balanceOf",
      "outputs": [
        {
          "name": "balance",
          "type": "uint256"
        }
      ],
      "payable": false,
      "stateMutability": "view",
      "type": "function"
    },
    {
      "constant": false,
      "inputs": [
        {
          "name": "id",
          "type": "uint256"
        },
        {
          "name": "store",
          "type": "address"
        }
      ],
      "name": "addStore",
      "outputs": [],
      "payable": false,
      "stateMutability": "nonpayable",
      "type": "function"
    },
    {
      "constant": false,
      "inputs": [
        {
          "name": "h",
          "type": "bytes32"
        },
        {
          "name": "r",
          "type": "bytes32"
        },
        {
          "name": "s",
          "type": "bytes32"
        },
        {
          "name": "v",
          "type": "uint8"
        },
        {
          "name": "seller",
          "type": "address"
        },
        {
          "name": "storeId",
          "type": "uint256"
        },
        {
          "name": "value",
          "type": "uint256"
        },
        {
          "name": "fee",
          "type": "uint256"
        },
        {
          "name": "ref",
          "type": "string"
        }
      ],
      "name": "pay",
      "outputs": [
        {
          "name": "",
          "type": "bool"
        }
      ],
      "payable": false,
      "stateMutability": "nonpayable",
      "type": "function"
    },
    {
      "constant": false,
      "inputs": [
        {
          "name": "_to",
          "type": "address"
        },
        {
          "name": "_value",
          "type": "uint256"
        }
      ],
      "name": "transfer",
      "outputs": [
        {
          "name": "",
          "type": "bool"
        }
      ],
      "payable": false,
      "stateMutability": "nonpayable",
      "type": "function"
    },
    {
      "constant": true,
      "inputs": [],
      "name": "ownersCount",
      "outputs": [
        {
          "name": "",
          "type": "uint256"
        }
      ],
      "payable": false,
      "stateMutability": "view",
      "type": "function"
    },
    {
      "constant": false,
      "inputs": [
        {
          "name": "_spender",
          "type": "address"
        },
        {
          "name": "_addedValue",
          "type": "uint256"
        }
      ],
      "name": "increaseApproval",
      "outputs": [
        {
          "name": "success",
          "type": "bool"
        }
      ],
      "payable": false,
      "stateMutability": "nonpayable",
      "type": "function"
    },
    {
      "constant": true,
      "inputs": [
        {
          "name": "_owner",
          "type": "address"
        },
        {
          "name": "_spender",
          "type": "address"
        }
      ],
      "name": "allowance",
      "outputs": [
        {
          "name": "remaining",
          "type": "uint256"
        }
      ],
      "payable": false,
      "stateMutability": "view",
      "type": "function"
    },
    {
      "constant": true,
      "inputs": [
        {
          "name": "",
          "type": "uint256"
        }
      ],
      "name": "stores",
      "outputs": [
        {
          "name": "",
          "type": "address"
        }
      ],
      "payable": false,
      "stateMutability": "view",
      "type": "function"
    },
    {
      "anonymous": false,
      "inputs": [
        {
          "indexed": true,
          "name": "store",
          "type": "address"
        },
        {
          "indexed": true,
          "name": "seller",
          "type": "address"
        },
        {
          "indexed": true,
          "name": "buyer",
          "type": "address"
        },
        {
          "indexed": false,
          "name": "value",
          "type": "uint256"
        },
        {
          "indexed": false,
          "name": "ref",
          "type": "string"
        }
      ],
      "name": "Pay",
      "type": "event"
    },
    {
      "anonymous": false,
      "inputs": [
        {
          "indexed": false,
          "name": "id",
          "type": "uint256"
        },
        {
          "indexed": false,
          "name": "store",
          "type": "address"
        }
      ],
      "name": "NewStore",
      "type": "event"
    },
    {
      "anonymous": false,
      "inputs": [
        {
          "indexed": true,
          "name": "authorizer",
          "type": "address"
        },
        {
          "indexed": true,
          "name": "newOwner",
          "type": "address"
        },
        {
          "indexed": false,
          "name": "index",
          "type": "uint256"
        }
      ],
      "name": "OwnerAdded",
      "type": "event"
    },
    {
      "anonymous": false,
      "inputs": [
        {
          "indexed": true,
          "name": "authorizer",
          "type": "address"
        },
        {
          "indexed": true,
          "name": "oldOwner",
          "type": "address"
        }
      ],
      "name": "OwnerRemoved",
      "type": "event"
    },
    {
      "anonymous": false,
      "inputs": [
        {
          "indexed": true,
          "name": "owner",
          "type": "address"
        },
        {
          "indexed": true,
          "name": "spender",
          "type": "address"
        },
        {
          "indexed": false,
          "name": "value",
          "type": "uint256"
        }
      ],
      "name": "Approval",
      "type": "event"
    },
    {
      "anonymous": false,
      "inputs": [
        {
          "indexed": true,
          "name": "from",
          "type": "address"
        },
        {
          "indexed": true,
          "name": "to",
          "type": "address"
        },
        {
          "indexed": false,
          "name": "value",
          "type": "uint256"
        }
      ],
      "name": "Transfer",
      "type": "event"
    }
  ],
  "bytecode": "0x606060405260038054600181016100168382610040565b5060009182526020909120018054600160a060020a03191633600160a060020a031617905561008a565b81548183558181151161006457600083815260209020610064918101908301610069565b505050565b61008791905b80821115610083576000815560010161006f565b5090565b90565b610ed8806100996000396000f3006060604052600436106100da5763ffffffff7c0100000000000000000000000000000000000000000000000000000000600035041663025e7c2781146100df578063095ea7b31461011157806318160ddd1461014757806323b872dd1461016c57806366188463146101945780636b919488146101b65780637065cb48146101ce57806370a08231146101ed578063a53bbc131461020c578063a89b91131461022e578063a9059cbb146102b0578063b9488546146102d2578063d73dd623146102e5578063dd62ed3e14610307578063e8a59cd81461032c575b600080fd5b34156100ea57600080fd5b6100f5600435610342565b604051600160a060020a03909116815260200160405180910390f35b341561011c57600080fd5b610133600160a060020a036004351660243561036a565b604051901515815260200160405180910390f35b341561015257600080fd5b61015a6103d6565b60405190815260200160405180910390f35b341561017757600080fd5b610133600160a060020a03600435811690602435166044356103dc565b341561019f57600080fd5b610133600160a060020a0360043516602435610506565b34156101c157600080fd5b6101cc600435610600565b005b34156101d957600080fd5b6101cc600160a060020a0360043516610764565b34156101f857600080fd5b61015a600160a060020a036004351661085b565b341561021757600080fd5b6101cc600435600160a060020a0360243516610876565b341561023957600080fd5b610133600480359060248035916044359160ff6064351691600160a060020a03608435169160a4359160c4359160e4359190610124906101043590810190830135806020601f8201819004810201604051908101604052818152929190602084018383808284375094965061094b95505050505050565b34156102bb57600080fd5b610133600160a060020a0360043516602435610a7a565b34156102dd57600080fd5b61015a610b50565b34156102f057600080fd5b610133600160a060020a0360043516602435610b57565b341561031257600080fd5b61015a600160a060020a0360043581169060243516610bfb565b341561033757600080fd5b6100f5600435610c26565b600380548290811061035057fe5b600091825260209091200154600160a060020a0316905081565b600160a060020a03338116600081815260026020908152604080832094871680845294909152808220859055909291907f8c5be1e5ebec7d5bd14f71427d1e84f3dd0314c0f7b2291e5b200ac8c7c3b9259085905190815260200160405180910390a350600192915050565b60005481565b600080600160a060020a03841615156103f457600080fd5b50600160a060020a0380851660008181526002602090815260408083203390951683529381528382205492825260019052919091205461043a908463ffffffff610c4116565b600160a060020a03808716600090815260016020526040808220939093559086168152205461046f908463ffffffff610c5316565b600160a060020a038516600090815260016020526040902055610498818463ffffffff610c4116565b600160a060020a03808716600081815260026020908152604080832033861684529091529081902093909355908616917fddf252ad1be2c89b69c2b068fc378daa952ba7f163c4a11628f55a4df523b3ef9086905190815260200160405180910390a3506001949350505050565b600160a060020a0333811660009081526002602090815260408083209386168352929052908120548083111561056357600160a060020a03338116600090815260026020908152604080832093881683529290529081205561059a565b610573818463ffffffff610c4116565b600160a060020a033381166000908152600260209081526040808320938916835292905220555b600160a060020a0333811660008181526002602090815260408083209489168084529490915290819020547f8c5be1e5ebec7d5bd14f71427d1e84f3dd0314c0f7b2291e5b200ac8c7c3b925915190815260200160405180910390a35060019392505050565b600080805b60035481101561064a57600380548290811061061d57fe5b60009182526020909120015433600160a060020a039081169116141561064257600191505b600101610605565b81151561065657600080fd5b600380548590811061066457fe5b60009182526020909120015460038054600160a060020a03909216945090600019810190811061069057fe5b60009182526020909120015460038054600160a060020a0390921691869081106106b657fe5b6000918252602090912001805473ffffffffffffffffffffffffffffffffffffffff1916600160a060020a03929092169190911790556003805460001981019081106106fe57fe5b6000918252602090912001805473ffffffffffffffffffffffffffffffffffffffff19169055600160a060020a038381169033167fe594d081b4382713733fe631966432c9cea5199afb2db5c3c1931f9f9300367960405160405180910390a350505050565b600080805b6003548110156107ae57600380548290811061078157fe5b60009182526020909120015433600160a060020a03908116911614156107a657600191505b600101610769565b8115156107ba57600080fd5b600160a060020a03841615156107cf57600080fd5b6001600380548060010182816107e59190610e53565b6000928352602090922001805473ffffffffffffffffffffffffffffffffffffffff1916600160a060020a0388811691821790925592909103945033167fa0b18fca933618876351ba2ef88bf4505c184d3e55064bec0d7fe236dd706d848560405190815260200160405180910390a350505050565b600160a060020a031660009081526001602052604090205490565b6000805b6003548110156108bf57600380548290811061089257fe5b60009182526020909120015433600160a060020a03908116911614156108b757600191505b60010161087a565b8115156108cb57600080fd5b60008481526004602052604090819020805473ffffffffffffffffffffffffffffffffffffffff1916600160a060020a0386161790557fe6dacdb80468cc5a1f6a468c1c7dffaf8adf2888b4c8d588b09937dd22b54b65908590859051918252600160a060020a031660208201526040908101905180910390a150505050565b600084815260046020526040812054600160a060020a031680151561096c57fe5b61097d8b8b8b8b8b868b8b8b610c69565b506000841115610999576109918185610a7a565b151561099957fe5b6109a38786610a7a565b15156109ab57fe5b33600160a060020a031687600160a060020a031682600160a060020a03167f7b49c4ddfe0c26fc008cc36d047c44eb1a44478fdfa2f2572af5ef8b38f00112888760405182815260406020820181815290820183818151815260200191508051906020019080838360005b83811015610a2e578082015183820152602001610a16565b50505050905090810190601f168015610a5b5780820380516001836020036101000a031916815260200191505b50935050505060405180910390a45060019a9950505050505050505050565b6000600160a060020a0383161515610a9157600080fd5b600160a060020a033316600090815260016020526040902054610aba908363ffffffff610c4116565b600160a060020a033381166000908152600160205260408082209390935590851681522054610aef908363ffffffff610c5316565b600160a060020a0380851660008181526001602052604090819020939093559133909116907fddf252ad1be2c89b69c2b068fc378daa952ba7f163c4a11628f55a4df523b3ef9085905190815260200160405180910390a350600192915050565b6003545b90565b600160a060020a033381166000908152600260209081526040808320938616835292905290812054610b8f908363ffffffff610c5316565b600160a060020a0333811660008181526002602090815260408083209489168084529490915290819020849055919290917f8c5be1e5ebec7d5bd14f71427d1e84f3dd0314c0f7b2291e5b200ac8c7c3b92591905190815260200160405180910390a350600192915050565b600160a060020a03918216600090815260026020908152604080832093909416825291909152205490565b600460205260009081526040902054600160a060020a031681565b600082821115610c4d57fe5b50900390565b600082820183811015610c6257fe5b9392505050565b6000610c73610e7c565b60008060006040805190810160405280601c81526020017f19457468657265756d205369676e6564204d6573736167653a0a3332000000008152509350838e6040518083805190602001908083835b60208310610ce15780518252601f199092019160209182019101610cc2565b6001836020036101000a03801982511681845116179092525050509190910192835250506020019050604051809103902092506001838c8f8f6040516000815260200160405260006040516020015260405193845260ff90921660208085019190915260408085019290925260608401929092526080909201915160208103908084039060008661646e5a03f11515610d7957600080fd5b5050602060405103519150600160a060020a03808316908a1614610d9957fe5b89898989896040516c01000000000000000000000000600160a060020a0380881682028352861602601482015260288101849052604881018390526068810182805190602001908083835b60208310610e035780518252601f199092019160209182019101610de4565b6001836020036101000a03801982511681845116179092525050509190910196506040955050505050505190819003902090508d8114610e3f57fe5b5060019d9c50505050505050505050505050565b815481835581811511610e7757600083815260209020610e77918101908301610e8e565b505050565b60206040519081016040526000815290565b610b5491905b80821115610ea85760008155600101610e94565b50905600a165627a7a723058201d8f0b74b87fd57b1da656d185a8bbca08bcad3e99c93c82afccbd81bafb8bc50029",
  "source": "pragma solidity ^0.4.18;\n\nimport { ERC20Token } from './ERC20Token.sol';\nimport { Ownable } from './utils/Ownable.sol';\n\n\n/**\n * Payable token is meant to execute the `transfer` method of the ERC20 Token\n * and log a Pay message with a reference message to bind the payment to an\n * order id or some other identifier\n */\ncontract PayableToken is ERC20Token, Ownable {\n  mapping(uint256 => address) public stores;\n\n  event Pay(address indexed store, address indexed seller, address indexed buyer, uint256 value, string ref);\n\n  event NewStore(uint256 id, address store);\n\n  function addStore(uint256 id, address store) public onlyOwner {\n    stores[id] = store;\n    NewStore(id, store);\n  }\n\n  function verifySignature(\n    bytes32 h,\n    bytes32 r,\n    bytes32 s,\n    uint8 v,\n    address seller,\n    address store,\n    uint256 value,\n    uint256 fee,\n    string ref\n  )\n    pure\n    private\n    returns (bool)\n  {\n    bytes memory prefix = '\\x19Ethereum Signed Message:\\n32';\n    bytes32 ph = keccak256(prefix, h);\n    address signer = ecrecover(ph, v, r, s);\n    assert(signer == store);\n\n    bytes32 proof = keccak256(seller, store, value, fee, ref);\n    assert(proof == h);\n\n    return true;\n  }\n\n  function pay(\n    bytes32 h,\n    bytes32 r,\n    bytes32 s,\n    uint8 v,\n    address seller,\n    uint256 storeId,\n    uint256 value,\n    uint256 fee,\n    string ref\n  )\n    public\n    returns (bool)\n  {\n    address store = stores[storeId];\n    assert(store != 0x0);\n\n    verifySignature(h, r, s, v, seller, store, value, fee, ref);\n\n    if (fee > 0) {\n      assert(transfer(store, fee));\n    }\n\n    assert(transfer(seller, value));\n\n    Pay(store, seller, msg.sender, value, ref);\n\n    return true;\n  }\n}\n",
  "sourcePath": "/Users/diegobarahona/Documents/Projects/Knowledge/knowledge-contracts/contracts/PayableToken.sol",
  "compiler": {
    "name": "solc",
    "version": "0.4.18+commit.9cf6e910.Emscripten.clang"
  },
  "schemaVersion": "1.0.1",
  "updatedAt": "2018-01-23T05:56:02.320Z"
}