{
  "contractName": "PayableToken",
  "abi": [
    {
      "constant": false,
      "inputs": [
        {
          "name": "_spender",
          "type": "address"
        },
        {
          "name": "_value",
          "type": "uint256"
        }
      ],
      "name": "approve",
      "outputs": [
        {
          "name": "",
          "type": "bool"
        }
      ],
      "payable": false,
      "stateMutability": "nonpayable",
      "type": "function"
    },
    {
      "constant": true,
      "inputs": [],
      "name": "totalSupply",
      "outputs": [
        {
          "name": "",
          "type": "uint256"
        }
      ],
      "payable": false,
      "stateMutability": "view",
      "type": "function"
    },
    {
      "constant": false,
      "inputs": [
        {
          "name": "_from",
          "type": "address"
        },
        {
          "name": "_to",
          "type": "address"
        },
        {
          "name": "_value",
          "type": "uint256"
        }
      ],
      "name": "transferFrom",
      "outputs": [
        {
          "name": "",
          "type": "bool"
        }
      ],
      "payable": false,
      "stateMutability": "nonpayable",
      "type": "function"
    },
    {
      "constant": false,
      "inputs": [
        {
          "name": "value",
          "type": "uint256"
        },
        {
          "name": "fee",
          "type": "uint256"
        },
        {
          "name": "ref",
          "type": "string"
        },
        {
          "name": "to",
          "type": "address"
        }
      ],
      "name": "requestPayment",
      "outputs": [],
      "payable": false,
      "stateMutability": "nonpayable",
      "type": "function"
    },
    {
      "constant": false,
      "inputs": [
        {
          "name": "_spender",
          "type": "address"
        },
        {
          "name": "_subtractedValue",
          "type": "uint256"
        }
      ],
      "name": "decreaseApproval",
      "outputs": [
        {
          "name": "success",
          "type": "bool"
        }
      ],
      "payable": false,
      "stateMutability": "nonpayable",
      "type": "function"
    },
    {
      "constant": true,
      "inputs": [
        {
          "name": "_owner",
          "type": "address"
        }
      ],
      "name": "balanceOf",
      "outputs": [
        {
          "name": "balance",
          "type": "uint256"
        }
      ],
      "payable": false,
      "stateMutability": "view",
      "type": "function"
    },
    {
      "constant": false,
      "inputs": [
        {
          "name": "ref",
          "type": "string"
        }
      ],
      "name": "cancelPayment",
      "outputs": [],
      "payable": false,
      "stateMutability": "nonpayable",
      "type": "function"
    },
    {
      "constant": true,
      "inputs": [
        {
          "name": "store",
          "type": "address"
        },
        {
          "name": "ref",
          "type": "string"
        }
      ],
      "name": "paymentInfo",
      "outputs": [
        {
          "name": "value",
          "type": "uint256"
        },
        {
          "name": "fee",
          "type": "uint256"
        },
        {
          "name": "seller",
          "type": "address"
        }
      ],
      "payable": false,
      "stateMutability": "view",
      "type": "function"
    },
    {
      "constant": false,
      "inputs": [
        {
          "name": "_to",
          "type": "address"
        },
        {
          "name": "_value",
          "type": "uint256"
        }
      ],
      "name": "transfer",
      "outputs": [
        {
          "name": "",
          "type": "bool"
        }
      ],
      "payable": false,
      "stateMutability": "nonpayable",
      "type": "function"
    },
    {
      "constant": false,
      "inputs": [
        {
          "name": "_spender",
          "type": "address"
        },
        {
          "name": "_addedValue",
          "type": "uint256"
        }
      ],
      "name": "increaseApproval",
      "outputs": [
        {
          "name": "success",
          "type": "bool"
        }
      ],
      "payable": false,
      "stateMutability": "nonpayable",
      "type": "function"
    },
    {
      "constant": true,
      "inputs": [
        {
          "name": "_owner",
          "type": "address"
        },
        {
          "name": "_spender",
          "type": "address"
        }
      ],
      "name": "allowance",
      "outputs": [
        {
          "name": "remaining",
          "type": "uint256"
        }
      ],
      "payable": false,
      "stateMutability": "view",
      "type": "function"
    },
    {
      "constant": false,
      "inputs": [
        {
          "name": "store",
          "type": "address"
        },
        {
          "name": "ref",
          "type": "string"
        }
      ],
      "name": "pay",
      "outputs": [
        {
          "name": "",
          "type": "bool"
        }
      ],
      "payable": false,
      "stateMutability": "nonpayable",
      "type": "function"
    },
    {
      "anonymous": false,
      "inputs": [
        {
          "indexed": true,
          "name": "from",
          "type": "address"
        },
        {
          "indexed": true,
          "name": "seller",
          "type": "address"
        },
        {
          "indexed": true,
          "name": "store",
          "type": "address"
        },
        {
          "indexed": false,
          "name": "value",
          "type": "uint256"
        },
        {
          "indexed": false,
          "name": "fee",
          "type": "uint256"
        },
        {
          "indexed": false,
          "name": "ref",
          "type": "string"
        }
      ],
      "name": "Pay",
      "type": "event"
    },
    {
      "anonymous": false,
      "inputs": [
        {
          "indexed": true,
          "name": "owner",
          "type": "address"
        },
        {
          "indexed": true,
          "name": "spender",
          "type": "address"
        },
        {
          "indexed": false,
          "name": "value",
          "type": "uint256"
        }
      ],
      "name": "Approval",
      "type": "event"
    },
    {
      "anonymous": false,
      "inputs": [
        {
          "indexed": true,
          "name": "from",
          "type": "address"
        },
        {
          "indexed": true,
          "name": "to",
          "type": "address"
        },
        {
          "indexed": false,
          "name": "value",
          "type": "uint256"
        }
      ],
      "name": "Transfer",
      "type": "event"
    }
  ],
  "bytecode": "0x6060604052341561000f57600080fd5b610d2e8061001e6000396000f3006060604052600436106100b95763ffffffff7c0100000000000000000000000000000000000000000000000000000000600035041663095ea7b381146100be57806318160ddd146100f457806323b872dd146101195780634bf493131461014157806366188463146101aa57806370a08231146101cc57806384126e01146101eb578063a0c99c511461023c578063a9059cbb146102c8578063d73dd623146102ea578063dd62ed3e1461030c578063fb4da5b714610331575b600080fd5b34156100c957600080fd5b6100e0600160a060020a0360043516602435610390565b604051901515815260200160405180910390f35b34156100ff57600080fd5b6101076103fc565b60405190815260200160405180910390f35b341561012457600080fd5b6100e0600160a060020a0360043581169060243516604435610402565b341561014c57600080fd5b6101a8600480359060248035919060649060443590810190830135806020601f8201819004810201604051908101604052818152929190602084018383808284375094965050509235600160a060020a0316925061052c915050565b005b34156101b557600080fd5b6100e0600160a060020a0360043516602435610610565b34156101d757600080fd5b610107600160a060020a036004351661070a565b34156101f657600080fd5b6101a860046024813581810190830135806020601f8201819004810201604051908101604052818152929190602084018383808284375094965061072595505050505050565b341561024757600080fd5b61029b60048035600160a060020a03169060446024803590810190830135806020601f820181900481020160405190810160405281815292919060208401838380828437509496506107ce95505050505050565b6040519283526020830191909152600160a060020a03166040808301919091526060909101905180910390f35b34156102d357600080fd5b6100e0600160a060020a03600435166024356108a0565b34156102f557600080fd5b6100e0600160a060020a0360043516602435610976565b341561031757600080fd5b610107600160a060020a0360043581169060243516610a1a565b341561033c57600080fd5b6100e060048035600160a060020a03169060446024803590810190830135806020601f82018190048102016040519081016040528181529291906020840183838082843750949650610a4595505050505050565b600160a060020a03338116600081815260026020908152604080832094871680845294909152808220859055909291907f8c5be1e5ebec7d5bd14f71427d1e84f3dd0314c0f7b2291e5b200ac8c7c3b9259085905190815260200160405180910390a350600192915050565b60005481565b600080600160a060020a038416151561041a57600080fd5b50600160a060020a03808516600081815260026020908152604080832033909516835293815283822054928252600190529190912054610460908463ffffffff610cba16565b600160a060020a038087166000908152600160205260408082209390935590861681522054610495908463ffffffff610ccc16565b600160a060020a0385166000908152600160205260409020556104be818463ffffffff610cba16565b600160a060020a03808716600081815260026020908152604080832033861684529091529081902093909355908616917fddf252ad1be2c89b69c2b068fc378daa952ba7f163c4a11628f55a4df523b3ef9086905190815260200160405180910390a3506001949350505050565b606060405190810160409081528482526020808301879052600160a060020a0380851683850152331660009081526003909152819020908490518082805190602001908083835b602083106105925780518252601f199092019160209182019101610573565b6001836020036101000a03801982511681845116808217855250505050505090500191505090815260200160405190819003902081518155602082015181600101556040820151600291909101805473ffffffffffffffffffffffffffffffffffffffff1916600160a060020a039092169190911790555050505050565b600160a060020a0333811660009081526002602090815260408083209386168352929052908120548083111561066d57600160a060020a0333811660009081526002602090815260408083209388168352929052908120556106a4565b61067d818463ffffffff610cba16565b600160a060020a033381166000908152600260209081526040808320938916835292905220555b600160a060020a0333811660008181526002602090815260408083209489168084529490915290819020547f8c5be1e5ebec7d5bd14f71427d1e84f3dd0314c0f7b2291e5b200ac8c7c3b925915190815260200160405180910390a35060019392505050565b600160a060020a031660009081526001602052604090205490565b600160a060020a03331660009081526003602052604090819020908290518082805190602001908083835b6020831061076f5780518252601f199092019160209182019101610750565b6001836020036101000a03801982511681845116808217855250505050505090500191505090815260200160405190819003902060008082556001820155600201805473ffffffffffffffffffffffffffffffffffffffff1916905550565b60008060006107db610ce2565b600160a060020a03861660009081526003602052604090819020908690518082805190602001908083835b602083106108255780518252601f199092019160209182019101610806565b6001836020036101000a03801982511681845116808217855250505050505090500191505090815260200160405180910390206060604051908101604090815282548252600183015460208301908152600290930154600160a060020a03169082015291505193508051925080604001519150509250925092565b6000600160a060020a03831615156108b757600080fd5b600160a060020a0333166000908152600160205260409020546108e0908363ffffffff610cba16565b600160a060020a033381166000908152600160205260408082209390935590851681522054610915908363ffffffff610ccc16565b600160a060020a0380851660008181526001602052604090819020939093559133909116907fddf252ad1be2c89b69c2b068fc378daa952ba7f163c4a11628f55a4df523b3ef9085905190815260200160405180910390a350600192915050565b600160a060020a0333811660009081526002602090815260408083209386168352929052908120546109ae908363ffffffff610ccc16565b600160a060020a0333811660008181526002602090815260408083209489168084529490915290819020849055919290917f8c5be1e5ebec7d5bd14f71427d1e84f3dd0314c0f7b2291e5b200ac8c7c3b92591905190815260200160405180910390a350600192915050565b600160a060020a03918216600090815260026020908152604080832093909416825291909152205490565b6000610a4f610ce2565b600160a060020a03841660009081526003602052604090819020908490518082805190602001908083835b60208310610a995780518252601f199092019160209182019101610a7a565b6001836020036101000a0380198251168184511680821785525050505050509050019150509081526020016040518091039020606060405190810160409081528254825260018301546020830152600290920154600160a060020a0316918101919091529050600081511115610b1c57610b148482516108a0565b1515610b1c57fe5b610b2e816040015182602001516108a0565b1515610b3657fe5b83600160a060020a03168160400151600160a060020a031633600160a060020a03167f2932548923882c0357c96c44bcfac0f2d4826edc925fd552f0a61abacceacb7684602001518551886040518084815260200183815260200180602001828103825283818151815260200191508051906020019080838360005b83811015610bca578082015183820152602001610bb2565b50505050905090810190601f168015610bf75780820380516001836020036101000a031916815260200191505b5094505050505060405180910390a4600160a060020a03841660009081526003602052604090819020908490518082805190602001908083835b60208310610c505780518252601f199092019160209182019101610c31565b6001836020036101000a03801982511681845116808217855250505050505090500191505090815260200160405190819003902060008082556001808301919091556002909101805473ffffffffffffffffffffffffffffffffffffffff19169055949350505050565b600082821115610cc657fe5b50900390565b600082820183811015610cdb57fe5b9392505050565b6060604051908101604090815260008083526020830181905290820152905600a165627a7a72305820d88462ab7c2cea8aee9c70b06f8852fe8e8a9845ceb83a9ef99777456fa69cdc0029",
  "source": "pragma solidity ^0.4.18;\n\nimport { ERC20Token } from './ERC20Token.sol';\n\n\n/**\n * Payable token is meant to execute the `transfer` method of the ERC20 Token\n * and log a Pay message with a reference message to bind the payment to an\n * order id or some other identifier\n */\ncontract PayableToken is ERC20Token {\n  struct PaymentRequest {\n    uint256 fee;\n    uint256 value;\n    address seller;\n  }\n\n  mapping (address => mapping(string => PaymentRequest)) private pendingPayments;\n\n  event Pay(\n    address indexed from,\n    address indexed seller,\n    address indexed store,\n    uint256 value,\n    uint256 fee,\n    string ref\n  );\n\n  function requestPayment(uint256 value, uint256 fee, string ref, address to) public {\n    pendingPayments[msg.sender][ref] = PaymentRequest(fee, value, to);\n  }\n\n  function cancelPayment(string ref) public {\n    delete pendingPayments[msg.sender][ref];\n  }\n\n  function paymentInfo(address store, string ref) public view returns (uint256 value, uint256 fee, address seller) {\n    PaymentRequest memory paymentRequest = pendingPayments[store][ref];\n    value = paymentRequest.value;\n    fee = paymentRequest.fee;\n    seller = paymentRequest.seller;\n  }\n\n  function pay(address store, string ref) public returns (bool) {\n    PaymentRequest memory paymentRequest = pendingPayments[store][ref];\n\n    if (paymentRequest.fee > 0) {\n      assert(transfer(store, paymentRequest.fee));\n    }\n\n    assert(transfer(paymentRequest.seller, paymentRequest.value));\n\n    Pay(msg.sender, paymentRequest.seller, store, paymentRequest.value, paymentRequest.fee, ref);\n    delete pendingPayments[store][ref];\n\n    return true;\n  }\n}\n",
  "sourcePath": "/Users/diegobarahona/Documents/Projects/Knowledge/knowledge-contracts/contracts/PayableToken.sol",
  "compiler": {
    "name": "solc",
    "version": "0.4.18+commit.9cf6e910.Emscripten.clang"
  },
  "schemaVersion": "1.0.1",
  "updatedAt": "2018-01-30T06:15:43.075Z"
}