{
  "contractName": "PayableToken",
  "abi": [
    {
      "constant": false,
      "inputs": [
        {
          "name": "_spender",
          "type": "address"
        },
        {
          "name": "_value",
          "type": "uint256"
        }
      ],
      "name": "approve",
      "outputs": [
        {
          "name": "",
          "type": "bool"
        }
      ],
      "payable": false,
      "stateMutability": "nonpayable",
      "type": "function"
    },
    {
      "constant": false,
      "inputs": [
        {
          "name": "value",
          "type": "uint256"
        },
        {
          "name": "fee",
          "type": "uint8"
        },
        {
          "name": "ref",
          "type": "string"
        },
        {
          "name": "to",
          "type": "address"
        }
      ],
      "name": "requestPayment",
      "outputs": [],
      "payable": false,
      "stateMutability": "nonpayable",
      "type": "function"
    },
    {
      "constant": true,
      "inputs": [],
      "name": "totalSupply",
      "outputs": [
        {
          "name": "",
          "type": "uint256"
        }
      ],
      "payable": false,
      "stateMutability": "view",
      "type": "function"
    },
    {
      "constant": false,
      "inputs": [
        {
          "name": "_from",
          "type": "address"
        },
        {
          "name": "_to",
          "type": "address"
        },
        {
          "name": "_value",
          "type": "uint256"
        }
      ],
      "name": "transferFrom",
      "outputs": [
        {
          "name": "",
          "type": "bool"
        }
      ],
      "payable": false,
      "stateMutability": "nonpayable",
      "type": "function"
    },
    {
      "constant": false,
      "inputs": [
        {
          "name": "_spender",
          "type": "address"
        },
        {
          "name": "_subtractedValue",
          "type": "uint256"
        }
      ],
      "name": "decreaseApproval",
      "outputs": [
        {
          "name": "success",
          "type": "bool"
        }
      ],
      "payable": false,
      "stateMutability": "nonpayable",
      "type": "function"
    },
    {
      "constant": true,
      "inputs": [
        {
          "name": "_owner",
          "type": "address"
        }
      ],
      "name": "balanceOf",
      "outputs": [
        {
          "name": "balance",
          "type": "uint256"
        }
      ],
      "payable": false,
      "stateMutability": "view",
      "type": "function"
    },
    {
      "constant": true,
      "inputs": [
        {
          "name": "store",
          "type": "address"
        },
        {
          "name": "ref",
          "type": "string"
        }
      ],
      "name": "paymentInfo",
      "outputs": [
        {
          "name": "value",
          "type": "uint256"
        },
        {
          "name": "fee",
          "type": "uint8"
        },
        {
          "name": "seller",
          "type": "address"
        }
      ],
      "payable": false,
      "stateMutability": "view",
      "type": "function"
    },
    {
      "constant": false,
      "inputs": [
        {
          "name": "_to",
          "type": "address"
        },
        {
          "name": "_value",
          "type": "uint256"
        }
      ],
      "name": "transfer",
      "outputs": [
        {
          "name": "",
          "type": "bool"
        }
      ],
      "payable": false,
      "stateMutability": "nonpayable",
      "type": "function"
    },
    {
      "constant": false,
      "inputs": [
        {
          "name": "_spender",
          "type": "address"
        },
        {
          "name": "_addedValue",
          "type": "uint256"
        }
      ],
      "name": "increaseApproval",
      "outputs": [
        {
          "name": "success",
          "type": "bool"
        }
      ],
      "payable": false,
      "stateMutability": "nonpayable",
      "type": "function"
    },
    {
      "constant": true,
      "inputs": [
        {
          "name": "_owner",
          "type": "address"
        },
        {
          "name": "_spender",
          "type": "address"
        }
      ],
      "name": "allowance",
      "outputs": [
        {
          "name": "remaining",
          "type": "uint256"
        }
      ],
      "payable": false,
      "stateMutability": "view",
      "type": "function"
    },
    {
      "constant": false,
      "inputs": [
        {
          "name": "store",
          "type": "address"
        },
        {
          "name": "ref",
          "type": "string"
        }
      ],
      "name": "pay",
      "outputs": [
        {
          "name": "",
          "type": "bool"
        }
      ],
      "payable": false,
      "stateMutability": "nonpayable",
      "type": "function"
    },
    {
      "anonymous": false,
      "inputs": [
        {
          "indexed": false,
          "name": "from",
          "type": "address"
        },
        {
          "indexed": false,
          "name": "to",
          "type": "address"
        },
        {
          "indexed": false,
          "name": "amount",
          "type": "uint256"
        },
        {
          "indexed": false,
          "name": "ref",
          "type": "string"
        }
      ],
      "name": "Pay",
      "type": "event"
    },
    {
      "anonymous": false,
      "inputs": [
        {
          "indexed": true,
          "name": "owner",
          "type": "address"
        },
        {
          "indexed": true,
          "name": "spender",
          "type": "address"
        },
        {
          "indexed": false,
          "name": "value",
          "type": "uint256"
        }
      ],
      "name": "Approval",
      "type": "event"
    },
    {
      "anonymous": false,
      "inputs": [
        {
          "indexed": true,
          "name": "from",
          "type": "address"
        },
        {
          "indexed": true,
          "name": "to",
          "type": "address"
        },
        {
          "indexed": false,
          "name": "value",
          "type": "uint256"
        }
      ],
      "name": "Transfer",
      "type": "event"
    }
  ],
  "bytecode": "0x6060604052341561000f57600080fd5b610bbb8061001e6000396000f3006060604052600436106100ae5763ffffffff7c0100000000000000000000000000000000000000000000000000000000600035041663095ea7b381146100b3578063173d15b9146100e957806318160ddd1461015557806323b872dd1461017a57806366188463146101a257806370a08231146101c4578063a0c99c51146101e3578063a9059cbb14610271578063d73dd62314610293578063dd62ed3e146102b5578063fb4da5b7146102da575b600080fd5b34156100be57600080fd5b6100d5600160a060020a0360043516602435610339565b604051901515815260200160405180910390f35b34156100f457600080fd5b61015360048035906024803560ff16919060649060443590810190830135806020601f8201819004810201604051908101604052818152929190602084018383808284375094965050509235600160a060020a031692506103a5915050565b005b341561016057600080fd5b6101686104b8565b60405190815260200160405180910390f35b341561018557600080fd5b6100d5600160a060020a03600435811690602435166044356104be565b34156101ad57600080fd5b6100d5600160a060020a03600435166024356105e8565b34156101cf57600080fd5b610168600160a060020a03600435166106e2565b34156101ee57600080fd5b61024260048035600160a060020a03169060446024803590810190830135806020601f820181900481020160405190810160405281815292919060208401838380828437509496506106fd95505050505050565b60405192835260ff9091166020830152600160a060020a03166040808301919091526060909101905180910390f35b341561027c57600080fd5b6100d5600160a060020a03600435166024356107d8565b341561029e57600080fd5b6100d5600160a060020a03600435166024356108ae565b34156102c057600080fd5b610168600160a060020a0360043581169060243516610952565b34156102e557600080fd5b6100d560048035600160a060020a03169060446024803590810190830135806020601f8201819004810201604051908101604052818152929190602084018383808284375094965061097d95505050505050565b600160a060020a03338116600081815260026020908152604080832094871680845294909152808220859055909291907f8c5be1e5ebec7d5bd14f71427d1e84f3dd0314c0f7b2291e5b200ac8c7c3b9259085905190815260200160405180910390a350600192915050565b6060604051908101604052808581526020018460ff16815260200182600160a060020a03168152506003600033600160a060020a0316600160a060020a03168152602001908152602001600020836040518082805190602001908083835b602083106104225780518252601f199092019160209182019101610403565b6001836020036101000a03801982511681845116808217855250505050505090500191505090815260200160405190819003902081518155602082015160018201805460ff191660ff92909216919091179055604082015160019091018054600160a060020a03929092166101000274ffffffffffffffffffffffffffffffffffffffff00199092169190911790555050505050565b60005481565b600080600160a060020a03841615156104d657600080fd5b50600160a060020a0380851660008181526002602090815260408083203390951683529381528382205492825260019052919091205461051c908463ffffffff610b4716565b600160a060020a038087166000908152600160205260408082209390935590861681522054610551908463ffffffff610b5916565b600160a060020a03851660009081526001602052604090205561057a818463ffffffff610b4716565b600160a060020a03808716600081815260026020908152604080832033861684529091529081902093909355908616917fddf252ad1be2c89b69c2b068fc378daa952ba7f163c4a11628f55a4df523b3ef9086905190815260200160405180910390a3506001949350505050565b600160a060020a0333811660009081526002602090815260408083209386168352929052908120548083111561064557600160a060020a03338116600090815260026020908152604080832093881683529290529081205561067c565b610655818463ffffffff610b4716565b600160a060020a033381166000908152600260209081526040808320938916835292905220555b600160a060020a0333811660008181526002602090815260408083209489168084529490915290819020547f8c5be1e5ebec7d5bd14f71427d1e84f3dd0314c0f7b2291e5b200ac8c7c3b925915190815260200160405180910390a35060019392505050565b600160a060020a031660009081526001602052604090205490565b600080600061070a610b6f565b600160a060020a03861660009081526003602052604090819020908690518082805190602001908083835b602083106107545780518252601f199092019160209182019101610735565b6001836020036101000a0380198251168184511680821785525050505050509050019150509081526020016040518091039020606060405190810160409081528254825260019092015460ff811660208301526101009004600160a060020a0316918101919091529050805193508060200151925080604001519150509250925092565b6000600160a060020a03831615156107ef57600080fd5b600160a060020a033316600090815260016020526040902054610818908363ffffffff610b4716565b600160a060020a03338116600090815260016020526040808220939093559085168152205461084d908363ffffffff610b5916565b600160a060020a0380851660008181526001602052604090819020939093559133909116907fddf252ad1be2c89b69c2b068fc378daa952ba7f163c4a11628f55a4df523b3ef9085905190815260200160405180910390a350600192915050565b600160a060020a0333811660009081526002602090815260408083209386168352929052908120546108e6908363ffffffff610b5916565b600160a060020a0333811660008181526002602090815260408083209489168084529490915290819020849055919290917f8c5be1e5ebec7d5bd14f71427d1e84f3dd0314c0f7b2291e5b200ac8c7c3b92591905190815260200160405180910390a350600192915050565b600160a060020a03918216600090815260026020908152604080832093909416825291909152205490565b6000610987610b6f565b600160a060020a03841660009081526003602052604090819020908490518082805190602001908083835b602083106109d15780518252601f1990920191602091820191016109b2565b6001836020036101000a0380198251168184511680821785525050505050509050019150509081526020016040518091039020606060405190810160409081528254825260019092015460ff811660208301526101009004600160a060020a0316918101918252915051600160a060020a03161515610a4c57fe5b610a5d84826020015160ff166107d8565b1515610a6557fe5b610a74816040015182516107d8565b1515610a7c57fe5b7f5d2ae1cdca5222ec8fffbc4b088f5b5144ad5f4eaf2fc8afc49cd35857671082338260400151835186604051600160a060020a038086168252841660208201526040810183905260806060820181815290820183818151815260200191508051906020019080838360005b83811015610b00578082015183820152602001610ae8565b50505050905090810190601f168015610b2d5780820380516001836020036101000a031916815260200191505b509550505050505060405180910390a15060019392505050565b600082821115610b5357fe5b50900390565b600082820183811015610b6857fe5b9392505050565b6060604051908101604090815260008083526020830181905290820152905600a165627a7a72305820961b211565aea2995f70d36e961bbfee812cb86ef85b0b22a0dde35f77ffeed00029",
  "source": "pragma solidity ^0.4.18;\n\nimport { ERC20Token } from './ERC20Token.sol';\n\n\n/**\n * Payable token is meant to execute the `transfer` method of the ERC20 Token\n * and log a Pay message with a reference message to bind the payment to an\n * order id or some other identifier\n */\ncontract PayableToken is ERC20Token {\n  struct PaymentRequest {\n    uint256 value;\n    uint8 fee;\n    address seller;\n  }\n\n  mapping (address => mapping(string => PaymentRequest)) private pendingPayments;\n\n  event Pay(address from, address to, uint256 amount, string ref);\n\n  function requestPayment(uint256 value, uint8 fee, string ref, address to) public {\n    pendingPayments[msg.sender][ref] = PaymentRequest(value, fee, to);\n  }\n\n  function paymentInfo(address store, string ref) public view returns (uint256 value, uint8 fee, address seller) {\n    PaymentRequest memory paymentRequest = pendingPayments[store][ref];\n    value = paymentRequest.value;\n    fee = paymentRequest.fee;\n    seller = paymentRequest.seller;\n  }\n\n  function pay(address store, string ref) public returns (bool) {\n    PaymentRequest memory paymentRequest = pendingPayments[store][ref];\n\n    assert(paymentRequest.seller != 0x0);\n    assert(transfer(store, paymentRequest.fee));\n    assert(transfer(paymentRequest.seller, paymentRequest.value));\n\n    Pay(msg.sender, paymentRequest.seller, paymentRequest.value, ref);\n\n    return true;\n  }\n}\n",
  "sourcePath": "/Users/diegobarahona/Documents/Projects/Knowledge/knowledge-contracts/contracts/PayableToken.sol",
  "compiler": {
    "name": "solc",
    "version": "0.4.18+commit.9cf6e910.Emscripten.clang"
  },
  "schemaVersion": "1.0.1",
  "updatedAt": "2018-01-09T08:15:04.986Z"
}