{
  "contractName": "UpgradeableToken",
  "abi": [
    {
      "constant": false,
      "inputs": [
        {
          "name": "_spender",
          "type": "address"
        },
        {
          "name": "_value",
          "type": "uint256"
        }
      ],
      "name": "approve",
      "outputs": [
        {
          "name": "",
          "type": "bool"
        }
      ],
      "payable": false,
      "stateMutability": "nonpayable",
      "type": "function"
    },
    {
      "constant": true,
      "inputs": [],
      "name": "totalSupply",
      "outputs": [
        {
          "name": "",
          "type": "uint256"
        }
      ],
      "payable": false,
      "stateMutability": "view",
      "type": "function"
    },
    {
      "constant": false,
      "inputs": [
        {
          "name": "_from",
          "type": "address"
        },
        {
          "name": "_to",
          "type": "address"
        },
        {
          "name": "_value",
          "type": "uint256"
        }
      ],
      "name": "transferFrom",
      "outputs": [
        {
          "name": "",
          "type": "bool"
        }
      ],
      "payable": false,
      "stateMutability": "nonpayable",
      "type": "function"
    },
    {
      "constant": false,
      "inputs": [
        {
          "name": "value",
          "type": "uint256"
        }
      ],
      "name": "upgrade",
      "outputs": [],
      "payable": false,
      "stateMutability": "nonpayable",
      "type": "function"
    },
    {
      "constant": true,
      "inputs": [],
      "name": "upgradeAgent",
      "outputs": [
        {
          "name": "",
          "type": "address"
        }
      ],
      "payable": false,
      "stateMutability": "view",
      "type": "function"
    },
    {
      "constant": true,
      "inputs": [],
      "name": "upgradeMaster",
      "outputs": [
        {
          "name": "",
          "type": "address"
        }
      ],
      "payable": false,
      "stateMutability": "view",
      "type": "function"
    },
    {
      "constant": false,
      "inputs": [
        {
          "name": "_spender",
          "type": "address"
        },
        {
          "name": "_subtractedValue",
          "type": "uint256"
        }
      ],
      "name": "decreaseApproval",
      "outputs": [
        {
          "name": "success",
          "type": "bool"
        }
      ],
      "payable": false,
      "stateMutability": "nonpayable",
      "type": "function"
    },
    {
      "constant": true,
      "inputs": [
        {
          "name": "_owner",
          "type": "address"
        }
      ],
      "name": "balanceOf",
      "outputs": [
        {
          "name": "balance",
          "type": "uint256"
        }
      ],
      "payable": false,
      "stateMutability": "view",
      "type": "function"
    },
    {
      "constant": true,
      "inputs": [],
      "name": "getUpgradeState",
      "outputs": [
        {
          "name": "",
          "type": "uint8"
        }
      ],
      "payable": false,
      "stateMutability": "view",
      "type": "function"
    },
    {
      "constant": true,
      "inputs": [],
      "name": "canUpgrade",
      "outputs": [
        {
          "name": "",
          "type": "bool"
        }
      ],
      "payable": false,
      "stateMutability": "pure",
      "type": "function"
    },
    {
      "constant": false,
      "inputs": [
        {
          "name": "_to",
          "type": "address"
        },
        {
          "name": "_value",
          "type": "uint256"
        }
      ],
      "name": "transfer",
      "outputs": [
        {
          "name": "",
          "type": "bool"
        }
      ],
      "payable": false,
      "stateMutability": "nonpayable",
      "type": "function"
    },
    {
      "constant": true,
      "inputs": [],
      "name": "totalUpgraded",
      "outputs": [
        {
          "name": "",
          "type": "uint256"
        }
      ],
      "payable": false,
      "stateMutability": "view",
      "type": "function"
    },
    {
      "constant": false,
      "inputs": [
        {
          "name": "_spender",
          "type": "address"
        },
        {
          "name": "_addedValue",
          "type": "uint256"
        }
      ],
      "name": "increaseApproval",
      "outputs": [
        {
          "name": "success",
          "type": "bool"
        }
      ],
      "payable": false,
      "stateMutability": "nonpayable",
      "type": "function"
    },
    {
      "constant": false,
      "inputs": [
        {
          "name": "agent",
          "type": "address"
        }
      ],
      "name": "setUpgradeAgent",
      "outputs": [],
      "payable": false,
      "stateMutability": "nonpayable",
      "type": "function"
    },
    {
      "constant": true,
      "inputs": [
        {
          "name": "_owner",
          "type": "address"
        },
        {
          "name": "_spender",
          "type": "address"
        }
      ],
      "name": "allowance",
      "outputs": [
        {
          "name": "remaining",
          "type": "uint256"
        }
      ],
      "payable": false,
      "stateMutability": "view",
      "type": "function"
    },
    {
      "constant": false,
      "inputs": [
        {
          "name": "master",
          "type": "address"
        }
      ],
      "name": "setUpgradeMaster",
      "outputs": [],
      "payable": false,
      "stateMutability": "nonpayable",
      "type": "function"
    },
    {
      "inputs": [
        {
          "name": "_upgradeMaster",
          "type": "address"
        }
      ],
      "payable": false,
      "stateMutability": "nonpayable",
      "type": "constructor"
    },
    {
      "anonymous": false,
      "inputs": [
        {
          "indexed": true,
          "name": "_from",
          "type": "address"
        },
        {
          "indexed": true,
          "name": "_to",
          "type": "address"
        },
        {
          "indexed": false,
          "name": "_value",
          "type": "uint256"
        }
      ],
      "name": "Upgrade",
      "type": "event"
    },
    {
      "anonymous": false,
      "inputs": [
        {
          "indexed": false,
          "name": "agent",
          "type": "address"
        }
      ],
      "name": "UpgradeAgentSet",
      "type": "event"
    },
    {
      "anonymous": false,
      "inputs": [
        {
          "indexed": false,
          "name": "upgradeMaster",
          "type": "address"
        }
      ],
      "name": "NewUpgradeMaster",
      "type": "event"
    },
    {
      "anonymous": false,
      "inputs": [
        {
          "indexed": true,
          "name": "owner",
          "type": "address"
        },
        {
          "indexed": true,
          "name": "spender",
          "type": "address"
        },
        {
          "indexed": false,
          "name": "value",
          "type": "uint256"
        }
      ],
      "name": "Approval",
      "type": "event"
    },
    {
      "anonymous": false,
      "inputs": [
        {
          "indexed": true,
          "name": "from",
          "type": "address"
        },
        {
          "indexed": true,
          "name": "to",
          "type": "address"
        },
        {
          "indexed": false,
          "name": "value",
          "type": "uint256"
        }
      ],
      "name": "Transfer",
      "type": "event"
    }
  ],
  "bytecode": "0x6060604052341561000f57600080fd5b604051602080610c648339810160405280805160038054600160a060020a031916600160a060020a0383811691909117918290559193507f41215aff8c294dab52583f38146756951783ca3d8b887e22e03f4b276d02606c925016604051600160a060020a03909116815260200160405180910390a150610bcf806100956000396000f3006060604052600436106100cc5763ffffffff60e060020a600035041663095ea7b381146100d157806318160ddd1461010757806323b872dd1461012c57806345977d03146101545780635de4ccb01461016c578063600440cb1461019b57806366188463146101ae57806370a08231146101d05780638444b391146101ef5780639738968c14610226578063a9059cbb14610239578063c752ff621461025b578063d73dd6231461026e578063d7e7088a14610290578063dd62ed3e146102af578063ffeb7d75146102d4575b600080fd5b34156100dc57600080fd5b6100f3600160a060020a03600435166024356102f3565b604051901515815260200160405180910390f35b341561011257600080fd5b61011a61035f565b60405190815260200160405180910390f35b341561013757600080fd5b6100f3600160a060020a0360043581169060243516604435610365565b341561015f57600080fd5b61016a60043561048f565b005b341561017757600080fd5b61017f6105f8565b604051600160a060020a03909116815260200160405180910390f35b34156101a657600080fd5b61017f610607565b34156101b957600080fd5b6100f3600160a060020a0360043516602435610616565b34156101db57600080fd5b61011a600160a060020a0360043516610710565b34156101fa57600080fd5b61020261072b565b6040518082600481111561021257fe5b60ff16815260200191505060405180910390f35b341561023157600080fd5b6100f3610775565b341561024457600080fd5b6100f3600160a060020a036004351660243561077a565b341561026657600080fd5b61011a610850565b341561027957600080fd5b6100f3600160a060020a0360043516602435610856565b341561029b57600080fd5b61016a600160a060020a03600435166108fa565b34156102ba57600080fd5b61011a600160a060020a0360043581169060243516610ab1565b34156102df57600080fd5b61016a600160a060020a0360043516610adc565b600160a060020a03338116600081815260026020908152604080832094871680845294909152808220859055909291907f8c5be1e5ebec7d5bd14f71427d1e84f3dd0314c0f7b2291e5b200ac8c7c3b9259085905190815260200160405180910390a350600192915050565b60005481565b600080600160a060020a038416151561037d57600080fd5b50600160a060020a038085166000818152600260209081526040808320339095168352938152838220549282526001905291909120546103c3908463ffffffff610b7b16565b600160a060020a0380871660009081526001602052604080822093909355908616815220546103f8908463ffffffff610b8d16565b600160a060020a038516600090815260016020526040902055610421818463ffffffff610b7b16565b600160a060020a03808716600081815260026020908152604080832033861684529091529081902093909355908616917fddf252ad1be2c89b69c2b068fc378daa952ba7f163c4a11628f55a4df523b3ef9086905190815260200160405180910390a3506001949350505050565b600061049961072b565b905060038160048111156104a957fe5b14806104c0575060048160048111156104be57fe5b145b15156104cb57600080fd5b8115156104d757600080fd5b600160a060020a033316600090815260016020526040902054610500908363ffffffff610b7b16565b600160a060020a0333166000908152600160205260408120919091555461052d908363ffffffff610b7b16565b600055600554610543908363ffffffff610b8d16565b600555600454600160a060020a031663753e88e5338460405160e060020a63ffffffff8516028152600160a060020a0390921660048301526024820152604401600060405180830381600087803b151561059c57600080fd5b6102c65a03f115156105ad57600080fd5b5050600454600160a060020a03908116915033167f7e5c344a8141a805725cb476f76c6953b842222b967edd1f78ddb6e8b3f397ac8460405190815260200160405180910390a35050565b600454600160a060020a031681565b600354600160a060020a031681565b600160a060020a0333811660009081526002602090815260408083209386168352929052908120548083111561067357600160a060020a0333811660009081526002602090815260408083209388168352929052908120556106aa565b610683818463ffffffff610b7b16565b600160a060020a033381166000908152600260209081526040808320938916835292905220555b600160a060020a0333811660008181526002602090815260408083209489168084529490915290819020547f8c5be1e5ebec7d5bd14f71427d1e84f3dd0314c0f7b2291e5b200ac8c7c3b925915190815260200160405180910390a35060019392505050565b600160a060020a031660009081526001602052604090205490565b6000610735610775565b151561074357506001610772565b600454600160a060020a0316151561075d57506002610772565b600554151561076e57506003610772565b5060045b90565b600190565b6000600160a060020a038316151561079157600080fd5b600160a060020a0333166000908152600160205260409020546107ba908363ffffffff610b7b16565b600160a060020a0333811660009081526001602052604080822093909355908516815220546107ef908363ffffffff610b8d16565b600160a060020a0380851660008181526001602052604090819020939093559133909116907fddf252ad1be2c89b69c2b068fc378daa952ba7f163c4a11628f55a4df523b3ef9085905190815260200160405180910390a350600192915050565b60055481565b600160a060020a03338116600090815260026020908152604080832093861683529290529081205461088e908363ffffffff610b8d16565b600160a060020a0333811660008181526002602090815260408083209489168084529490915290819020849055919290917f8c5be1e5ebec7d5bd14f71427d1e84f3dd0314c0f7b2291e5b200ac8c7c3b92591905190815260200160405180910390a350600192915050565b610902610775565b151561090d57600080fd5b600160a060020a038116151561092257600080fd5b60035433600160a060020a0390811691161461093d57600080fd5b600461094761072b565b600481111561095257fe5b141561095d57600080fd5b6004805473ffffffffffffffffffffffffffffffffffffffff1916600160a060020a038381169190911791829055166361d3d7a66000604051602001526040518163ffffffff1660e060020a028152600401602060405180830381600087803b15156109c857600080fd5b6102c65a03f115156109d957600080fd5b5050506040518051905015156109ee57600080fd5b600080546004549091600160a060020a0390911690634b2ba0dd90604051602001526040518163ffffffff1660e060020a028152600401602060405180830381600087803b1515610a3e57600080fd5b6102c65a03f11515610a4f57600080fd5b50505060405180519050141515610a6557600080fd5b6004547f7845d5aa74cc410e35571258d954f23b82276e160fe8c188fa80566580f279cc90600160a060020a0316604051600160a060020a03909116815260200160405180910390a150565b600160a060020a03918216600090815260026020908152604080832093909416825291909152205490565b600160a060020a0381161515610af157600080fd5b60035433600160a060020a03908116911614610b0c57600080fd5b6003805473ffffffffffffffffffffffffffffffffffffffff1916600160a060020a0383811691909117918290557f41215aff8c294dab52583f38146756951783ca3d8b887e22e03f4b276d02606c9116604051600160a060020a03909116815260200160405180910390a150565b600082821115610b8757fe5b50900390565b600082820183811015610b9c57fe5b93925050505600a165627a7a72305820c16f03af08cd7eceeb84a981d996634f6a6ebbf5e9de1cfefc867ce258cd97870029",
  "source": "pragma solidity ^0.4.18;\n\nimport { ERC20Token } from './ERC20Token.sol';\nimport { SafeMath } from './utils/SafeMath.sol';\nimport { UpgradeAgent } from './interfaces/UpgradeAgent.sol';\n\n\n/**\n * A token upgrade mechanism where users can opt-in amount of tokens to the next smart contract revision.\n *\n * First envisioned by Golem and Lunyr projects.\n */\ncontract UpgradeableToken is ERC20Token {\n  using SafeMath for uint256;\n\n  /** Contract / person who can set the upgrade path. */\n  address public upgradeMaster;\n\n  /** The next contract where the tokens will be migrated. */\n  UpgradeAgent public upgradeAgent;\n\n  /** How many tokens we have upgraded by now. */\n  uint256 public totalUpgraded;\n\n  /**\n   * Upgrade states.\n   *\n   * - NotAllowed: The child contract has not reached a condition where the upgrade can bgun\n   * - WaitingForAgent: Token allows upgrade, but we don't have a new agent yet\n   * - ReadyToUpgrade: The agent is set, but not a single token has been upgraded yet\n   * - Upgrading: Upgrade agent is set and the balance holders can upgrade their tokens\n   *\n   */\n  enum UpgradeState {Unknown, NotAllowed, WaitingForAgent, ReadyToUpgrade, Upgrading}\n\n  /**\n   * Somebody has upgraded some of his tokens.\n   */\n  event Upgrade(address indexed _from, address indexed _to, uint256 _value);\n\n  /**\n   * New upgrade agent available.\n   */\n  event UpgradeAgentSet(address agent);\n\n  /**\n   * Upgrade master updated.\n   */\n  event NewUpgradeMaster(address upgradeMaster);\n\n  /**\n   * Do not allow construction without upgrade master set.\n   */\n  function UpgradeableToken(address _upgradeMaster) public {\n    upgradeMaster = _upgradeMaster;\n    NewUpgradeMaster(upgradeMaster);\n  }\n\n  /**\n   * Allow the token holder to upgrade some of their tokens to a new contract.\n   */\n  function upgrade(uint256 value) public {\n    UpgradeState state = getUpgradeState();\n    require(state == UpgradeState.ReadyToUpgrade || state == UpgradeState.Upgrading);\n    // Validate input value.\n    require(value != 0);\n\n    balances[msg.sender] = balances[msg.sender].sub(value);\n\n    // Take tokens out from circulation\n    totalSupply = totalSupply.sub(value);\n    totalUpgraded = totalUpgraded.add(value);\n\n    // Upgrade agent reissues the tokens\n    upgradeAgent.upgradeFrom(msg.sender, value);\n    Upgrade(msg.sender, upgradeAgent, value);\n  }\n\n  /**\n   * Set an upgrade agent that handles\n   */\n  function setUpgradeAgent(address agent) external {\n    require(canUpgrade());\n\n    require(agent != 0x0);\n    // Only a master can designate the next agent\n    require(msg.sender == upgradeMaster);\n    // Upgrade has already begun for an agent\n    require(getUpgradeState() != UpgradeState.Upgrading);\n\n    upgradeAgent = UpgradeAgent(agent);\n\n    // Bad interface\n    require(upgradeAgent.isUpgradeAgent());\n    // Make sure that token supplies match in source and target\n    require(upgradeAgent.originalSupply() == totalSupply);\n\n    UpgradeAgentSet(upgradeAgent);\n  }\n\n  /**\n   * Get the state of the token upgrade.\n   */\n  function getUpgradeState() public constant returns(UpgradeState) {\n    if (!canUpgrade()) {\n      return UpgradeState.NotAllowed;\n    } else if (address(upgradeAgent) == 0x00) {\n      return UpgradeState.WaitingForAgent;\n    } else if (totalUpgraded == 0) {\n      return UpgradeState.ReadyToUpgrade;\n    } else {\n      return UpgradeState.Upgrading;\n    }\n  }\n\n  /**\n   * Change the upgrade master.\n   *\n   * This allows us to set a new owner for the upgrade mechanism.\n   */\n  function setUpgradeMaster(address master) public {\n    require(master != 0x0);\n    require(msg.sender == upgradeMaster);\n    upgradeMaster = master;\n    NewUpgradeMaster(upgradeMaster);\n  }\n\n  /**\n   * Child contract can enable to provide the condition when the upgrade can begun.\n   */\n  function canUpgrade() public pure returns(bool) {\n    return true;\n  }\n}\n",
  "sourcePath": "/Users/diegobarahona/Documents/Projects/Knowleadge/knowledge-contracts/contracts/UpgradableToken.sol",
  "compiler": {
    "name": "solc",
    "version": "0.4.18+commit.9cf6e910.Emscripten.clang"
  },
  "schemaVersion": "1.0.1",
  "updatedAt": "2018-01-03T23:15:27.041Z"
}