{
  "contractName": "UpgradeableToken",
  "abi": [
    {
      "constant": true,
      "inputs": [
        {
          "name": "",
          "type": "uint256"
        }
      ],
      "name": "owners",
      "outputs": [
        {
          "name": "",
          "type": "address"
        }
      ],
      "payable": false,
      "stateMutability": "view",
      "type": "function"
    },
    {
      "constant": false,
      "inputs": [
        {
          "name": "_spender",
          "type": "address"
        },
        {
          "name": "_value",
          "type": "uint256"
        }
      ],
      "name": "approve",
      "outputs": [
        {
          "name": "",
          "type": "bool"
        }
      ],
      "payable": false,
      "stateMutability": "nonpayable",
      "type": "function"
    },
    {
      "constant": true,
      "inputs": [],
      "name": "totalSupply",
      "outputs": [
        {
          "name": "",
          "type": "uint256"
        }
      ],
      "payable": false,
      "stateMutability": "view",
      "type": "function"
    },
    {
      "constant": false,
      "inputs": [
        {
          "name": "_from",
          "type": "address"
        },
        {
          "name": "_to",
          "type": "address"
        },
        {
          "name": "_value",
          "type": "uint256"
        }
      ],
      "name": "transferFrom",
      "outputs": [
        {
          "name": "",
          "type": "bool"
        }
      ],
      "payable": false,
      "stateMutability": "nonpayable",
      "type": "function"
    },
    {
      "constant": false,
      "inputs": [
        {
          "name": "contractAddress",
          "type": "address"
        }
      ],
      "name": "setPrevContract",
      "outputs": [
        {
          "name": "",
          "type": "bool"
        }
      ],
      "payable": false,
      "stateMutability": "nonpayable",
      "type": "function"
    },
    {
      "constant": false,
      "inputs": [
        {
          "name": "contractAddress",
          "type": "address"
        }
      ],
      "name": "setNextContract",
      "outputs": [
        {
          "name": "",
          "type": "bool"
        }
      ],
      "payable": false,
      "stateMutability": "nonpayable",
      "type": "function"
    },
    {
      "constant": false,
      "inputs": [
        {
          "name": "_spender",
          "type": "address"
        },
        {
          "name": "_subtractedValue",
          "type": "uint256"
        }
      ],
      "name": "decreaseApproval",
      "outputs": [
        {
          "name": "success",
          "type": "bool"
        }
      ],
      "payable": false,
      "stateMutability": "nonpayable",
      "type": "function"
    },
    {
      "constant": false,
      "inputs": [
        {
          "name": "index",
          "type": "uint256"
        }
      ],
      "name": "removeOwner",
      "outputs": [],
      "payable": false,
      "stateMutability": "nonpayable",
      "type": "function"
    },
    {
      "constant": false,
      "inputs": [
        {
          "name": "newOwner",
          "type": "address"
        }
      ],
      "name": "addOwner",
      "outputs": [],
      "payable": false,
      "stateMutability": "nonpayable",
      "type": "function"
    },
    {
      "constant": true,
      "inputs": [
        {
          "name": "_owner",
          "type": "address"
        }
      ],
      "name": "balanceOf",
      "outputs": [
        {
          "name": "balance",
          "type": "uint256"
        }
      ],
      "payable": false,
      "stateMutability": "view",
      "type": "function"
    },
    {
      "constant": false,
      "inputs": [
        {
          "name": "holder",
          "type": "address"
        },
        {
          "name": "value",
          "type": "uint256"
        }
      ],
      "name": "upgradeFrom",
      "outputs": [
        {
          "name": "",
          "type": "bool"
        }
      ],
      "payable": false,
      "stateMutability": "nonpayable",
      "type": "function"
    },
    {
      "constant": false,
      "inputs": [
        {
          "name": "_to",
          "type": "address"
        },
        {
          "name": "_value",
          "type": "uint256"
        }
      ],
      "name": "transfer",
      "outputs": [
        {
          "name": "",
          "type": "bool"
        }
      ],
      "payable": false,
      "stateMutability": "nonpayable",
      "type": "function"
    },
    {
      "constant": true,
      "inputs": [],
      "name": "ownersCount",
      "outputs": [
        {
          "name": "",
          "type": "uint256"
        }
      ],
      "payable": false,
      "stateMutability": "view",
      "type": "function"
    },
    {
      "constant": false,
      "inputs": [],
      "name": "upgrade",
      "outputs": [
        {
          "name": "",
          "type": "bool"
        }
      ],
      "payable": false,
      "stateMutability": "nonpayable",
      "type": "function"
    },
    {
      "constant": false,
      "inputs": [
        {
          "name": "_spender",
          "type": "address"
        },
        {
          "name": "_addedValue",
          "type": "uint256"
        }
      ],
      "name": "increaseApproval",
      "outputs": [
        {
          "name": "success",
          "type": "bool"
        }
      ],
      "payable": false,
      "stateMutability": "nonpayable",
      "type": "function"
    },
    {
      "constant": true,
      "inputs": [],
      "name": "nextContract",
      "outputs": [
        {
          "name": "",
          "type": "address"
        }
      ],
      "payable": false,
      "stateMutability": "view",
      "type": "function"
    },
    {
      "constant": true,
      "inputs": [
        {
          "name": "_owner",
          "type": "address"
        },
        {
          "name": "_spender",
          "type": "address"
        }
      ],
      "name": "allowance",
      "outputs": [
        {
          "name": "remaining",
          "type": "uint256"
        }
      ],
      "payable": false,
      "stateMutability": "view",
      "type": "function"
    },
    {
      "constant": true,
      "inputs": [],
      "name": "prevContract",
      "outputs": [
        {
          "name": "",
          "type": "address"
        }
      ],
      "payable": false,
      "stateMutability": "view",
      "type": "function"
    },
    {
      "anonymous": false,
      "inputs": [
        {
          "indexed": true,
          "name": "_from",
          "type": "address"
        },
        {
          "indexed": true,
          "name": "_to",
          "type": "address"
        },
        {
          "indexed": false,
          "name": "_value",
          "type": "uint256"
        }
      ],
      "name": "Upgrade",
      "type": "event"
    },
    {
      "anonymous": false,
      "inputs": [
        {
          "indexed": true,
          "name": "_from",
          "type": "address"
        },
        {
          "indexed": true,
          "name": "_to",
          "type": "address"
        },
        {
          "indexed": false,
          "name": "_value",
          "type": "uint256"
        }
      ],
      "name": "UpgradeFrom",
      "type": "event"
    },
    {
      "anonymous": false,
      "inputs": [
        {
          "indexed": false,
          "name": "contractAddress",
          "type": "address"
        }
      ],
      "name": "NextContractSet",
      "type": "event"
    },
    {
      "anonymous": false,
      "inputs": [
        {
          "indexed": false,
          "name": "contractAddress",
          "type": "address"
        }
      ],
      "name": "PrevContractSet",
      "type": "event"
    },
    {
      "anonymous": false,
      "inputs": [
        {
          "indexed": true,
          "name": "authorizer",
          "type": "address"
        },
        {
          "indexed": true,
          "name": "newOwner",
          "type": "address"
        },
        {
          "indexed": false,
          "name": "index",
          "type": "uint256"
        }
      ],
      "name": "OwnerAdded",
      "type": "event"
    },
    {
      "anonymous": false,
      "inputs": [
        {
          "indexed": true,
          "name": "authorizer",
          "type": "address"
        },
        {
          "indexed": true,
          "name": "oldOwner",
          "type": "address"
        }
      ],
      "name": "OwnerRemoved",
      "type": "event"
    },
    {
      "anonymous": false,
      "inputs": [
        {
          "indexed": true,
          "name": "owner",
          "type": "address"
        },
        {
          "indexed": true,
          "name": "spender",
          "type": "address"
        },
        {
          "indexed": false,
          "name": "value",
          "type": "uint256"
        }
      ],
      "name": "Approval",
      "type": "event"
    },
    {
      "anonymous": false,
      "inputs": [
        {
          "indexed": true,
          "name": "from",
          "type": "address"
        },
        {
          "indexed": true,
          "name": "to",
          "type": "address"
        },
        {
          "indexed": false,
          "name": "value",
          "type": "uint256"
        }
      ],
      "name": "Transfer",
      "type": "event"
    }
  ],
  "bytecode": "0x606060405260038054600181016100168382610040565b5060009182526020909120018054600160a060020a03191633600160a060020a031617905561008a565b81548183558181151161006457600083815260209020610064918101908301610069565b505050565b61008791905b80821115610083576000815560010161006f565b5090565b90565b610f3f806100996000396000f3006060604052600436106100e25763ffffffff60e060020a600035041663025e7c2781146100e7578063095ea7b31461011957806318160ddd1461014f57806323b872dd14610174578063251139f61461019c57806353390100146101bb57806366188463146101da5780636b919488146101fc5780637065cb481461021457806370a0823114610233578063753e88e514610252578063a9059cbb14610274578063b948854614610296578063d55ec697146102a9578063d73dd623146102bc578063d8787fde146102de578063dd62ed3e146102f1578063e449de9f14610316575b600080fd5b34156100f257600080fd5b6100fd600435610329565b604051600160a060020a03909116815260200160405180910390f35b341561012457600080fd5b61013b600160a060020a0360043516602435610351565b604051901515815260200160405180910390f35b341561015a57600080fd5b6101626103bd565b60405190815260200160405180910390f35b341561017f57600080fd5b61013b600160a060020a03600435811690602435166044356103c3565b34156101a757600080fd5b61013b600160a060020a03600435166104db565b34156101c657600080fd5b61013b600160a060020a03600435166105bc565b34156101e557600080fd5b61013b600160a060020a0360043516602435610729565b341561020757600080fd5b610212600435610823565b005b341561021f57600080fd5b610212600160a060020a0360043516610987565b341561023e57600080fd5b610162600160a060020a0360043516610a7e565b341561025d57600080fd5b61013b600160a060020a0360043516602435610a99565b341561027f57600080fd5b61013b600160a060020a0360043516602435610b40565b34156102a157600080fd5b610162610c04565b34156102b457600080fd5b61013b610c0b565b34156102c757600080fd5b61013b600160a060020a0360043516602435610d9b565b34156102e957600080fd5b6100fd610e3f565b34156102fc57600080fd5b610162600160a060020a0360043581169060243516610e4e565b341561032157600080fd5b6100fd610e79565b600380548290811061033757fe5b600091825260209091200154600160a060020a0316905081565b600160a060020a03338116600081815260026020908152604080832094871680845294909152808220859055909291907f8c5be1e5ebec7d5bd14f71427d1e84f3dd0314c0f7b2291e5b200ac8c7c3b9259085905190815260200160405180910390a350600192915050565b60005481565b600080600160a060020a03841615156103db57600080fd5b50600160a060020a03808516600081815260026020908152604080832033909516835293815283822054928252600190529190912054610421908463ffffffff610e8816565b600160a060020a038087166000908152600160205260408082209390935590861681522054610456908463ffffffff610e9a16565b600160a060020a03851660009081526001602052604090205561047f818463ffffffff610e8816565b600160a060020a0380871660008181526002602090815260408083203386168452909152908190209390935590861691600080516020610ef48339815191529086905190815260200160405180910390a3506001949350505050565b600080805b6003548110156105255760038054829081106104f857fe5b60009182526020909120015433600160a060020a039081169116141561051d57600191505b6001016104e0565b81151561053157600080fd5b600160a060020a038416151561054657600080fd5b6005805473ffffffffffffffffffffffffffffffffffffffff1916600160a060020a0386811691909117918290557fe7a5dc59990bb8618337b754505c1711341b849d5402b3b8d79f7008c740b5029116604051600160a060020a03909116815260200160405180910390a15060019392505050565b600080805b6003548110156106065760038054829081106105d957fe5b60009182526020909120015433600160a060020a03908116911614156105fe57600191505b6001016105c1565b81151561061257600080fd5b600454600160a060020a03161561062857600080fd5b600160a060020a038416151561063d57600080fd5b6004805473ffffffffffffffffffffffffffffffffffffffff1916600160a060020a0386811691909117918290556000805492909116906318160ddd90604051602001526040518163ffffffff1660e060020a028152600401602060405180830381600087803b15156106af57600080fd5b6102c65a03f115156106c057600080fd5b505050604051805190501415156106d657600080fd5b6004547fd105ab7a234f12bc74c491e1ad967020fb520fc908446e4d8dd87f36dd24cda990600160a060020a0316604051600160a060020a03909116815260200160405180910390a15060019392505050565b600160a060020a0333811660009081526002602090815260408083209386168352929052908120548083111561078657600160a060020a0333811660009081526002602090815260408083209388168352929052908120556107bd565b610796818463ffffffff610e8816565b600160a060020a033381166000908152600260209081526040808320938916835292905220555b600160a060020a0333811660008181526002602090815260408083209489168084529490915290819020547f8c5be1e5ebec7d5bd14f71427d1e84f3dd0314c0f7b2291e5b200ac8c7c3b925915190815260200160405180910390a35060019392505050565b600080805b60035481101561086d57600380548290811061084057fe5b60009182526020909120015433600160a060020a039081169116141561086557600191505b600101610828565b81151561087957600080fd5b600380548590811061088757fe5b60009182526020909120015460038054600160a060020a0390921694509060001981019081106108b357fe5b60009182526020909120015460038054600160a060020a0390921691869081106108d957fe5b6000918252602090912001805473ffffffffffffffffffffffffffffffffffffffff1916600160a060020a039290921691909117905560038054600019810190811061092157fe5b6000918252602090912001805473ffffffffffffffffffffffffffffffffffffffff19169055600160a060020a038381169033167fe594d081b4382713733fe631966432c9cea5199afb2db5c3c1931f9f9300367960405160405180910390a350505050565b600080805b6003548110156109d15760038054829081106109a457fe5b60009182526020909120015433600160a060020a03908116911614156109c957600191505b60010161098c565b8115156109dd57600080fd5b600160a060020a03841615156109f257600080fd5b600160038054806001018281610a089190610eb0565b6000928352602090922001805473ffffffffffffffffffffffffffffffffffffffff1916600160a060020a0388811691821790925592909103945033167fa0b18fca933618876351ba2ef88bf4505c184d3e55064bec0d7fe236dd706d848560405190815260200160405180910390a350505050565b600160a060020a031660009081526001602052604090205490565b60055460009033600160a060020a03908116911614610ab757600080fd5b600160a060020a038316600081815260016020526040808220859055600080516020610ef48339815191529085905190815260200160405180910390a3600554600160a060020a0380851691167fafc7f3fa9b11b0da7624ad7f5a27e287d3a5eef414b5d7ac38996631ed80b89a8460405190815260200160405180910390a350600192915050565b6000600160a060020a0383161515610b5757600080fd5b600160a060020a033316600090815260016020526040902054610b80908363ffffffff610e8816565b600160a060020a033381166000908152600160205260408082209390935590851681522054610bb5908363ffffffff610e9a16565b600160a060020a038085166000818152600160205260409081902093909355913390911690600080516020610ef48339815191529085905190815260200160405180910390a350600192915050565b6003545b90565b6004546000908190600160a060020a03161515610c2757600080fd5b50600160a060020a033316600090815260016020526040812054908111610c4a57fe5b600160a060020a033316600090815260016020526040812081905554610c76908263ffffffff610e8816565b600090815533600160a060020a0316600080516020610ef48339815191528360405190815260200160405180910390a3600454600160a060020a031663753e88e5338360006040516020015260405160e060020a63ffffffff8516028152600160a060020a0390921660048301526024820152604401602060405180830381600087803b1515610d0557600080fd5b6102c65a03f11515610d1657600080fd5b50505060405180515050600454600160a060020a039081169033167f7e5c344a8141a805725cb476f76c6953b842222b967edd1f78ddb6e8b3f397ac8360405190815260200160405180910390a3600191506000541515610d9757600380546000908110610d8057fe5b600091825260209091200154600160a060020a0316ff5b5090565b600160a060020a033381166000908152600260209081526040808320938616835292905290812054610dd3908363ffffffff610e9a16565b600160a060020a0333811660008181526002602090815260408083209489168084529490915290819020849055919290917f8c5be1e5ebec7d5bd14f71427d1e84f3dd0314c0f7b2291e5b200ac8c7c3b92591905190815260200160405180910390a350600192915050565b600454600160a060020a031681565b600160a060020a03918216600090815260026020908152604080832093909416825291909152205490565b600554600160a060020a031681565b600082821115610e9457fe5b50900390565b600082820183811015610ea957fe5b9392505050565b815481835581811511610ed457600083815260209020610ed4918101908301610ed9565b505050565b610c0891905b80821115610d975760008155600101610edf5600ddf252ad1be2c89b69c2b068fc378daa952ba7f163c4a11628f55a4df523b3efa165627a7a7230582084fd3b6b54d9e6fe55fcce7de992cd3839c06fe6effead1c7cf1d0bbe5f27c1d0029",
  "source": "pragma solidity ^0.4.18;\n\nimport { Ownable } from './utils/Ownable.sol';\nimport { ERC20Token } from './ERC20Token.sol';\nimport { SafeMath } from './utils/SafeMath.sol';\n\n\n/**\n * A token upgrade mechanism where users can upgrade tokens\n * to the next smart contract revision.\n *\n * First envisioned by Golem and Lunyr projects.\n */\ncontract UpgradeableToken is ERC20Token, Ownable {\n  using SafeMath for uint256;\n\n  /** The next contract where the tokens will be migrated. */\n  UpgradeableToken public nextContract;\n\n  /** The contract from which we upgrade */\n  UpgradeableToken public prevContract;\n\n  /**\n   * Somebody has upgraded some of their tokens.\n   */\n  event Upgrade(address indexed _from, address indexed _to, uint256 _value);\n  event UpgradeFrom(address indexed _from, address indexed _to, uint256 _value);\n\n  /**\n   * Next contract available.\n   */\n  event NextContractSet(address contractAddress);\n\n  /**\n   * Previous contract available.\n   */\n  event PrevContractSet(address contractAddress);\n\n  modifier canUpgrade() {\n    require(address(nextContract) != 0x0);\n    _;\n  }\n\n  modifier notUpgrading() {\n    require(address(nextContract) == 0x0);\n    _;\n  }\n\n  modifier destroyIfEmpty() {\n    _;\n    if (totalSupply == 0) {\n      selfdestruct(owners[0]);\n    }\n  }\n\n  modifier fromPrevContract() {\n    require(msg.sender == address(prevContract));\n    _;\n  }\n\n  /**\n   * Upgrade the tokens from holder\n   */\n  function upgrade() canUpgrade destroyIfEmpty public returns (bool) {\n    uint256 value = balances[msg.sender];\n\n    assert(value > 0);\n\n    // Take tokens out from circulation\n    balances[msg.sender] = 0;\n    totalSupply = totalSupply.sub(value);\n    Transfer(msg.sender, address(0), value);\n\n    // Upgrade contract reissues the tokens\n    nextContract.upgradeFrom(msg.sender, value);\n    Upgrade(msg.sender, address(nextContract), value);\n\n    return true;\n  }\n\n  function upgradeFrom(address holder, uint256 value) fromPrevContract public returns (bool) {\n    balances[holder] = value;\n    Transfer(address(0), holder, value);\n    UpgradeFrom(address(prevContract), holder, value);\n\n    return true;\n  }\n\n  /**\n   * Set an upgrade contract that handles the migration\n   */\n  function setNextContract(address contractAddress) onlyOwner notUpgrading public returns (bool) {\n    require(contractAddress != 0x0);\n    nextContract = UpgradeableToken(contractAddress);\n\n    // Make sure that token supplies match\n    require(nextContract.totalSupply() == totalSupply);\n\n    NextContractSet(nextContract);\n\n    return true;\n  }\n\n  function setPrevContract(address contractAddress) onlyOwner public returns (bool) {\n    require(contractAddress != 0x0);\n    prevContract = UpgradeableToken(contractAddress);\n\n    PrevContractSet(prevContract);\n\n    return true;\n  }\n}\n",
  "sourcePath": "/Users/diegobarahona/Documents/Projects/Knowledge/knowledge-contracts/contracts/UpgradableToken.sol",
  "compiler": {
    "name": "solc",
    "version": "0.4.18+commit.9cf6e910.Emscripten.clang"
  },
  "schemaVersion": "1.0.1",
  "updatedAt": "2018-01-30T06:15:43.076Z"
}