{
  "contractName": "Upgradable",
  "abi": [
    {
      "constant": true,
      "inputs": [
        {
          "name": "",
          "type": "uint256"
        }
      ],
      "name": "owners",
      "outputs": [
        {
          "name": "",
          "type": "address"
        }
      ],
      "payable": false,
      "stateMutability": "view",
      "type": "function"
    },
    {
      "constant": true,
      "inputs": [],
      "name": "implementation",
      "outputs": [
        {
          "name": "",
          "type": "address"
        }
      ],
      "payable": false,
      "stateMutability": "view",
      "type": "function"
    },
    {
      "constant": false,
      "inputs": [
        {
          "name": "index",
          "type": "uint256"
        }
      ],
      "name": "removeOwner",
      "outputs": [],
      "payable": false,
      "stateMutability": "nonpayable",
      "type": "function"
    },
    {
      "constant": false,
      "inputs": [
        {
          "name": "newOwner",
          "type": "address"
        }
      ],
      "name": "addOwner",
      "outputs": [],
      "payable": false,
      "stateMutability": "nonpayable",
      "type": "function"
    },
    {
      "constant": false,
      "inputs": [],
      "name": "initialize",
      "outputs": [],
      "payable": true,
      "stateMutability": "payable",
      "type": "function"
    },
    {
      "constant": true,
      "inputs": [],
      "name": "ownersCount",
      "outputs": [
        {
          "name": "",
          "type": "uint256"
        }
      ],
      "payable": false,
      "stateMutability": "view",
      "type": "function"
    },
    {
      "anonymous": false,
      "inputs": [
        {
          "indexed": false,
          "name": "implementation",
          "type": "address"
        }
      ],
      "name": "NewImplementation",
      "type": "event"
    },
    {
      "anonymous": false,
      "inputs": [
        {
          "indexed": true,
          "name": "authorizer",
          "type": "address"
        },
        {
          "indexed": true,
          "name": "newOwner",
          "type": "address"
        },
        {
          "indexed": false,
          "name": "index",
          "type": "uint256"
        }
      ],
      "name": "OwnerAdded",
      "type": "event"
    },
    {
      "anonymous": false,
      "inputs": [
        {
          "indexed": true,
          "name": "authorizer",
          "type": "address"
        },
        {
          "indexed": true,
          "name": "oldOwner",
          "type": "address"
        }
      ],
      "name": "OwnerRemoved",
      "type": "event"
    }
  ],
  "bytecode": "0x606060405260008054600181016100168382610076565b50600091825260208220018054600160a060020a03191633600160a060020a0316908117909155907fa0b18fca933618876351ba2ef88bf4505c184d3e55064bec0d7fe236dd706d848160405190815260200160405180910390a36100c0565b81548183558181151161009a5760008381526020902061009a91810190830161009f565b505050565b6100bd91905b808211156100b957600081556001016100a5565b5090565b90565b610433806100cf6000396000f3006060604052600436106100775763ffffffff7c0100000000000000000000000000000000000000000000000000000000600035041663025e7c27811461007c5780635c60da1b146100ae5780636b919488146100c15780637065cb48146100d95780638129fc1c146100f8578063b948854614610100575b600080fd5b341561008757600080fd5b610092600435610125565b604051600160a060020a03909116815260200160405180910390f35b34156100b957600080fd5b61009261014d565b34156100cc57600080fd5b6100d760043561015d565b005b34156100e457600080fd5b6100d7600160a060020a03600435166102bd565b6100d76103b8565b341561010b57600080fd5b6101136103ba565b60405190815260200160405180910390f35b600080548290811061013357fe5b600091825260209091200154600160a060020a0316905081565b600154600160a060020a03165b90565b600080805b6000548110156101ab57600080548290811061017a57fe5b60009182526020909120015433600160a060020a03908116911614156101a357600191506101ab565b600101610162565b8115156101b757600080fd5b60008054859081106101c557fe5b60009182526020822001548154600160a060020a03909116945060001981019081106101ed57fe5b60009182526020822001548154600160a060020a0390911691908690811061021157fe5b60009182526020822001805473ffffffffffffffffffffffffffffffffffffffff1916600160a060020a0393909316929092179091558054600019810190811061025757fe5b6000918252602090912001805473ffffffffffffffffffffffffffffffffffffffff19169055600160a060020a038381169033167fe594d081b4382713733fe631966432c9cea5199afb2db5c3c1931f9f9300367960405160405180910390a350505050565b600080805b60005481101561030b5760008054829081106102da57fe5b60009182526020909120015433600160a060020a0390811691161415610303576001915061030b565b6001016102c2565b81151561031757600080fd5b600160a060020a038416151561032c57600080fd5b60016000805480600101828161034291906103c0565b6000928352602090922001805473ffffffffffffffffffffffffffffffffffffffff1916600160a060020a0388811691821790925592909103945033167fa0b18fca933618876351ba2ef88bf4505c184d3e55064bec0d7fe236dd706d848560405190815260200160405180910390a350505050565b565b60005490565b8154818355818115116103e4576000838152602090206103e49181019083016103e9565b505050565b61015a91905b8082111561040357600081556001016103ef565b50905600a165627a7a723058206697ac2fd465f7aa040fe6ef10a6ff71931fdd8624427d3f28d5d620b9b8a7cd0029",
  "source": "pragma solidity ^0.4.18;\n\nimport { UpgradableStorage } from './UpgradableStorage.sol';\n\n\n/**\n * @title Upgradable\n * @dev This contract represents an upgradable contract\n */\ncontract Upgradable is UpgradableStorage {\n  function initialize() public payable { }\n}\n",
  "sourcePath": "/Users/diegobarahona/Documents/Projects/Knowledge/knowledge-contracts/contracts/utils/Upgradable.sol",
  "compiler": {
    "name": "solc",
    "version": "0.4.18+commit.9cf6e910.Emscripten.clang"
  },
  "schemaVersion": "1.0.1",
  "updatedAt": "2018-03-17T21:54:58.382Z"
}