{
  "contractName": "UpgradeableToken",
  "abi": [
    {
      "constant": false,
      "inputs": [
        {
          "name": "_spender",
          "type": "address"
        },
        {
          "name": "_value",
          "type": "uint256"
        }
      ],
      "name": "approve",
      "outputs": [
        {
          "name": "",
          "type": "bool"
        }
      ],
      "payable": false,
      "stateMutability": "nonpayable",
      "type": "function"
    },
    {
      "constant": true,
      "inputs": [],
      "name": "totalSupply",
      "outputs": [
        {
          "name": "",
          "type": "uint256"
        }
      ],
      "payable": false,
      "stateMutability": "view",
      "type": "function"
    },
    {
      "constant": false,
      "inputs": [
        {
          "name": "_from",
          "type": "address"
        },
        {
          "name": "_to",
          "type": "address"
        },
        {
          "name": "_value",
          "type": "uint256"
        }
      ],
      "name": "transferFrom",
      "outputs": [
        {
          "name": "",
          "type": "bool"
        }
      ],
      "payable": false,
      "stateMutability": "nonpayable",
      "type": "function"
    },
    {
      "constant": false,
      "inputs": [
        {
          "name": "contractAddress",
          "type": "address"
        }
      ],
      "name": "setPrevContract",
      "outputs": [
        {
          "name": "",
          "type": "bool"
        }
      ],
      "payable": false,
      "stateMutability": "nonpayable",
      "type": "function"
    },
    {
      "constant": false,
      "inputs": [
        {
          "name": "contractAddress",
          "type": "address"
        }
      ],
      "name": "setNextContract",
      "outputs": [
        {
          "name": "",
          "type": "bool"
        }
      ],
      "payable": false,
      "stateMutability": "nonpayable",
      "type": "function"
    },
    {
      "constant": false,
      "inputs": [
        {
          "name": "_spender",
          "type": "address"
        },
        {
          "name": "_subtractedValue",
          "type": "uint256"
        }
      ],
      "name": "decreaseApproval",
      "outputs": [
        {
          "name": "success",
          "type": "bool"
        }
      ],
      "payable": false,
      "stateMutability": "nonpayable",
      "type": "function"
    },
    {
      "constant": true,
      "inputs": [
        {
          "name": "_owner",
          "type": "address"
        }
      ],
      "name": "balanceOf",
      "outputs": [
        {
          "name": "balance",
          "type": "uint256"
        }
      ],
      "payable": false,
      "stateMutability": "view",
      "type": "function"
    },
    {
      "constant": false,
      "inputs": [
        {
          "name": "holder",
          "type": "address"
        },
        {
          "name": "value",
          "type": "uint256"
        }
      ],
      "name": "upgradeFrom",
      "outputs": [
        {
          "name": "",
          "type": "bool"
        }
      ],
      "payable": false,
      "stateMutability": "nonpayable",
      "type": "function"
    },
    {
      "constant": true,
      "inputs": [],
      "name": "owner",
      "outputs": [
        {
          "name": "",
          "type": "address"
        }
      ],
      "payable": false,
      "stateMutability": "view",
      "type": "function"
    },
    {
      "constant": false,
      "inputs": [
        {
          "name": "_to",
          "type": "address"
        },
        {
          "name": "_value",
          "type": "uint256"
        }
      ],
      "name": "transfer",
      "outputs": [
        {
          "name": "",
          "type": "bool"
        }
      ],
      "payable": false,
      "stateMutability": "nonpayable",
      "type": "function"
    },
    {
      "constant": false,
      "inputs": [],
      "name": "upgrade",
      "outputs": [
        {
          "name": "",
          "type": "bool"
        }
      ],
      "payable": false,
      "stateMutability": "nonpayable",
      "type": "function"
    },
    {
      "constant": false,
      "inputs": [
        {
          "name": "_spender",
          "type": "address"
        },
        {
          "name": "_addedValue",
          "type": "uint256"
        }
      ],
      "name": "increaseApproval",
      "outputs": [
        {
          "name": "success",
          "type": "bool"
        }
      ],
      "payable": false,
      "stateMutability": "nonpayable",
      "type": "function"
    },
    {
      "constant": true,
      "inputs": [],
      "name": "nextContract",
      "outputs": [
        {
          "name": "",
          "type": "address"
        }
      ],
      "payable": false,
      "stateMutability": "view",
      "type": "function"
    },
    {
      "constant": true,
      "inputs": [
        {
          "name": "_owner",
          "type": "address"
        },
        {
          "name": "_spender",
          "type": "address"
        }
      ],
      "name": "allowance",
      "outputs": [
        {
          "name": "remaining",
          "type": "uint256"
        }
      ],
      "payable": false,
      "stateMutability": "view",
      "type": "function"
    },
    {
      "constant": true,
      "inputs": [],
      "name": "prevContract",
      "outputs": [
        {
          "name": "",
          "type": "address"
        }
      ],
      "payable": false,
      "stateMutability": "view",
      "type": "function"
    },
    {
      "constant": false,
      "inputs": [
        {
          "name": "newOwner",
          "type": "address"
        }
      ],
      "name": "transferOwnership",
      "outputs": [],
      "payable": false,
      "stateMutability": "nonpayable",
      "type": "function"
    },
    {
      "anonymous": false,
      "inputs": [
        {
          "indexed": true,
          "name": "_from",
          "type": "address"
        },
        {
          "indexed": true,
          "name": "_to",
          "type": "address"
        },
        {
          "indexed": false,
          "name": "_value",
          "type": "uint256"
        }
      ],
      "name": "Upgrade",
      "type": "event"
    },
    {
      "anonymous": false,
      "inputs": [
        {
          "indexed": true,
          "name": "_from",
          "type": "address"
        },
        {
          "indexed": true,
          "name": "_to",
          "type": "address"
        },
        {
          "indexed": false,
          "name": "_value",
          "type": "uint256"
        }
      ],
      "name": "UpgradeFrom",
      "type": "event"
    },
    {
      "anonymous": false,
      "inputs": [
        {
          "indexed": false,
          "name": "contractAddress",
          "type": "address"
        }
      ],
      "name": "NextContractSet",
      "type": "event"
    },
    {
      "anonymous": false,
      "inputs": [
        {
          "indexed": false,
          "name": "contractAddress",
          "type": "address"
        }
      ],
      "name": "PrevContractSet",
      "type": "event"
    },
    {
      "anonymous": false,
      "inputs": [
        {
          "indexed": true,
          "name": "previousOwner",
          "type": "address"
        },
        {
          "indexed": true,
          "name": "newOwner",
          "type": "address"
        }
      ],
      "name": "OwnershipTransferred",
      "type": "event"
    },
    {
      "anonymous": false,
      "inputs": [
        {
          "indexed": true,
          "name": "owner",
          "type": "address"
        },
        {
          "indexed": true,
          "name": "spender",
          "type": "address"
        },
        {
          "indexed": false,
          "name": "value",
          "type": "uint256"
        }
      ],
      "name": "Approval",
      "type": "event"
    },
    {
      "anonymous": false,
      "inputs": [
        {
          "indexed": true,
          "name": "from",
          "type": "address"
        },
        {
          "indexed": true,
          "name": "to",
          "type": "address"
        },
        {
          "indexed": false,
          "name": "value",
          "type": "uint256"
        }
      ],
      "name": "Transfer",
      "type": "event"
    }
  ],
  "bytecode": "0x606060405260038054600160a060020a03191633600160a060020a0316179055610c048061002e6000396000f3006060604052600436106100cc5763ffffffff60e060020a600035041663095ea7b381146100d157806318160ddd1461010757806323b872dd1461012c578063251139f6146101545780635339010014610173578063661884631461019257806370a08231146101b4578063753e88e5146101d35780638da5cb5b146101f5578063a9059cbb14610224578063d55ec69714610246578063d73dd62314610259578063d8787fde1461027b578063dd62ed3e1461028e578063e449de9f146102b3578063f2fde38b146102c6575b600080fd5b34156100dc57600080fd5b6100f3600160a060020a03600435166024356102e7565b604051901515815260200160405180910390f35b341561011257600080fd5b61011a610353565b60405190815260200160405180910390f35b341561013757600080fd5b6100f3600160a060020a0360043581169060243516604435610359565b341561015f57600080fd5b6100f3600160a060020a0360043516610483565b341561017e57600080fd5b6100f3600160a060020a036004351661052a565b341561019d57600080fd5b6100f3600160a060020a036004351660243561065d565b34156101bf57600080fd5b61011a600160a060020a0360043516610757565b34156101de57600080fd5b6100f3600160a060020a0360043516602435610772565b341561020057600080fd5b6102086107f4565b604051600160a060020a03909116815260200160405180910390f35b341561022f57600080fd5b6100f3600160a060020a0360043516602435610803565b341561025157600080fd5b6100f36108d9565b341561026457600080fd5b6100f3600160a060020a0360043516602435610a28565b341561028657600080fd5b610208610acc565b341561029957600080fd5b61011a600160a060020a0360043581169060243516610adb565b34156102be57600080fd5b610208610b06565b34156102d157600080fd5b6102e5600160a060020a0360043516610b15565b005b600160a060020a03338116600081815260026020908152604080832094871680845294909152808220859055909291907f8c5be1e5ebec7d5bd14f71427d1e84f3dd0314c0f7b2291e5b200ac8c7c3b9259085905190815260200160405180910390a350600192915050565b60005481565b600080600160a060020a038416151561037157600080fd5b50600160a060020a038085166000818152600260209081526040808320339095168352938152838220549282526001905291909120546103b7908463ffffffff610bb016565b600160a060020a0380871660009081526001602052604080822093909355908616815220546103ec908463ffffffff610bc216565b600160a060020a038516600090815260016020526040902055610415818463ffffffff610bb016565b600160a060020a03808716600081815260026020908152604080832033861684529091529081902093909355908616917fddf252ad1be2c89b69c2b068fc378daa952ba7f163c4a11628f55a4df523b3ef9086905190815260200160405180910390a3506001949350505050565b60035460009033600160a060020a039081169116146104a157600080fd5b600160a060020a03821615156104b657600080fd5b6005805473ffffffffffffffffffffffffffffffffffffffff1916600160a060020a0384811691909117918290557fe7a5dc59990bb8618337b754505c1711341b849d5402b3b8d79f7008c740b5029116604051600160a060020a03909116815260200160405180910390a1506001919050565b60035460009033600160a060020a0390811691161461054857600080fd5b600454600160a060020a03161561055e57600080fd5b600160a060020a038216151561057357600080fd5b6004805473ffffffffffffffffffffffffffffffffffffffff1916600160a060020a0384811691909117918290556000805492909116906318160ddd90604051602001526040518163ffffffff1660e060020a028152600401602060405180830381600087803b15156105e557600080fd5b6102c65a03f115156105f657600080fd5b5050506040518051905014151561060c57600080fd5b6004547fd105ab7a234f12bc74c491e1ad967020fb520fc908446e4d8dd87f36dd24cda990600160a060020a0316604051600160a060020a03909116815260200160405180910390a1506001919050565b600160a060020a033381166000908152600260209081526040808320938616835292905290812054808311156106ba57600160a060020a0333811660009081526002602090815260408083209388168352929052908120556106f1565b6106ca818463ffffffff610bb016565b600160a060020a033381166000908152600260209081526040808320938916835292905220555b600160a060020a0333811660008181526002602090815260408083209489168084529490915290819020547f8c5be1e5ebec7d5bd14f71427d1e84f3dd0314c0f7b2291e5b200ac8c7c3b925915190815260200160405180910390a35060019392505050565b600160a060020a031660009081526001602052604090205490565b60055460009033600160a060020a0390811691161461079057600080fd5b600160a060020a0380841660008181526001602052604090819020859055600554919291909116907fafc7f3fa9b11b0da7624ad7f5a27e287d3a5eef414b5d7ac38996631ed80b89a9085905190815260200160405180910390a350600192915050565b600354600160a060020a031681565b6000600160a060020a038316151561081a57600080fd5b600160a060020a033316600090815260016020526040902054610843908363ffffffff610bb016565b600160a060020a033381166000908152600160205260408082209390935590851681522054610878908363ffffffff610bc216565b600160a060020a0380851660008181526001602052604090819020939093559133909116907fddf252ad1be2c89b69c2b068fc378daa952ba7f163c4a11628f55a4df523b3ef9085905190815260200160405180910390a350600192915050565b6004546000908190600160a060020a031615156108f557600080fd5b50600160a060020a03331660009081526001602052604081205490811161091857fe5b600160a060020a033316600090815260016020526040812081905554610944908263ffffffff610bb016565b6000908155600454600160a060020a03169063753e88e590339084906040516020015260405160e060020a63ffffffff8516028152600160a060020a0390921660048301526024820152604401602060405180830381600087803b15156109aa57600080fd5b6102c65a03f115156109bb57600080fd5b50505060405180515050600454600160a060020a039081169033167f7e5c344a8141a805725cb476f76c6953b842222b967edd1f78ddb6e8b3f397ac8360405190815260200160405180910390a3600191506000541515610a2457600354600160a060020a0316ff5b5090565b600160a060020a033381166000908152600260209081526040808320938616835292905290812054610a60908363ffffffff610bc216565b600160a060020a0333811660008181526002602090815260408083209489168084529490915290819020849055919290917f8c5be1e5ebec7d5bd14f71427d1e84f3dd0314c0f7b2291e5b200ac8c7c3b92591905190815260200160405180910390a350600192915050565b600454600160a060020a031681565b600160a060020a03918216600090815260026020908152604080832093909416825291909152205490565b600554600160a060020a031681565b60035433600160a060020a03908116911614610b3057600080fd5b600160a060020a0381161515610b4557600080fd5b600354600160a060020a0380831691167f8be0079c531659141344cd1fd0a4f28419497f9722a3daafe3b4186f6b6457e060405160405180910390a36003805473ffffffffffffffffffffffffffffffffffffffff1916600160a060020a0392909216919091179055565b600082821115610bbc57fe5b50900390565b600082820183811015610bd157fe5b93925050505600a165627a7a72305820318053432398bf8ee9467c7335eec315936da87cdd1d675809434492f7b7ca260029",
  "source": "pragma solidity ^0.4.18;\n\nimport { Ownable } from './utils/Ownable.sol';\nimport { ERC20Token } from './ERC20Token.sol';\nimport { SafeMath } from './utils/SafeMath.sol';\n\n\n/**\n * A token upgrade mechanism where users can upgrade tokens\n * to the next smart contract revision.\n *\n * First envisioned by Golem and Lunyr projects.\n */\ncontract UpgradeableToken is ERC20Token, Ownable {\n  using SafeMath for uint256;\n\n  /** The next contract where the tokens will be migrated. */\n  UpgradeableToken public nextContract;\n\n  /** The contract from which we upgrade */\n  UpgradeableToken public prevContract;\n\n  /**\n   * Somebody has upgraded some of their tokens.\n   */\n  event Upgrade(address indexed _from, address indexed _to, uint256 _value);\n  event UpgradeFrom(address indexed _from, address indexed _to, uint256 _value);\n\n  /**\n   * Next contract available.\n   */\n  event NextContractSet(address contractAddress);\n\n  /**\n   * Previous contract available.\n   */\n  event PrevContractSet(address contractAddress);\n\n  modifier canUpgrade() {\n    require(address(nextContract) != 0x0);\n    _;\n  }\n\n  modifier notUpgrading() {\n    require(address(nextContract) == 0x0);\n    _;\n  }\n\n  modifier destroyIfEmpty() {\n    _;\n    if (totalSupply == 0) {\n      selfdestruct(owner);\n    }\n  }\n\n  modifier fromPrevContract() {\n    require(msg.sender == address(prevContract));\n    _;\n  }\n\n  /**\n   * Upgrade the tokens from holder\n   */\n  function upgrade() canUpgrade destroyIfEmpty public returns (bool) {\n    uint256 value = balances[msg.sender];\n\n    assert(value > 0);\n\n    // Take tokens out from circulation\n    balances[msg.sender] = 0;\n    totalSupply = totalSupply.sub(value);\n\n    // Upgrade contract reissues the tokens\n    nextContract.upgradeFrom(msg.sender, value);\n    Upgrade(msg.sender, address(nextContract), value);\n\n    return true;\n  }\n\n  function upgradeFrom(address holder, uint256 value) fromPrevContract public returns (bool) {\n    balances[holder] = value;\n    UpgradeFrom(address(prevContract), holder, value);\n\n    return true;\n  }\n\n  /**\n   * Set an upgrade contract that handles the migration\n   */\n  function setNextContract(address contractAddress) onlyOwner notUpgrading public returns (bool) {\n    require(contractAddress != 0x0);\n    nextContract = UpgradeableToken(contractAddress);\n\n    // Make sure that token supplies match\n    require(nextContract.totalSupply() == totalSupply);\n\n    NextContractSet(nextContract);\n\n    return true;\n  }\n\n  function setPrevContract(address contractAddress) onlyOwner public returns (bool) {\n    require(contractAddress != 0x0);\n    prevContract = UpgradeableToken(contractAddress);\n\n    PrevContractSet(prevContract);\n\n    return true;\n  }\n}\n",
  "sourcePath": "/Users/diegobarahona/Documents/Projects/Knowledge/knowledge-contracts/contracts/UpgradableToken.sol",
  "compiler": {
    "name": "solc",
    "version": "0.4.18+commit.9cf6e910.Emscripten.clang"
  },
  "schemaVersion": "1.0.1",
  "updatedAt": "2018-01-09T08:37:41.899Z"
}